{
  "contractName": "Main",
  "abi": [
    {
      "anonymous": false,
      "inputs": [
        {
          "indexed": true,
          "internalType": "address",
          "name": "previousOwner",
          "type": "address"
        },
        {
          "indexed": true,
          "internalType": "address",
          "name": "newOwner",
          "type": "address"
        }
      ],
      "name": "OwnershipTransferred",
      "type": "event"
    },
    {
      "inputs": [
        {
          "internalType": "string",
          "name": "locationName",
          "type": "string"
        },
        {
          "internalType": "uint16",
          "name": "id",
          "type": "uint16"
        },
        {
          "internalType": "string",
          "name": "name",
          "type": "string"
        },
        {
          "internalType": "uint16",
          "name": "hp",
          "type": "uint16"
        },
        {
          "internalType": "uint16",
          "name": "atk",
          "type": "uint16"
        },
        {
          "internalType": "uint16",
          "name": "def",
          "type": "uint16"
        },
        {
          "internalType": "uint16",
          "name": "critRate",
          "type": "uint16"
        },
        {
          "internalType": "uint16",
          "name": "critMultiplier",
          "type": "uint16"
        },
        {
          "internalType": "uint8",
          "name": "level",
          "type": "uint8"
        },
        {
          "internalType": "string",
          "name": "class",
          "type": "string"
        }
      ],
      "name": "addLocation",
      "outputs": [],
      "stateMutability": "nonpayable",
      "type": "function"
    },
    {
      "inputs": [
        {
          "internalType": "uint8",
          "name": "id",
          "type": "uint8"
        },
        {
          "internalType": "string",
          "name": "name",
          "type": "string"
        },
        {
          "internalType": "string",
          "name": "class",
          "type": "string"
        },
        {
          "internalType": "uint8",
          "name": "rank",
          "type": "uint8"
        },
        {
          "internalType": "uint16",
          "name": "atk",
          "type": "uint16"
        },
        {
          "internalType": "uint16",
          "name": "def",
          "type": "uint16"
        },
        {
          "internalType": "uint16",
          "name": "hp",
          "type": "uint16"
        },
        {
          "internalType": "uint8",
          "name": "atkPerLevel",
          "type": "uint8"
        },
        {
          "internalType": "uint8",
          "name": "defPerLevel",
          "type": "uint8"
        },
        {
          "internalType": "uint8",
          "name": "hpPerLevel",
          "type": "uint8"
        }
      ],
      "name": "addServant",
      "outputs": [],
      "stateMutability": "nonpayable",
      "type": "function"
    },
    {
      "inputs": [],
      "name": "owner",
      "outputs": [
        {
          "internalType": "address",
          "name": "",
          "type": "address"
        }
      ],
      "stateMutability": "view",
      "type": "function",
      "constant": true
    },
    {
      "inputs": [],
      "name": "renounceOwnership",
      "outputs": [],
      "stateMutability": "nonpayable",
      "type": "function"
    },
    {
      "inputs": [],
      "name": "rollOne",
      "outputs": [],
      "stateMutability": "payable",
      "type": "function",
      "payable": true
    },
    {
      "inputs": [],
      "name": "rollTen",
      "outputs": [],
      "stateMutability": "payable",
      "type": "function",
      "payable": true
    },
    {
      "inputs": [
        {
          "internalType": "address",
          "name": "newOwner",
          "type": "address"
        }
      ],
      "name": "transferOwnership",
      "outputs": [],
      "stateMutability": "nonpayable",
      "type": "function"
    },
    {
      "inputs": [
        {
          "internalType": "string",
          "name": "name",
          "type": "string"
        }
      ],
      "name": "createMaster",
      "outputs": [],
      "stateMutability": "nonpayable",
      "type": "function"
    },
    {
      "inputs": [],
      "name": "getMaster",
      "outputs": [
        {
          "internalType": "string",
          "name": "",
          "type": "string"
        },
        {
          "components": [
            {
              "internalType": "uint8",
              "name": "id",
              "type": "uint8"
            },
            {
              "internalType": "uint8",
              "name": "saint",
              "type": "uint8"
            },
            {
              "internalType": "string",
              "name": "name",
              "type": "string"
            },
            {
              "internalType": "string",
              "name": "class",
              "type": "string"
            },
            {
              "internalType": "uint8",
              "name": "level",
              "type": "uint8"
            },
            {
              "internalType": "uint8",
              "name": "rank",
              "type": "uint8"
            },
            {
              "internalType": "uint8",
              "name": "npLv",
              "type": "uint8"
            },
            {
              "internalType": "uint8",
              "name": "levelCap",
              "type": "uint8"
            },
            {
              "components": [
                {
                  "internalType": "string",
                  "name": "name",
                  "type": "string"
                },
                {
                  "internalType": "string",
                  "name": "description",
                  "type": "string"
                }
              ],
              "internalType": "struct Card.Skill",
              "name": "active",
              "type": "tuple"
            },
            {
              "components": [
                {
                  "internalType": "string",
                  "name": "name",
                  "type": "string"
                },
                {
                  "internalType": "string",
                  "name": "description",
                  "type": "string"
                }
              ],
              "internalType": "struct Card.Skill",
              "name": "passive",
              "type": "tuple"
            },
            {
              "internalType": "uint16",
              "name": "atk",
              "type": "uint16"
            },
            {
              "internalType": "uint16",
              "name": "def",
              "type": "uint16"
            },
            {
              "internalType": "uint16",
              "name": "hp",
              "type": "uint16"
            },
            {
              "internalType": "uint16",
              "name": "critRate",
              "type": "uint16"
            },
            {
              "internalType": "uint16",
              "name": "critMultiplier",
              "type": "uint16"
            },
            {
              "internalType": "uint8",
              "name": "atkPerLevel",
              "type": "uint8"
            },
            {
              "internalType": "uint8",
              "name": "defPerLevel",
              "type": "uint8"
            },
            {
              "internalType": "uint8",
              "name": "hpPerLevel",
              "type": "uint8"
            }
          ],
          "internalType": "struct Card.Servant[]",
          "name": "",
          "type": "tuple[]"
        },
        {
          "components": [
            {
              "internalType": "string",
              "name": "name",
              "type": "string"
            },
            {
              "internalType": "uint256",
              "name": "recommendLv",
              "type": "uint256"
            },
            {
              "components": [
                {
                  "internalType": "uint16",
                  "name": "id",
                  "type": "uint16"
                },
                {
                  "internalType": "string",
                  "name": "name",
                  "type": "string"
                },
                {
                  "internalType": "uint16",
                  "name": "hp",
                  "type": "uint16"
                },
                {
                  "internalType": "uint16",
                  "name": "atk",
                  "type": "uint16"
                },
                {
                  "internalType": "uint16",
                  "name": "def",
                  "type": "uint16"
                },
                {
                  "internalType": "uint16",
                  "name": "critRate",
                  "type": "uint16"
                },
                {
                  "internalType": "uint16",
                  "name": "critMultiplier",
                  "type": "uint16"
                },
                {
                  "internalType": "uint8",
                  "name": "level",
                  "type": "uint8"
                },
                {
                  "internalType": "string",
                  "name": "class",
                  "type": "string"
                }
              ],
              "internalType": "struct Mob.Monster",
              "name": "monster",
              "type": "tuple"
            }
          ],
          "internalType": "struct Mob.Location",
          "name": "",
          "type": "tuple"
        },
        {
          "internalType": "uint16",
          "name": "",
          "type": "uint16"
        }
      ],
      "stateMutability": "view",
      "type": "function",
      "constant": true
    },
    {
      "inputs": [
        {
          "internalType": "uint256",
          "name": "index",
          "type": "uint256"
        }
      ],
      "name": "moveToLocation",
      "outputs": [
        {
          "components": [
            {
              "internalType": "string",
              "name": "name",
              "type": "string"
            },
            {
              "internalType": "uint256",
              "name": "recommendLv",
              "type": "uint256"
            },
            {
              "components": [
                {
                  "internalType": "uint16",
                  "name": "id",
                  "type": "uint16"
                },
                {
                  "internalType": "string",
                  "name": "name",
                  "type": "string"
                },
                {
                  "internalType": "uint16",
                  "name": "hp",
                  "type": "uint16"
                },
                {
                  "internalType": "uint16",
                  "name": "atk",
                  "type": "uint16"
                },
                {
                  "internalType": "uint16",
                  "name": "def",
                  "type": "uint16"
                },
                {
                  "internalType": "uint16",
                  "name": "critRate",
                  "type": "uint16"
                },
                {
                  "internalType": "uint16",
                  "name": "critMultiplier",
                  "type": "uint16"
                },
                {
                  "internalType": "uint8",
                  "name": "level",
                  "type": "uint8"
                },
                {
                  "internalType": "string",
                  "name": "class",
                  "type": "string"
                }
              ],
              "internalType": "struct Mob.Monster",
              "name": "monster",
              "type": "tuple"
            }
          ],
          "internalType": "struct Mob.Location",
          "name": "",
          "type": "tuple"
        }
      ],
      "stateMutability": "nonpayable",
      "type": "function"
    },
    {
      "inputs": [],
      "name": "getLocation",
      "outputs": [
        {
          "components": [
            {
              "internalType": "string",
              "name": "name",
              "type": "string"
            },
            {
              "internalType": "uint256",
              "name": "recommendLv",
              "type": "uint256"
            },
            {
              "components": [
                {
                  "internalType": "uint16",
                  "name": "id",
                  "type": "uint16"
                },
                {
                  "internalType": "string",
                  "name": "name",
                  "type": "string"
                },
                {
                  "internalType": "uint16",
                  "name": "hp",
                  "type": "uint16"
                },
                {
                  "internalType": "uint16",
                  "name": "atk",
                  "type": "uint16"
                },
                {
                  "internalType": "uint16",
                  "name": "def",
                  "type": "uint16"
                },
                {
                  "internalType": "uint16",
                  "name": "critRate",
                  "type": "uint16"
                },
                {
                  "internalType": "uint16",
                  "name": "critMultiplier",
                  "type": "uint16"
                },
                {
                  "internalType": "uint8",
                  "name": "level",
                  "type": "uint8"
                },
                {
                  "internalType": "string",
                  "name": "class",
                  "type": "string"
                }
              ],
              "internalType": "struct Mob.Monster",
              "name": "monster",
              "type": "tuple"
            }
          ],
          "internalType": "struct Mob.Location[]",
          "name": "",
          "type": "tuple[]"
        }
      ],
      "stateMutability": "view",
      "type": "function",
      "constant": true
    },
    {
      "inputs": [
        {
          "internalType": "uint16",
          "name": "index",
          "type": "uint16"
        }
      ],
      "name": "changeChoosen",
      "outputs": [],
      "stateMutability": "nonpayable",
      "type": "function"
    },
    {
      "inputs": [],
      "name": "attack",
      "outputs": [
        {
          "internalType": "string",
          "name": "",
          "type": "string"
        }
      ],
      "stateMutability": "view",
      "type": "function",
      "constant": true
    },
    {
      "inputs": [
        {
          "internalType": "uint256",
          "name": "index",
          "type": "uint256"
        }
      ],
      "name": "levelUp",
      "outputs": [],
      "stateMutability": "payable",
      "type": "function",
      "payable": true
    },
    {
      "inputs": [
        {
          "internalType": "uint256",
          "name": "index",
          "type": "uint256"
        }
      ],
      "name": "grail",
      "outputs": [],
      "stateMutability": "payable",
      "type": "function",
      "payable": true
    }
  ],
  "bytecode": "0x608060405260006009556000600a5566038d7ea4c68000600b55670de0b6b3a7640000600c5567016345785d8a0000600d553480156200003e57600080fd5b50600062000051620000f560201b60201c565b9050806000806101000a81548173ffffffffffffffffffffffffffffffffffffffff021916908373ffffffffffffffffffffffffffffffffffffffff1602179055508073ffffffffffffffffffffffffffffffffffffffff16600073ffffffffffffffffffffffffffffffffffffffff167f8be0079c531659141344cd1fd0a4f28419497f9722a3daafe3b4186f6b6457e060405160405180910390a350620000fd565b600033905090565b615f2a806200010d6000396000f3fe6080604052600436106100e85760003560e01c806374d7ae291161008a578063cbb916c911610059578063cbb916c914610282578063ce2ce3fc146102ab578063e4609fb2146102d6578063f2fde38b146102e0576100e8565b806374d7ae29146101c65780638da5cb5b146101ef5780639e5faafc1461021a578063c486084314610245576100e8565b80632074677e116100c65780632074677e1461013c57806321231a69146101655780635a99719e14610181578063715018a6146101af576100e8565b80630ce90ec2146100ed578063140aaa0d146101095780631a92229014610113575b600080fd5b610107600480360381019061010291906153e9565b610309565b005b61011161094c565b005b34801561011f57600080fd5b5061013a60048036038101906101359190615412565b610f0a565b005b34801561014857600080fd5b50610163600480360381019061015e91906153c0565b6118e7565b005b61017f600480360381019061017a91906153e9565b6119d9565b005b34801561018d57600080fd5b50610196611e1c565b6040516101a69493929190615c1a565b60405180910390f35b3480156101bb57600080fd5b506101c4612956565b005b3480156101d257600080fd5b506101ed60048036038101906101e8919061525c565b612a90565b005b3480156101fb57600080fd5b50610204613349565b6040516102119190615bbb565b60405180910390f35b34801561022657600080fd5b5061022f613372565b60405161023c9190615bf8565b60405180910390f35b34801561025157600080fd5b5061026c600480360381019061026791906153e9565b613e4a565b6040516102799190615cb4565b60405180910390f35b34801561028e57600080fd5b506102a960048036038101906102a4919061529d565b61413a565b005b3480156102b757600080fd5b506102c06143d3565b6040516102cd9190615bd6565b60405180910390f35b6102de6147a9565b005b3480156102ec57600080fd5b5061030760048036038101906103029190615233565b614d48565b005b60405160200161031890615ba6565b60405160208183030381529060405280519060200120600460003373ffffffffffffffffffffffffffffffffffffffff1673ffffffffffffffffffffffffffffffffffffffff16815260200190815260200160002060405160200161037d9190615b8f565b60405160208183030381529060405280519060200120141561039e57600080fd5b80600360003373ffffffffffffffffffffffffffffffffffffffff1673ffffffffffffffffffffffffffffffffffffffff168152602001908152602001600020805490501180156104c45750600360003373ffffffffffffffffffffffffffffffffffffffff1673ffffffffffffffffffffffffffffffffffffffff168152602001908152602001600020818154811061043457fe5b906000526020600020906009020160030160039054906101000a900460ff1660ff16600360003373ffffffffffffffffffffffffffffffffffffffff1673ffffffffffffffffffffffffffffffffffffffff16815260200190815260200160002082815481106104a057fe5b906000526020600020906009020160030160009054906101000a900460ff1660ff16105b80156104d15750600d5434145b6104da57600080fd5b600360003373ffffffffffffffffffffffffffffffffffffffff1673ffffffffffffffffffffffffffffffffffffffff168152602001908152602001600020818154811061052457fe5b9060005260206000209060090201600301600081819054906101000a900460ff168092919060010191906101000a81548160ff021916908360ff16021790555050600360003373ffffffffffffffffffffffffffffffffffffffff1673ffffffffffffffffffffffffffffffffffffffff16815260200190815260200160002081815481106105af57fe5b9060005260206000209060090201600801600a9054906101000a900460ff1660ff16600360003373ffffffffffffffffffffffffffffffffffffffff1673ffffffffffffffffffffffffffffffffffffffff168152602001908152602001600020828154811061061b57fe5b906000526020600020906009020160080160009054906101000a900461ffff1601600360003373ffffffffffffffffffffffffffffffffffffffff1673ffffffffffffffffffffffffffffffffffffffff168152602001908152602001600020828154811061068657fe5b906000526020600020906009020160080160006101000a81548161ffff021916908361ffff160217905550600360003373ffffffffffffffffffffffffffffffffffffffff1673ffffffffffffffffffffffffffffffffffffffff16815260200190815260200160002081815481106106fb57fe5b9060005260206000209060090201600801600b9054906101000a900460ff1660ff16600360003373ffffffffffffffffffffffffffffffffffffffff1673ffffffffffffffffffffffffffffffffffffffff168152602001908152602001600020828154811061076757fe5b906000526020600020906009020160080160029054906101000a900461ffff1601600360003373ffffffffffffffffffffffffffffffffffffffff1673ffffffffffffffffffffffffffffffffffffffff16815260200190815260200160002082815481106107d257fe5b906000526020600020906009020160080160026101000a81548161ffff021916908361ffff160217905550600360003373ffffffffffffffffffffffffffffffffffffffff1673ffffffffffffffffffffffffffffffffffffffff168152602001908152602001600020818154811061084757fe5b9060005260206000209060090201600801600c9054906101000a900460ff1660ff16600360003373ffffffffffffffffffffffffffffffffffffffff1673ffffffffffffffffffffffffffffffffffffffff16815260200190815260200160002082815481106108b357fe5b906000526020600020906009020160080160049054906101000a900461ffff1601600360003373ffffffffffffffffffffffffffffffffffffffff1673ffffffffffffffffffffffffffffffffffffffff168152602001908152602001600020828154811061091e57fe5b906000526020600020906009020160080160046101000a81548161ffff021916908361ffff16021790555050565b60405160200161095b90615ba6565b60405160208183030381529060405280519060200120600460003373ffffffffffffffffffffffffffffffffffffffff1673ffffffffffffffffffffffffffffffffffffffff1681526020019081526020016000206040516020016109c09190615b8f565b6040516020818303038152906040528051906020012014156109e157600080fd5b600a600b540234148015610a3b5750610100600a600360003373ffffffffffffffffffffffffffffffffffffffff1673ffffffffffffffffffffffffffffffffffffffff1681526020019081526020016000208054905001105b610a4457600080fd5b60005b600a811015610f075760003373ffffffffffffffffffffffffffffffffffffffff16600143034060001c01820290506009548181610a8157fe5b06905060005b600a54811015610ef8578160076000600184018152602001908152602001600020541115610ed057600360003373ffffffffffffffffffffffffffffffffffffffff1673ffffffffffffffffffffffffffffffffffffffff16815260200190815260200160002060088281548110610afb57fe5b906000526020600020906009020190806001815401808255809150506001900390600052602060002090600902016000909190919091506000820160009054906101000a900460ff168160000160006101000a81548160ff021916908360ff1602179055506000820160019054906101000a900460ff168160000160016101000a81548160ff021916908360ff16021790555060018201816001019080546001816001161561010002031660029004610bb5929190614ef9565b5060028201816002019080546001816001161561010002031660029004610bdd929190614ef9565b506003820160009054906101000a900460ff168160030160006101000a81548160ff021916908360ff1602179055506003820160019054906101000a900460ff168160030160016101000a81548160ff021916908360ff1602179055506003820160029054906101000a900460ff168160030160026101000a81548160ff021916908360ff1602179055506003820160039054906101000a900460ff168160030160036101000a81548160ff021916908360ff160217905550600482018160040160008201816000019080546001816001161561010002031660029004610cc5929190614ef9565b5060018201816001019080546001816001161561010002031660029004610ced929190614ef9565b505050600682018160060160008201816000019080546001816001161561010002031660029004610d1f929190614ef9565b5060018201816001019080546001816001161561010002031660029004610d47929190614ef9565b5050506008820160009054906101000a900461ffff168160080160006101000a81548161ffff021916908361ffff1602179055506008820160029054906101000a900461ffff168160080160026101000a81548161ffff021916908361ffff1602179055506008820160049054906101000a900461ffff168160080160046101000a81548161ffff021916908361ffff1602179055506008820160069054906101000a900461ffff168160080160066101000a81548161ffff021916908361ffff1602179055506008820160089054906101000a900461ffff168160080160086101000a81548161ffff021916908361ffff16021790555060088201600a9054906101000a900460ff1681600801600a6101000a81548160ff021916908360ff16021790555060088201600b9054906101000a900460ff1681600801600b6101000a81548160ff021916908360ff16021790555060088201600c9054906101000a900460ff1681600801600c6101000a81548160ff021916908360ff1602179055505050610ef8565b6007600060018301815260200190815260200160002054820391508080600101915050610a87565b50508080600101915050610a47565b50565b610f12614ef1565b73ffffffffffffffffffffffffffffffffffffffff16610f30613349565b73ffffffffffffffffffffffffffffffffffffffff1614610f86576040517f08c379a0000000000000000000000000000000000000000000000000000000008152600401610f7d90615c94565b60405180910390fd5b604051602001610f9590615ba6565b60405160208183030381529060405280519060200120600660008c60ff168152602001908152602001600020600101604051602001610fd49190615b8f565b6040516020818303038152906040528051906020012014610ff457600080fd5b6000603c905060028860ff16141561100b57604190505b60038860ff16141561101c57604690505b60048860ff16141561102d57605090505b60058860ff16141561103e57605a90505b6040518061024001604052808c60ff168152602001600160ff1681526020018b81526020018a8152602001600160ff1681526020018960ff168152602001600160ff1681526020018260ff16815260200160405180604001604052806040518060400160405280600981526020017f556e646566696e6564000000000000000000000000000000000000000000000081525081526020016040518060400160405280600981526020017f556e646566696e65640000000000000000000000000000000000000000000000815250815250815260200160405180604001604052806040518060400160405280600981526020017f556e646566696e6564000000000000000000000000000000000000000000000081525081526020016040518060400160405280600981526020017f556e646566696e6564000000000000000000000000000000000000000000000081525081525081526020018861ffff1681526020018761ffff1681526020018661ffff168152602001601961ffff16815260200160c861ffff1681526020018560ff1681526020018460ff1681526020018360ff16815250600660008d60ff16815260200190815260200160002060008201518160000160006101000a81548160ff021916908360ff16021790555060208201518160000160016101000a81548160ff021916908360ff1602179055506040820151816001019080519060200190611258929190614f80565b506060820151816002019080519060200190611275929190614f80565b5060808201518160030160006101000a81548160ff021916908360ff16021790555060a08201518160030160016101000a81548160ff021916908360ff16021790555060c08201518160030160026101000a81548160ff021916908360ff16021790555060e08201518160030160036101000a81548160ff021916908360ff160217905550610100820151816004016000820151816000019080519060200190611320929190614f80565b50602082015181600101908051906020019061133d929190614f80565b505050610120820151816006016000820151816000019080519060200190611366929190614f80565b506020820151816001019080519060200190611383929190614f80565b5050506101408201518160080160006101000a81548161ffff021916908361ffff1602179055506101608201518160080160026101000a81548161ffff021916908361ffff1602179055506101808201518160080160046101000a81548161ffff021916908361ffff1602179055506101a08201518160080160066101000a81548161ffff021916908361ffff1602179055506101c08201518160080160086101000a81548161ffff021916908361ffff1602179055506101e082015181600801600a6101000a81548160ff021916908360ff16021790555061020082015181600801600b6101000a81548160ff021916908360ff16021790555061022082015181600801600c6101000a81548160ff021916908360ff1602179055509050506008600660008d60ff16815260200190815260200160002090806001815401808255809150506001900390600052602060002090600902016000909190919091506000820160009054906101000a900460ff168160000160006101000a81548160ff021916908360ff1602179055506000820160019054906101000a900460ff168160000160016101000a81548160ff021916908360ff16021790555060018201816001019080546001816001161561010002031660029004611567929190614ef9565b506002820181600201908054600181600116156101000203166002900461158f929190614ef9565b506003820160009054906101000a900460ff168160030160006101000a81548160ff021916908360ff1602179055506003820160019054906101000a900460ff168160030160016101000a81548160ff021916908360ff1602179055506003820160029054906101000a900460ff168160030160026101000a81548160ff021916908360ff1602179055506003820160039054906101000a900460ff168160030160036101000a81548160ff021916908360ff160217905550600482018160040160008201816000019080546001816001161561010002031660029004611677929190614ef9565b506001820181600101908054600181600116156101000203166002900461169f929190614ef9565b5050506006820181600601600082018160000190805460018160011615610100020316600290046116d1929190614ef9565b50600182018160010190805460018160011615610100020316600290046116f9929190614ef9565b5050506008820160009054906101000a900461ffff168160080160006101000a81548161ffff021916908361ffff1602179055506008820160029054906101000a900461ffff168160080160026101000a81548161ffff021916908361ffff1602179055506008820160049054906101000a900461ffff168160080160046101000a81548161ffff021916908361ffff1602179055506008820160069054906101000a900461ffff168160080160066101000a81548161ffff021916908361ffff1602179055506008820160089054906101000a900461ffff168160080160086101000a81548161ffff021916908361ffff16021790555060088201600a9054906101000a900460ff1681600801600a6101000a81548160ff021916908360ff16021790555060088201600b9054906101000a900460ff1681600801600b6101000a81548160ff021916908360ff16021790555060088201600c9054906101000a900460ff1681600801600c6101000a81548160ff021916908360ff16021790555050508760060360ff1660020a60ff1661ffff16600760008d60ff168152602001908152602001600020819055508760060360ff1660020a60ff1661ffff16600960008282540192505081905550600a600081548092919060010191905055505050505050505050505050565b6040516020016118f690615ba6565b60405160208183030381529060405280519060200120600460003373ffffffffffffffffffffffffffffffffffffffff1673ffffffffffffffffffffffffffffffffffffffff16815260200190815260200160002060405160200161195b9190615b8f565b60405160208183030381529060405280519060200120141561197c57600080fd5b80600560003373ffffffffffffffffffffffffffffffffffffffff1673ffffffffffffffffffffffffffffffffffffffff16815260200190815260200160002060006101000a81548161ffff021916908361ffff16021790555050565b6040516020016119e890615ba6565b60405160208183030381529060405280519060200120600460003373ffffffffffffffffffffffffffffffffffffffff1673ffffffffffffffffffffffffffffffffffffffff168152602001908152602001600020604051602001611a4d9190615b8f565b604051602081830303815290604052805190602001201415611a6e57600080fd5b600c5434148015611aea57506064600360003373ffffffffffffffffffffffffffffffffffffffff1673ffffffffffffffffffffffffffffffffffffffff1681526020019081526020016000208281548110611ac657fe5b906000526020600020906009020160030160039054906101000a900460ff1660ff16105b8015611af7575060008114155b8015611bd85750600360003373ffffffffffffffffffffffffffffffffffffffff1673ffffffffffffffffffffffffffffffffffffffff1681526020019081526020016000208181548110611b4857fe5b906000526020600020906009020160030160009054906101000a900460ff1660ff16600360003373ffffffffffffffffffffffffffffffffffffffff1673ffffffffffffffffffffffffffffffffffffffff1681526020019081526020016000208281548110611bb457fe5b906000526020600020906009020160030160039054906101000a900460ff1660ff16145b611be157600080fd5b605a600360003373ffffffffffffffffffffffffffffffffffffffff1673ffffffffffffffffffffffffffffffffffffffff1681526020019081526020016000208281548110611c2d57fe5b906000526020600020906009020160030160039054906101000a900460ff1660ff161015611d39576005600360003373ffffffffffffffffffffffffffffffffffffffff1673ffffffffffffffffffffffffffffffffffffffff1681526020019081526020016000208281548110611ca157fe5b906000526020600020906009020160030160039054906101000a900460ff1601600360003373ffffffffffffffffffffffffffffffffffffffff1673ffffffffffffffffffffffffffffffffffffffff1681526020019081526020016000208281548110611d0b57fe5b906000526020600020906009020160030160036101000a81548160ff021916908360ff160217905550611e19565b6002600360003373ffffffffffffffffffffffffffffffffffffffff1673ffffffffffffffffffffffffffffffffffffffff1681526020019081526020016000208281548110611d8557fe5b906000526020600020906009020160030160039054906101000a900460ff1601600360003373ffffffffffffffffffffffffffffffffffffffff1673ffffffffffffffffffffffffffffffffffffffff1681526020019081526020016000208281548110611def57fe5b906000526020600020906009020160030160036101000a81548160ff021916908360ff1602179055505b50565b606080611e27615000565b6000604051602001611e3890615ba6565b60405160208183030381529060405280519060200120600460003373ffffffffffffffffffffffffffffffffffffffff1673ffffffffffffffffffffffffffffffffffffffff168152602001908152602001600020604051602001611e9d9190615b8f565b604051602081830303815290604052805190602001201415611ebe57600080fd5b600460003373ffffffffffffffffffffffffffffffffffffffff1673ffffffffffffffffffffffffffffffffffffffff168152602001908152602001600020600360003373ffffffffffffffffffffffffffffffffffffffff1673ffffffffffffffffffffffffffffffffffffffff168152602001908152602001600020600260003373ffffffffffffffffffffffffffffffffffffffff1673ffffffffffffffffffffffffffffffffffffffff168152602001908152602001600020600560003373ffffffffffffffffffffffffffffffffffffffff1673ffffffffffffffffffffffffffffffffffffffff16815260200190815260200160002060009054906101000a900461ffff16838054600181600116156101000203166002900480601f01602080910402602001604051908101604052809291908181526020018280546001816001161561010002031660029004801561205e5780601f106120335761010080835404028352916020019161205e565b820191906000526020600020905b81548152906001019060200180831161204157829003601f168201915b5050505050935082805480602002602001604051908101604052809291908181526020016000905b828210156126525783829060005260206000209060090201604051806102400160405290816000820160009054906101000a900460ff1660ff1660ff1681526020016000820160019054906101000a900460ff1660ff1660ff168152602001600182018054600181600116156101000203166002900480601f01602080910402602001604051908101604052809291908181526020018280546001816001161561010002031660029004801561217d5780601f106121525761010080835404028352916020019161217d565b820191906000526020600020905b81548152906001019060200180831161216057829003601f168201915b50505050508152602001600282018054600181600116156101000203166002900480601f01602080910402602001604051908101604052809291908181526020018280546001816001161561010002031660029004801561221f5780601f106121f45761010080835404028352916020019161221f565b820191906000526020600020905b81548152906001019060200180831161220257829003601f168201915b505050505081526020016003820160009054906101000a900460ff1660ff1660ff1681526020016003820160019054906101000a900460ff1660ff1660ff1681526020016003820160029054906101000a900460ff1660ff1660ff1681526020016003820160039054906101000a900460ff1660ff1660ff16815260200160048201604051806040016040529081600082018054600181600116156101000203166002900480601f0160208091040260200160405190810160405280929190818152602001828054600181600116156101000203166002900480156123455780601f1061231a57610100808354040283529160200191612345565b820191906000526020600020905b81548152906001019060200180831161232857829003601f168201915b50505050508152602001600182018054600181600116156101000203166002900480601f0160208091040260200160405190810160405280929190818152602001828054600181600116156101000203166002900480156123e75780601f106123bc576101008083540402835291602001916123e7565b820191906000526020600020905b8154815290600101906020018083116123ca57829003601f168201915b505050505081525050815260200160068201604051806040016040529081600082018054600181600116156101000203166002900480601f01602080910402602001604051908101604052809291908181526020018280546001816001161561010002031660029004801561249d5780601f106124725761010080835404028352916020019161249d565b820191906000526020600020905b81548152906001019060200180831161248057829003601f168201915b50505050508152602001600182018054600181600116156101000203166002900480601f01602080910402602001604051908101604052809291908181526020018280546001816001161561010002031660029004801561253f5780601f106125145761010080835404028352916020019161253f565b820191906000526020600020905b81548152906001019060200180831161252257829003601f168201915b50505050508152505081526020016008820160009054906101000a900461ffff1661ffff1661ffff1681526020016008820160029054906101000a900461ffff1661ffff1661ffff1681526020016008820160049054906101000a900461ffff1661ffff1661ffff1681526020016008820160069054906101000a900461ffff1661ffff1661ffff1681526020016008820160089054906101000a900461ffff1661ffff1661ffff16815260200160088201600a9054906101000a900460ff1660ff1660ff16815260200160088201600b9054906101000a900460ff1660ff1660ff16815260200160088201600c9054906101000a900460ff1660ff1660ff168152505081526020019060010190612086565b50505050925081604051806060016040529081600082018054600181600116156101000203166002900480601f0160208091040260200160405190810160405280929190818152602001828054600181600116156101000203166002900480156126fd5780601f106126d2576101008083540402835291602001916126fd565b820191906000526020600020905b8154815290600101906020018083116126e057829003601f168201915b505050505081526020016001820154815260200160028201604051806101200160405290816000820160009054906101000a900461ffff1661ffff1661ffff168152602001600182018054600181600116156101000203166002900480601f0160208091040260200160405190810160405280929190818152602001828054600181600116156101000203166002900480156127da5780601f106127af576101008083540402835291602001916127da565b820191906000526020600020905b8154815290600101906020018083116127bd57829003601f168201915b505050505081526020016002820160009054906101000a900461ffff1661ffff1661ffff1681526020016002820160029054906101000a900461ffff1661ffff1661ffff1681526020016002820160049054906101000a900461ffff1661ffff1661ffff1681526020016002820160069054906101000a900461ffff1661ffff1661ffff1681526020016002820160089054906101000a900461ffff1661ffff1661ffff16815260200160028201600a9054906101000a900460ff1660ff1660ff168152602001600382018054600181600116156101000203166002900480601f0160208091040260200160405190810160405280929190818152602001828054600181600116156101000203166002900480156129395780601f1061290e57610100808354040283529160200191612939565b820191906000526020600020905b81548152906001019060200180831161291c57829003601f168201915b505050505081525050815250509150935093509350935090919293565b61295e614ef1565b73ffffffffffffffffffffffffffffffffffffffff1661297c613349565b73ffffffffffffffffffffffffffffffffffffffff16146129d2576040517f08c379a00000000000000000000000000000000000000000000000000000000081526004016129c990615c94565b60405180910390fd5b600073ffffffffffffffffffffffffffffffffffffffff1660008054906101000a900473ffffffffffffffffffffffffffffffffffffffff1673ffffffffffffffffffffffffffffffffffffffff167f8be0079c531659141344cd1fd0a4f28419497f9722a3daafe3b4186f6b6457e060405160405180910390a360008060006101000a81548173ffffffffffffffffffffffffffffffffffffffff021916908373ffffffffffffffffffffffffffffffffffffffff160217905550565b604051602001612a9f90615ba6565b60405160208183030381529060405280519060200120600460003373ffffffffffffffffffffffffffffffffffffffff1673ffffffffffffffffffffffffffffffffffffffff168152602001908152602001600020604051602001612b049190615b8f565b6040516020818303038152906040528051906020012014612b2457600080fd5b80600460003373ffffffffffffffffffffffffffffffffffffffff1673ffffffffffffffffffffffffffffffffffffffff1681526020019081526020016000209080519060200190612b77929190614f80565b50612b80615027565b604051806102400160405280600160ff168152602001600160ff1681526020016040518060400160405280601081526020017f4d61736875204b797269656c696768740000000000000000000000000000000081525081526020016040518060400160405280600881526020017f536869656c6465720000000000000000000000000000000000000000000000008152508152602001600160ff168152602001600360ff168152602001600160ff168152602001603c60ff16815260200160405180604001604052806040518060400160405280600981526020017f556e646566696e6564000000000000000000000000000000000000000000000081525081526020016040518060400160405280600981526020017f556e646566696e65640000000000000000000000000000000000000000000000815250815250815260200160405180604001604052806040518060400160405280600981526020017f556e646566696e6564000000000000000000000000000000000000000000000081525081526020016040518060400160405280600981526020017f556e646566696e656400000000000000000000000000000000000000000000008152508152508152602001600161ffff168152602001600161ffff168152602001600161ffff168152602001600161ffff168152602001600161ffff168152602001600160ff168152602001600160ff168152602001600160ff168152509050600360003373ffffffffffffffffffffffffffffffffffffffff1673ffffffffffffffffffffffffffffffffffffffff16815260200190815260200160002081908060018154018082558091505060019003906000526020600020906009020160009091909190915060008201518160000160006101000a81548160ff021916908360ff16021790555060208201518160000160016101000a81548160ff021916908360ff1602179055506040820151816001019080519060200190612e62929190614f80565b506060820151816002019080519060200190612e7f929190614f80565b5060808201518160030160006101000a81548160ff021916908360ff16021790555060a08201518160030160016101000a81548160ff021916908360ff16021790555060c08201518160030160026101000a81548160ff021916908360ff16021790555060e08201518160030160036101000a81548160ff021916908360ff160217905550610100820151816004016000820151816000019080519060200190612f2a929190614f80565b506020820151816001019080519060200190612f47929190614f80565b505050610120820151816006016000820151816000019080519060200190612f70929190614f80565b506020820151816001019080519060200190612f8d929190614f80565b5050506101408201518160080160006101000a81548161ffff021916908361ffff1602179055506101608201518160080160026101000a81548161ffff021916908361ffff1602179055506101808201518160080160046101000a81548161ffff021916908361ffff1602179055506101a08201518160080160066101000a81548161ffff021916908361ffff1602179055506101c08201518160080160086101000a81548161ffff021916908361ffff1602179055506101e082015181600801600a6101000a81548160ff021916908360ff16021790555061020082015181600801600b6101000a81548160ff021916908360ff16021790555061022082015181600801600c6101000a81548160ff021916908360ff160217905550505060016000815481106130ba57fe5b9060005260206000209060060201600260003373ffffffffffffffffffffffffffffffffffffffff1673ffffffffffffffffffffffffffffffffffffffff1681526020019081526020016000206000820181600001908054600181600116156101000203166002900461312e929190614ef9565b506001820154816001015560028201816002016000820160009054906101000a900461ffff168160000160006101000a81548161ffff021916908361ffff16021790555060018201816001019080546001816001161561010002031660029004613199929190614ef9565b506002820160009054906101000a900461ffff168160020160006101000a81548161ffff021916908361ffff1602179055506002820160029054906101000a900461ffff168160020160026101000a81548161ffff021916908361ffff1602179055506002820160049054906101000a900461ffff168160020160046101000a81548161ffff021916908361ffff1602179055506002820160069054906101000a900461ffff168160020160066101000a81548161ffff021916908361ffff1602179055506002820160089054906101000a900461ffff168160020160086101000a81548161ffff021916908361ffff16021790555060028201600a9054906101000a900460ff1681600201600a6101000a81548160ff021916908360ff160217905550600382018160030190805460018160011615610100020316600290046132e4929190614ef9565b5050509050506000600560003373ffffffffffffffffffffffffffffffffffffffff1673ffffffffffffffffffffffffffffffffffffffff16815260200190815260200160002060006101000a81548161ffff021916908361ffff1602179055505050565b60008060009054906101000a900473ffffffffffffffffffffffffffffffffffffffff16905090565b606060405160200161338390615ba6565b60405160208183030381529060405280519060200120600460003373ffffffffffffffffffffffffffffffffffffffff1673ffffffffffffffffffffffffffffffffffffffff1681526020019081526020016000206040516020016133e89190615b8f565b60405160208183030381529060405280519060200120141561340957600080fd5b613411615027565b6134196150ed565b600360003373ffffffffffffffffffffffffffffffffffffffff1673ffffffffffffffffffffffffffffffffffffffff168152602001908152602001600020600560003373ffffffffffffffffffffffffffffffffffffffff1673ffffffffffffffffffffffffffffffffffffffff16815260200190815260200160002060009054906101000a900461ffff1661ffff16815481106134b457fe5b9060005260206000209060090201604051806102400160405290816000820160009054906101000a900460ff1660ff1660ff1681526020016000820160019054906101000a900460ff1660ff1660ff168152602001600182018054600181600116156101000203166002900480601f0160208091040260200160405190810160405280929190818152602001828054600181600116156101000203166002900480156135a15780601f10613576576101008083540402835291602001916135a1565b820191906000526020600020905b81548152906001019060200180831161358457829003601f168201915b50505050508152602001600282018054600181600116156101000203166002900480601f0160208091040260200160405190810160405280929190818152602001828054600181600116156101000203166002900480156136435780601f1061361857610100808354040283529160200191613643565b820191906000526020600020905b81548152906001019060200180831161362657829003601f168201915b505050505081526020016003820160009054906101000a900460ff1660ff1660ff1681526020016003820160019054906101000a900460ff1660ff1660ff1681526020016003820160029054906101000a900460ff1660ff1660ff1681526020016003820160039054906101000a900460ff1660ff1660ff16815260200160048201604051806040016040529081600082018054600181600116156101000203166002900480601f0160208091040260200160405190810160405280929190818152602001828054600181600116156101000203166002900480156137695780601f1061373e57610100808354040283529160200191613769565b820191906000526020600020905b81548152906001019060200180831161374c57829003601f168201915b50505050508152602001600182018054600181600116156101000203166002900480601f01602080910402602001604051908101604052809291908181526020018280546001816001161561010002031660029004801561380b5780601f106137e05761010080835404028352916020019161380b565b820191906000526020600020905b8154815290600101906020018083116137ee57829003601f168201915b505050505081525050815260200160068201604051806040016040529081600082018054600181600116156101000203166002900480601f0160208091040260200160405190810160405280929190818152602001828054600181600116156101000203166002900480156138c15780601f10613896576101008083540402835291602001916138c1565b820191906000526020600020905b8154815290600101906020018083116138a457829003601f168201915b50505050508152602001600182018054600181600116156101000203166002900480601f0160208091040260200160405190810160405280929190818152602001828054600181600116156101000203166002900480156139635780601f1061393857610100808354040283529160200191613963565b820191906000526020600020905b81548152906001019060200180831161394657829003601f168201915b50505050508152505081526020016008820160009054906101000a900461ffff1661ffff1661ffff1681526020016008820160029054906101000a900461ffff1661ffff1661ffff1681526020016008820160049054906101000a900461ffff1661ffff1661ffff1681526020016008820160069054906101000a900461ffff1661ffff1661ffff1681526020016008820160089054906101000a900461ffff1661ffff1661ffff16815260200160088201600a9054906101000a900460ff1660ff1660ff16815260200160088201600b9054906101000a900460ff1660ff1660ff16815260200160088201600c9054906101000a900460ff1660ff1660ff16815250509150600260003373ffffffffffffffffffffffffffffffffffffffff1673ffffffffffffffffffffffffffffffffffffffff168152602001908152602001600020600201604051806101200160405290816000820160009054906101000a900461ffff1661ffff1661ffff168152602001600182018054600181600116156101000203166002900480601f016020809104026020016040519081016040528092919081815260200182805460018160011615610100020316600290048015613b705780601f10613b4557610100808354040283529160200191613b70565b820191906000526020600020905b815481529060010190602001808311613b5357829003601f168201915b505050505081526020016002820160009054906101000a900461ffff1661ffff1661ffff1681526020016002820160029054906101000a900461ffff1661ffff1661ffff1681526020016002820160049054906101000a900461ffff1661ffff1661ffff1681526020016002820160069054906101000a900461ffff1661ffff1661ffff1681526020016002820160089054906101000a900461ffff1661ffff1661ffff16815260200160028201600a9054906101000a900460ff1660ff1660ff168152602001600382018054600181600116156101000203166002900480601f016020809104026020016040519081016040528092919081815260200182805460018160011615610100020316600290048015613ccf5780601f10613ca457610100808354040283529160200191613ccf565b820191906000526020600020905b815481529060010190602001808311613cb257829003601f168201915b505050505081525050905060005b600083610180015161ffff16118015613cfe57506000826040015161ffff16115b15613e4357600082608001518461014001510161ffff168461014001518561014001510261ffff1681613d2d57fe5b049050600084610160015184606001510161ffff16846060015185606001510261ffff1681613d5857fe5b049050836040015161ffff168261ffff1610613db0576040518060400160405280600781526020017f566963746f72790000000000000000000000000000000000000000000000000081525095505050505050613e47565b81846040015103846040019061ffff16908161ffff168152505084610180015161ffff168161ffff1610613e20576040518060400160405280600881526020017f446566656174656400000000000000000000000000000000000000000000000081525095505050505050613e47565b808561018001510385610180019061ffff16908161ffff16815250505050613cdd565b5050505b90565b613e52615000565b604051602001613e6190615ba6565b60405160208183030381529060405280519060200120600460003373ffffffffffffffffffffffffffffffffffffffff1673ffffffffffffffffffffffffffffffffffffffff168152602001908152602001600020604051602001613ec69190615b8f565b604051602081830303815290604052805190602001201415613ee757600080fd5b6001805490508210613ef857600080fd5b60018281548110613f0557fe5b9060005260206000209060060201600260003373ffffffffffffffffffffffffffffffffffffffff1673ffffffffffffffffffffffffffffffffffffffff16815260200190815260200160002060008201816000019080546001816001161561010002031660029004613f79929190614ef9565b506001820154816001015560028201816002016000820160009054906101000a900461ffff168160000160006101000a81548161ffff021916908361ffff16021790555060018201816001019080546001816001161561010002031660029004613fe4929190614ef9565b506002820160009054906101000a900461ffff168160020160006101000a81548161ffff021916908361ffff1602179055506002820160029054906101000a900461ffff168160020160026101000a81548161ffff021916908361ffff1602179055506002820160049054906101000a900461ffff168160020160046101000a81548161ffff021916908361ffff1602179055506002820160069054906101000a900461ffff168160020160066101000a81548161ffff021916908361ffff1602179055506002820160089054906101000a900461ffff168160020160086101000a81548161ffff021916908361ffff16021790555060028201600a9054906101000a900460ff1681600201600a6101000a81548160ff021916908360ff1602179055506003820181600301908054600181600116156101000203166002900461412f929190614ef9565b505050905050919050565b614142614ef1565b73ffffffffffffffffffffffffffffffffffffffff16614160613349565b73ffffffffffffffffffffffffffffffffffffffff16146141b6576040517f08c379a00000000000000000000000000000000000000000000000000000000081526004016141ad90615c94565b60405180910390fd5b6141be615000565b60405180606001604052808c81526020018460ff1681526020016040518061012001604052808d61ffff1681526020018c81526020018b61ffff1681526020018a61ffff1681526020018961ffff1681526020018861ffff1681526020018761ffff1681526020018660ff16815260200185815250815250905060018190806001815401808255809150506001900390600052602060002090600602016000909190919091506000820151816000019080519060200190614280929190614f80565b506020820151816001015560408201518160020160008201518160000160006101000a81548161ffff021916908361ffff16021790555060208201518160010190805190602001906142d3929190614f80565b5060408201518160020160006101000a81548161ffff021916908361ffff16021790555060608201518160020160026101000a81548161ffff021916908361ffff16021790555060808201518160020160046101000a81548161ffff021916908361ffff16021790555060a08201518160020160066101000a81548161ffff021916908361ffff16021790555060c08201518160020160086101000a81548161ffff021916908361ffff16021790555060e082015181600201600a6101000a81548160ff021916908360ff1602179055506101008201518160030190805190602001906143c1929190614f80565b50505050505050505050505050505050565b60606040516020016143e490615ba6565b60405160208183030381529060405280519060200120600460003373ffffffffffffffffffffffffffffffffffffffff1673ffffffffffffffffffffffffffffffffffffffff1681526020019081526020016000206040516020016144499190615b8f565b60405160208183030381529060405280519060200120141561446a57600080fd5b6001805480602002602001604051908101604052809291908181526020016000905b828210156147a05783829060005260206000209060060201604051806060016040529081600082018054600181600116156101000203166002900480601f0160208091040260200160405190810160405280929190818152602001828054600181600116156101000203166002900480156145485780601f1061451d57610100808354040283529160200191614548565b820191906000526020600020905b81548152906001019060200180831161452b57829003601f168201915b505050505081526020016001820154815260200160028201604051806101200160405290816000820160009054906101000a900461ffff1661ffff1661ffff168152602001600182018054600181600116156101000203166002900480601f0160208091040260200160405190810160405280929190818152602001828054600181600116156101000203166002900480156146255780601f106145fa57610100808354040283529160200191614625565b820191906000526020600020905b81548152906001019060200180831161460857829003601f168201915b505050505081526020016002820160009054906101000a900461ffff1661ffff1661ffff1681526020016002820160029054906101000a900461ffff1661ffff1661ffff1681526020016002820160049054906101000a900461ffff1661ffff1661ffff1681526020016002820160069054906101000a900461ffff1661ffff1661ffff1681526020016002820160089054906101000a900461ffff1661ffff1661ffff16815260200160028201600a9054906101000a900460ff1660ff1660ff168152602001600382018054600181600116156101000203166002900480601f0160208091040260200160405190810160405280929190818152602001828054600181600116156101000203166002900480156147845780601f1061475957610100808354040283529160200191614784565b820191906000526020600020905b81548152906001019060200180831161476757829003601f168201915b505050505081525050815250508152602001906001019061448c565b50505050905090565b6040516020016147b890615ba6565b60405160208183030381529060405280519060200120600460003373ffffffffffffffffffffffffffffffffffffffff1673ffffffffffffffffffffffffffffffffffffffff16815260200190815260200160002060405160200161481d9190615b8f565b60405160208183030381529060405280519060200120141561483e57600080fd5b600b543414801561489557506101006001600360003373ffffffffffffffffffffffffffffffffffffffff1673ffffffffffffffffffffffffffffffffffffffff1681526020019081526020016000208054905001105b61489e57600080fd5b60003373ffffffffffffffffffffffffffffffffffffffff16600143034060001c01905060095481816148cd57fe5b06905060005b600a54811015614d44578160076000600184018152602001908152602001600020541115614d1c57600360003373ffffffffffffffffffffffffffffffffffffffff1673ffffffffffffffffffffffffffffffffffffffff1681526020019081526020016000206008828154811061494757fe5b906000526020600020906009020190806001815401808255809150506001900390600052602060002090600902016000909190919091506000820160009054906101000a900460ff168160000160006101000a81548160ff021916908360ff1602179055506000820160019054906101000a900460ff168160000160016101000a81548160ff021916908360ff16021790555060018201816001019080546001816001161561010002031660029004614a01929190614ef9565b5060028201816002019080546001816001161561010002031660029004614a29929190614ef9565b506003820160009054906101000a900460ff168160030160006101000a81548160ff021916908360ff1602179055506003820160019054906101000a900460ff168160030160016101000a81548160ff021916908360ff1602179055506003820160029054906101000a900460ff168160030160026101000a81548160ff021916908360ff1602179055506003820160039054906101000a900460ff168160030160036101000a81548160ff021916908360ff160217905550600482018160040160008201816000019080546001816001161561010002031660029004614b11929190614ef9565b5060018201816001019080546001816001161561010002031660029004614b39929190614ef9565b505050600682018160060160008201816000019080546001816001161561010002031660029004614b6b929190614ef9565b5060018201816001019080546001816001161561010002031660029004614b93929190614ef9565b5050506008820160009054906101000a900461ffff168160080160006101000a81548161ffff021916908361ffff1602179055506008820160029054906101000a900461ffff168160080160026101000a81548161ffff021916908361ffff1602179055506008820160049054906101000a900461ffff168160080160046101000a81548161ffff021916908361ffff1602179055506008820160069054906101000a900461ffff168160080160066101000a81548161ffff021916908361ffff1602179055506008820160089054906101000a900461ffff168160080160086101000a81548161ffff021916908361ffff16021790555060088201600a9054906101000a900460ff1681600801600a6101000a81548160ff021916908360ff16021790555060088201600b9054906101000a900460ff1681600801600b6101000a81548160ff021916908360ff16021790555060088201600c9054906101000a900460ff1681600801600c6101000a81548160ff021916908360ff1602179055505050614d44565b60076000600183018152602001908152602001600020548203915080806001019150506148d3565b5050565b614d50614ef1565b73ffffffffffffffffffffffffffffffffffffffff16614d6e613349565b73ffffffffffffffffffffffffffffffffffffffff1614614dc4576040517f08c379a0000000000000000000000000000000000000000000000000000000008152600401614dbb90615c94565b60405180910390fd5b600073ffffffffffffffffffffffffffffffffffffffff168173ffffffffffffffffffffffffffffffffffffffff161415614e34576040517f08c379a0000000000000000000000000000000000000000000000000000000008152600401614e2b90615c74565b60405180910390fd5b8073ffffffffffffffffffffffffffffffffffffffff1660008054906101000a900473ffffffffffffffffffffffffffffffffffffffff1673ffffffffffffffffffffffffffffffffffffffff167f8be0079c531659141344cd1fd0a4f28419497f9722a3daafe3b4186f6b6457e060405160405180910390a3806000806101000a81548173ffffffffffffffffffffffffffffffffffffffff021916908373ffffffffffffffffffffffffffffffffffffffff16021790555050565b600033905090565b828054600181600116156101000203166002900490600052602060002090601f016020900481019282601f10614f325780548555614f6f565b82800160010185558215614f6f57600052602060002091601f016020900482015b82811115614f6e578254825591600101919060010190614f53565b5b509050614f7c9190615154565b5090565b828054600181600116156101000203166002900490600052602060002090601f016020900481019282601f10614fc157805160ff1916838001178555614fef565b82800160010185558215614fef579182015b82811115614fee578251825591602001919060010190614fd3565b5b509050614ffc9190615154565b5090565b604051806060016040528060608152602001600081526020016150216150ed565b81525090565b604051806102400160405280600060ff168152602001600060ff1681526020016060815260200160608152602001600060ff168152602001600060ff168152602001600060ff168152602001600060ff168152602001615085615171565b8152602001615092615171565b8152602001600061ffff168152602001600061ffff168152602001600061ffff168152602001600061ffff168152602001600061ffff168152602001600060ff168152602001600060ff168152602001600060ff1681525090565b604051806101200160405280600061ffff16815260200160608152602001600061ffff168152602001600061ffff168152602001600061ffff168152602001600061ffff168152602001600061ffff168152602001600060ff168152602001606081525090565b5b8082111561516d576000816000905550600101615155565b5090565b604051806040016040528060608152602001606081525090565b60008135905061519a81615e98565b92915050565b600082601f8301126151b157600080fd5b81356151c46151bf82615d03565b615cd6565b915080825260208301602083018583830111156151e057600080fd5b6151eb838284615e45565b50505092915050565b60008135905061520381615eaf565b92915050565b60008135905061521881615ec6565b92915050565b60008135905061522d81615edd565b92915050565b60006020828403121561524557600080fd5b60006152538482850161518b565b91505092915050565b60006020828403121561526e57600080fd5b600082013567ffffffffffffffff81111561528857600080fd5b615294848285016151a0565b91505092915050565b6000806000806000806000806000806101408b8d0312156152bd57600080fd5b60008b013567ffffffffffffffff8111156152d757600080fd5b6152e38d828e016151a0565b9a505060206152f48d828e016151f4565b99505060408b013567ffffffffffffffff81111561531157600080fd5b61531d8d828e016151a0565b985050606061532e8d828e016151f4565b975050608061533f8d828e016151f4565b96505060a06153508d828e016151f4565b95505060c06153618d828e016151f4565b94505060e06153728d828e016151f4565b9350506101006153848d828e0161521e565b9250506101208b013567ffffffffffffffff8111156153a257600080fd5b6153ae8d828e016151a0565b9150509295989b9194979a5092959850565b6000602082840312156153d257600080fd5b60006153e0848285016151f4565b91505092915050565b6000602082840312156153fb57600080fd5b600061540984828501615209565b91505092915050565b6000806000806000806000806000806101408b8d03121561543257600080fd5b60006154408d828e0161521e565b9a505060208b013567ffffffffffffffff81111561545d57600080fd5b6154698d828e016151a0565b99505060408b013567ffffffffffffffff81111561548657600080fd5b6154928d828e016151a0565b98505060606154a38d828e0161521e565b97505060806154b48d828e016151f4565b96505060a06154c58d828e016151f4565b95505060c06154d68d828e016151f4565b94505060e06154e78d828e0161521e565b9350506101006154f98d828e0161521e565b92505061012061550b8d828e0161521e565b9150509295989b9194979a5092959850565b600061552983836157fe565b905092915050565b600061553d8383615978565b905092915050565b61554e81615dee565b82525050565b600061555f82615d64565b6155698185615d9f565b93508360208202850161557b85615d2f565b8060005b858110156155b75784840389528151615598858261551d565b94506155a383615d85565b925060208a0199505060018101905061557f565b50829750879550505050505092915050565b60006155d482615d6f565b6155de8185615db0565b9350836020820285016155f085615d3f565b8060005b8581101561562c578484038952815161560d8582615531565b945061561883615d92565b925060208a019950506001810190506155f4565b50829750879550505050505092915050565b600061564982615d7a565b6156538185615dc1565b9350615663818560208601615e54565b61566c81615e87565b840191505092915050565b600061568282615d7a565b61568c8185615dd2565b935061569c818560208601615e54565b6156a581615e87565b840191505092915050565b6000815460018116600081146156cd57600181146156f257615736565b607f60028304166156de8187615de3565b955060ff1983168652808601935050615736565b600282046157008187615de3565b955061570b85615d4f565b60005b8281101561572d5781548189015260018201915060208101905061570e565b82880195505050505b505092915050565b600061574b602683615dd2565b91507f4f776e61626c653a206e6577206f776e657220697320746865207a65726f206160008301527f64647265737300000000000000000000000000000000000000000000000000006020830152604082019050919050565b60006157b1602083615dd2565b91507f4f776e61626c653a2063616c6c6572206973206e6f7420746865206f776e65726000830152602082019050919050565b60006157f1600083615de3565b9150600082019050919050565b6000606083016000830151848203600086015261581b828261563e565b91505060208301516158306020860182615b71565b506040830151848203604086015261584882826158ac565b9150508091505092915050565b60006060830160008301518482036000860152615872828261563e565b91505060208301516158876020860182615b71565b506040830151848203604086015261589f82826158ac565b9150508091505092915050565b6000610120830160008301516158c56000860182615b53565b50602083015184820360208601526158dd828261563e565b91505060408301516158f26040860182615b53565b5060608301516159056060860182615b53565b5060808301516159186080860182615b53565b5060a083015161592b60a0860182615b53565b5060c083015161593e60c0860182615b53565b5060e083015161595160e0860182615b80565b5061010083015184820361010086015261596b828261563e565b9150508091505092915050565b6000610240830160008301516159916000860182615b80565b5060208301516159a46020860182615b80565b50604083015184820360408601526159bc828261563e565b915050606083015184820360608601526159d6828261563e565b91505060808301516159eb6080860182615b80565b5060a08301516159fe60a0860182615b80565b5060c0830151615a1160c0860182615b80565b5060e0830151615a2460e0860182615b80565b50610100830151848203610100860152615a3e8282615b0f565b915050610120830151848203610120860152615a5a8282615b0f565b915050610140830151615a71610140860182615b53565b50610160830151615a86610160860182615b53565b50610180830151615a9b610180860182615b53565b506101a0830151615ab06101a0860182615b53565b506101c0830151615ac56101c0860182615b53565b506101e0830151615ada6101e0860182615b80565b50610200830151615aef610200860182615b80565b50610220830151615b04610220860182615b80565b508091505092915050565b60006040830160008301518482036000860152615b2c828261563e565b91505060208301518482036020860152615b46828261563e565b9150508091505092915050565b615b5c81615e00565b82525050565b615b6b81615e00565b82525050565b615b7a81615e2e565b82525050565b615b8981615e38565b82525050565b6000615b9b82846156b0565b915081905092915050565b6000615bb1826157e4565b9150819050919050565b6000602082019050615bd06000830184615545565b92915050565b60006020820190508181036000830152615bf08184615554565b905092915050565b60006020820190508181036000830152615c128184615677565b905092915050565b60006080820190508181036000830152615c348187615677565b90508181036020830152615c4881866155c9565b90508181036040830152615c5c8185615855565b9050615c6b6060830184615b62565b95945050505050565b60006020820190508181036000830152615c8d8161573e565b9050919050565b60006020820190508181036000830152615cad816157a4565b9050919050565b60006020820190508181036000830152615cce8184615855565b905092915050565b6000604051905081810181811067ffffffffffffffff82111715615cf957600080fd5b8060405250919050565b600067ffffffffffffffff821115615d1a57600080fd5b601f19601f8301169050602081019050919050565b6000819050602082019050919050565b6000819050602082019050919050565b60008190508160005260206000209050919050565b600081519050919050565b600081519050919050565b600081519050919050565b6000602082019050919050565b6000602082019050919050565b600082825260208201905092915050565b600082825260208201905092915050565b600082825260208201905092915050565b600082825260208201905092915050565b600081905092915050565b6000615df982615e0e565b9050919050565b600061ffff82169050919050565b600073ffffffffffffffffffffffffffffffffffffffff82169050919050565b6000819050919050565b600060ff82169050919050565b82818337600083830152505050565b60005b83811015615e72578082015181840152602081019050615e57565b83811115615e81576000848401525b50505050565b6000601f19601f8301169050919050565b615ea181615dee565b8114615eac57600080fd5b50565b615eb881615e00565b8114615ec357600080fd5b50565b615ecf81615e2e565b8114615eda57600080fd5b50565b615ee681615e38565b8114615ef157600080fd5b5056fea26469706673582212202c713bdec415313b39883744366682d41f5862c75ef267bb9504ad75a6b6204164736f6c634300060c0033",
  "immutableReferences": {},
  "source": "// SPDX-License-Identifier: GPL-3.0\npragma solidity 0.6.12;\npragma experimental ABIEncoderV2;\n\nimport \"./Pooling.sol\";\nimport \"./Mob.sol\";\n\ncontract Main is Mob, Pooling {\n\t\n\tuint grailPrice = 1 ether;\n\tuint levelUpPrice = 0.1 ether;\n\n\tfunction createMaster(string memory name) public {\n\t\tif(keccak256(abi.encodePacked((masters[msg.sender]))) != keccak256(abi.encodePacked((\"\")))) revert();\n\t\tmasters[msg.sender] = name;\n\t\tServant memory card = Servant(1, 1, \"Mashu Kyrielight\", \"Shielder\", 1, 3, 1, 60, Skill(\"Undefined\", \"Undefined\"), Skill(\"Undefined\", \"Undefined\"), 1, 1, 1, 1, 1, 1, 1, 1);\n    drawed[msg.sender].push(card);\n\t\tmasterLocations[msg.sender] = locations[0];\n\t\tchoosen[msg.sender] = 0;\n\t}\n\n\tfunction getMaster() public view exsist returns(string memory, Servant[] memory, Location memory, uint16) {\n\t\treturn(masters[msg.sender], drawed[msg.sender], masterLocations[msg.sender], choosen[msg.sender]);\n\t}\n\n\tfunction moveToLocation(uint index) public exsist returns(Location memory) {\n\t\trequire(index < locations.length);\n\t\tmasterLocations[msg.sender] = locations[index];\n\t}\n\n  \tfunction getLocation() public view exsist returns(Location[] memory) {\n  \t\treturn locations;\n  \t}\n\n  function changeChoosen(uint16 index) public exsist {\n    choosen[msg.sender] = index;\n  }\n\n  \tfunction attack() public exsist view returns(string memory) {\n      Servant memory servant;\n      Monster memory monster;\n  \t\tservant = drawed[msg.sender][choosen[msg.sender]];\n  \t\tmonster = masterLocations[msg.sender].monster;\n  \t\tuint index = 0;\n  \t\twhile(servant.hp > 0 && monster.hp > 0) {\n  \t\t\tuint16 servantDamage = 0;\n        servantDamage = servant.atk * servant.atk / (servant.atk + monster.def);\n  \t\t\tuint16 monsterDamage = 0;\n        monsterDamage = monster.atk * monster.atk / (monster.atk + servant.def);\n  \t\t\tif(servantDamage >= monster.hp) {\n          return \"Victory\";\n  \t\t\t\tbreak;\n  \t\t\t} else {\n  \t\t\t\tmonster.hp = monster.hp - servantDamage;\n  \t\t\t}\n\n  \t\t\tif(monsterDamage >= servant.hp) {\n          return \"Defeated\";\n  \t\t\t\tbreak;\n  \t\t\t}\n  \t\t\telse {\n  \t\t\t\tservant.hp = servant.hp - monsterDamage;\n  \t\t\t}\n\n  \t\t}\n  \t}\n\n  \tfunction levelUp(uint index) public exsist payable {\n  \t\trequire(drawed[msg.sender].length > index && drawed[msg.sender][index].level < drawed[msg.sender][index].levelCap && msg.value == levelUpPrice);\n  \t\tdrawed[msg.sender][index].level++;\n      drawed[msg.sender][index].atk = drawed[msg.sender][index].atk + drawed[msg.sender][index].atkPerLevel;\n      drawed[msg.sender][index].def = drawed[msg.sender][index].def + drawed[msg.sender][index].defPerLevel;\n      drawed[msg.sender][index].hp = drawed[msg.sender][index].hp + drawed[msg.sender][index].hpPerLevel;\n  \t}\n\n  \tfunction grail(uint index) public exsist payable {\n  \t\trequire(msg.value == grailPrice && drawed[msg.sender][index].levelCap < 100 && index != 0 && drawed[msg.sender][index].levelCap == drawed[msg.sender][index].level);\n  \t\tif(drawed[msg.sender][index].levelCap < 90) drawed[msg.sender][index].levelCap = drawed[msg.sender][index].levelCap + 5;\n  \t\telse drawed[msg.sender][index].levelCap = drawed[msg.sender][index].levelCap + 2;\n  \t}\n}\n",
  "sourcePath": "/Users/NgHViet/Desktop/Blockchain/gacha/blockchain/contracts/Main.sol",
  "compiler": {
    "name": "solc",
    "version": "0.6.12+commit.27d51765.Emscripten.clang"
  },
  "schemaVersion": "3.3.4",
  "updatedAt": "2021-04-18T06:46:38.646Z",
  "networkType": "ethereum",
  "devdoc": {
    "kind": "dev",
    "methods": {
      "owner()": {
        "details": "Returns the address of the current owner."
      },
      "renounceOwnership()": {
        "details": "Leaves the contract without owner. It will not be possible to call `onlyOwner` functions anymore. Can only be called by the current owner. NOTE: Renouncing ownership will leave the contract without an owner, thereby removing any functionality that is only available to the owner."
      },
      "transferOwnership(address)": {
        "details": "Transfers ownership of the contract to a new account (`newOwner`). Can only be called by the current owner."
      }
    },
    "version": 1
  },
  "userdoc": {
    "kind": "user",
    "methods": {},
    "version": 1
  }
}