{
  "contractName": "Main",
  "abi": [
    {
      "anonymous": false,
      "inputs": [
        {
          "indexed": true,
          "internalType": "address",
          "name": "previousOwner",
          "type": "address"
        },
        {
          "indexed": true,
          "internalType": "address",
          "name": "newOwner",
          "type": "address"
        }
      ],
      "name": "OwnershipTransferred",
      "type": "event"
    },
    {
      "inputs": [
        {
          "internalType": "string",
          "name": "locationName",
          "type": "string"
        },
        {
          "internalType": "uint16",
          "name": "id",
          "type": "uint16"
        },
        {
          "internalType": "string",
          "name": "name",
          "type": "string"
        },
        {
          "internalType": "uint16",
          "name": "hp",
          "type": "uint16"
        },
        {
          "internalType": "uint16",
          "name": "atk",
          "type": "uint16"
        },
        {
          "internalType": "uint16",
          "name": "def",
          "type": "uint16"
        },
        {
          "internalType": "uint16",
          "name": "critRate",
          "type": "uint16"
        },
        {
          "internalType": "uint16",
          "name": "critMultiplier",
          "type": "uint16"
        },
        {
          "internalType": "uint8",
          "name": "level",
          "type": "uint8"
        },
        {
          "internalType": "string",
          "name": "class",
          "type": "string"
        }
      ],
      "name": "addLocation",
      "outputs": [],
      "stateMutability": "nonpayable",
      "type": "function"
    },
    {
      "inputs": [
        {
          "internalType": "uint8",
          "name": "id",
          "type": "uint8"
        },
        {
          "internalType": "string",
          "name": "name",
          "type": "string"
        },
        {
          "internalType": "string",
          "name": "class",
          "type": "string"
        },
        {
          "internalType": "uint8",
          "name": "rank",
          "type": "uint8"
        },
        {
          "internalType": "uint16",
          "name": "atk",
          "type": "uint16"
        },
        {
          "internalType": "uint16",
          "name": "def",
          "type": "uint16"
        },
        {
          "internalType": "uint16",
          "name": "hp",
          "type": "uint16"
        },
        {
          "internalType": "uint8",
          "name": "atkPerLevel",
          "type": "uint8"
        },
        {
          "internalType": "uint8",
          "name": "defPerLevel",
          "type": "uint8"
        },
        {
          "internalType": "uint8",
          "name": "hpPerLevel",
          "type": "uint8"
        }
      ],
      "name": "addServant",
      "outputs": [],
      "stateMutability": "nonpayable",
      "type": "function"
    },
    {
      "inputs": [],
      "name": "owner",
      "outputs": [
        {
          "internalType": "address",
          "name": "",
          "type": "address"
        }
      ],
      "stateMutability": "view",
      "type": "function"
    },
    {
      "inputs": [],
      "name": "renounceOwnership",
      "outputs": [],
      "stateMutability": "nonpayable",
      "type": "function"
    },
    {
      "inputs": [],
      "name": "rollOne",
      "outputs": [],
      "stateMutability": "payable",
      "type": "function"
    },
    {
      "inputs": [],
      "name": "rollTen",
      "outputs": [],
      "stateMutability": "payable",
      "type": "function"
    },
    {
      "inputs": [
        {
          "internalType": "address",
          "name": "newOwner",
          "type": "address"
        }
      ],
      "name": "transferOwnership",
      "outputs": [],
      "stateMutability": "nonpayable",
      "type": "function"
    },
    {
      "inputs": [
        {
          "internalType": "string",
          "name": "name",
          "type": "string"
        }
      ],
      "name": "createMaster",
      "outputs": [],
      "stateMutability": "nonpayable",
      "type": "function"
    },
    {
      "inputs": [],
      "name": "getMaster",
      "outputs": [
        {
          "internalType": "string",
          "name": "",
          "type": "string"
        },
        {
          "components": [
            {
              "internalType": "uint8",
              "name": "id",
              "type": "uint8"
            },
            {
              "internalType": "uint8",
              "name": "saint",
              "type": "uint8"
            },
            {
              "internalType": "string",
              "name": "name",
              "type": "string"
            },
            {
              "internalType": "string",
              "name": "class",
              "type": "string"
            },
            {
              "internalType": "uint8",
              "name": "level",
              "type": "uint8"
            },
            {
              "internalType": "uint8",
              "name": "rank",
              "type": "uint8"
            },
            {
              "internalType": "uint8",
              "name": "npLv",
              "type": "uint8"
            },
            {
              "internalType": "uint8",
              "name": "levelCap",
              "type": "uint8"
            },
            {
              "components": [
                {
                  "internalType": "string",
                  "name": "name",
                  "type": "string"
                },
                {
                  "internalType": "string",
                  "name": "description",
                  "type": "string"
                }
              ],
              "internalType": "struct Card.Skill",
              "name": "active",
              "type": "tuple"
            },
            {
              "components": [
                {
                  "internalType": "string",
                  "name": "name",
                  "type": "string"
                },
                {
                  "internalType": "string",
                  "name": "description",
                  "type": "string"
                }
              ],
              "internalType": "struct Card.Skill",
              "name": "passive",
              "type": "tuple"
            },
            {
              "internalType": "uint16",
              "name": "atk",
              "type": "uint16"
            },
            {
              "internalType": "uint16",
              "name": "def",
              "type": "uint16"
            },
            {
              "internalType": "uint16",
              "name": "hp",
              "type": "uint16"
            },
            {
              "internalType": "uint16",
              "name": "critRate",
              "type": "uint16"
            },
            {
              "internalType": "uint16",
              "name": "critMultiplier",
              "type": "uint16"
            },
            {
              "internalType": "uint8",
              "name": "atkPerLevel",
              "type": "uint8"
            },
            {
              "internalType": "uint8",
              "name": "defPerLevel",
              "type": "uint8"
            },
            {
              "internalType": "uint8",
              "name": "hpPerLevel",
              "type": "uint8"
            }
          ],
          "internalType": "struct Card.Servant[]",
          "name": "",
          "type": "tuple[]"
        },
        {
          "components": [
            {
              "internalType": "string",
              "name": "name",
              "type": "string"
            },
            {
              "internalType": "uint256",
              "name": "recommendLv",
              "type": "uint256"
            },
            {
              "components": [
                {
                  "internalType": "uint16",
                  "name": "id",
                  "type": "uint16"
                },
                {
                  "internalType": "string",
                  "name": "name",
                  "type": "string"
                },
                {
                  "internalType": "uint16",
                  "name": "hp",
                  "type": "uint16"
                },
                {
                  "internalType": "uint16",
                  "name": "atk",
                  "type": "uint16"
                },
                {
                  "internalType": "uint16",
                  "name": "def",
                  "type": "uint16"
                },
                {
                  "internalType": "uint16",
                  "name": "critRate",
                  "type": "uint16"
                },
                {
                  "internalType": "uint16",
                  "name": "critMultiplier",
                  "type": "uint16"
                },
                {
                  "internalType": "uint8",
                  "name": "level",
                  "type": "uint8"
                },
                {
                  "internalType": "string",
                  "name": "class",
                  "type": "string"
                }
              ],
              "internalType": "struct Mob.Monster",
              "name": "monster",
              "type": "tuple"
            }
          ],
          "internalType": "struct Mob.Location",
          "name": "",
          "type": "tuple"
        }
      ],
      "stateMutability": "view",
      "type": "function"
    },
    {
      "inputs": [
        {
          "internalType": "uint256",
          "name": "index",
          "type": "uint256"
        }
      ],
      "name": "moveToLocation",
      "outputs": [
        {
          "components": [
            {
              "internalType": "string",
              "name": "name",
              "type": "string"
            },
            {
              "internalType": "uint256",
              "name": "recommendLv",
              "type": "uint256"
            },
            {
              "components": [
                {
                  "internalType": "uint16",
                  "name": "id",
                  "type": "uint16"
                },
                {
                  "internalType": "string",
                  "name": "name",
                  "type": "string"
                },
                {
                  "internalType": "uint16",
                  "name": "hp",
                  "type": "uint16"
                },
                {
                  "internalType": "uint16",
                  "name": "atk",
                  "type": "uint16"
                },
                {
                  "internalType": "uint16",
                  "name": "def",
                  "type": "uint16"
                },
                {
                  "internalType": "uint16",
                  "name": "critRate",
                  "type": "uint16"
                },
                {
                  "internalType": "uint16",
                  "name": "critMultiplier",
                  "type": "uint16"
                },
                {
                  "internalType": "uint8",
                  "name": "level",
                  "type": "uint8"
                },
                {
                  "internalType": "string",
                  "name": "class",
                  "type": "string"
                }
              ],
              "internalType": "struct Mob.Monster",
              "name": "monster",
              "type": "tuple"
            }
          ],
          "internalType": "struct Mob.Location",
          "name": "",
          "type": "tuple"
        }
      ],
      "stateMutability": "nonpayable",
      "type": "function"
    },
    {
      "inputs": [],
      "name": "getLocation",
      "outputs": [
        {
          "components": [
            {
              "internalType": "string",
              "name": "name",
              "type": "string"
            },
            {
              "internalType": "uint256",
              "name": "recommendLv",
              "type": "uint256"
            },
            {
              "components": [
                {
                  "internalType": "uint16",
                  "name": "id",
                  "type": "uint16"
                },
                {
                  "internalType": "string",
                  "name": "name",
                  "type": "string"
                },
                {
                  "internalType": "uint16",
                  "name": "hp",
                  "type": "uint16"
                },
                {
                  "internalType": "uint16",
                  "name": "atk",
                  "type": "uint16"
                },
                {
                  "internalType": "uint16",
                  "name": "def",
                  "type": "uint16"
                },
                {
                  "internalType": "uint16",
                  "name": "critRate",
                  "type": "uint16"
                },
                {
                  "internalType": "uint16",
                  "name": "critMultiplier",
                  "type": "uint16"
                },
                {
                  "internalType": "uint8",
                  "name": "level",
                  "type": "uint8"
                },
                {
                  "internalType": "string",
                  "name": "class",
                  "type": "string"
                }
              ],
              "internalType": "struct Mob.Monster",
              "name": "monster",
              "type": "tuple"
            }
          ],
          "internalType": "struct Mob.Location[]",
          "name": "",
          "type": "tuple[]"
        }
      ],
      "stateMutability": "view",
      "type": "function"
    },
    {
      "inputs": [],
      "name": "attack",
      "outputs": [
        {
          "internalType": "uint16[]",
          "name": "",
          "type": "uint16[]"
        }
      ],
      "stateMutability": "nonpayable",
      "type": "function"
    }
  ],
  "bytecode": "0x6080604052600160095566038d7ea4c68000600a553480156200002157600080fd5b50600062000034620000d860201b60201c565b9050806000806101000a81548173ffffffffffffffffffffffffffffffffffffffff021916908373ffffffffffffffffffffffffffffffffffffffff1602179055508073ffffffffffffffffffffffffffffffffffffffff16600073ffffffffffffffffffffffffffffffffffffffff167f8be0079c531659141344cd1fd0a4f28419497f9722a3daafe3b4186f6b6457e060405160405180910390a350620000e0565b600033905090565b614d2480620000f06000396000f3fe6080604052600436106100a75760003560e01c80639e5faafc116100645780639e5faafc14610177578063c4860843146101a2578063cbb916c9146101df578063ce2ce3fc14610208578063e4609fb214610233578063f2fde38b1461023d576100a7565b8063140aaa0d146100ac5780631a922290146100b65780635a99719e146100df578063715018a61461010c57806374d7ae29146101235780638da5cb5b1461014c575b600080fd5b6100b4610266565b005b3480156100c257600080fd5b506100dd60048036038101906100d8919061417a565b610278565b005b3480156100eb57600080fd5b506100f46107d4565b604051610103939291906149e9565b60405180910390f35b34801561011857600080fd5b506101216112bb565b005b34801561012f57600080fd5b5061014a60048036038101906101459190613fed565b6113f5565b005b34801561015857600080fd5b50610161611b9e565b60405161016e919061498a565b60405180910390f35b34801561018357600080fd5b5061018c611bc7565b60405161019991906149c7565b60405180910390f35b3480156101ae57600080fd5b506101c960048036038101906101c49190614151565b61261a565b6040516101d69190614a75565b60405180910390f35b3480156101eb57600080fd5b506102066004803603810190610201919061402e565b61290a565b005b34801561021457600080fd5b5061021d612ba3565b60405161022a91906149a5565b60405180910390f35b61023b612f79565b005b34801561024957600080fd5b50610264600480360381019061025f9190613fc4565b6135a0565b005b600a805402341461027657600080fd5b565b610280613749565b73ffffffffffffffffffffffffffffffffffffffff1661029e611b9e565b73ffffffffffffffffffffffffffffffffffffffff16146102f4576040517f08c379a00000000000000000000000000000000000000000000000000000000081526004016102eb90614a55565b60405180910390fd5b60405160200161030390614975565b60405160208183030381529060405280519060200120600760008c60ff168152602001908152602001600020600101604051602001610342919061495e565b604051602081830303815290604052805190602001201461036257600080fd5b6040518061024001604052808b60ff168152602001600160ff1681526020018a8152602001898152602001600160ff1681526020018860ff168152602001600160ff168152602001605060ff16815260200160405180604001604052806040518060400160405280600981526020017f556e646566696e6564000000000000000000000000000000000000000000000081525081526020016040518060400160405280600981526020017f556e646566696e65640000000000000000000000000000000000000000000000815250815250815260200160405180604001604052806040518060400160405280600981526020017f556e646566696e6564000000000000000000000000000000000000000000000081525081526020016040518060400160405280600981526020017f556e646566696e6564000000000000000000000000000000000000000000000081525081525081526020018761ffff1681526020018661ffff1681526020018561ffff168152602001601961ffff16815260200160c861ffff1681526020018460ff1681526020018360ff1681526020018260ff16815250600760008c60ff16815260200190815260200160002060008201518160000160006101000a81548160ff021916908360ff16021790555060208201518160000160016101000a81548160ff021916908360ff160217905550604082015181600101908051906020019061057d929190613c8a565b50606082015181600201908051906020019061059a929190613c8a565b5060808201518160030160006101000a81548160ff021916908360ff16021790555060a08201518160030160016101000a81548160ff021916908360ff16021790555060c08201518160030160026101000a81548160ff021916908360ff16021790555060e08201518160030160036101000a81548160ff021916908360ff160217905550610100820151816004016000820151816000019080519060200190610645929190613c8a565b506020820151816001019080519060200190610662929190613c8a565b50505061012082015181600601600082015181600001908051906020019061068b929190613c8a565b5060208201518160010190805190602001906106a8929190613c8a565b5050506101408201518160080160006101000a81548161ffff021916908361ffff1602179055506101608201518160080160026101000a81548161ffff021916908361ffff1602179055506101808201518160080160046101000a81548161ffff021916908361ffff1602179055506101a08201518160080160066101000a81548161ffff021916908361ffff1602179055506101c08201518160080160086101000a81548161ffff021916908361ffff1602179055506101e082015181600801600a6101000a81548160ff021916908360ff16021790555061020082015181600801600b6101000a81548160ff021916908360ff16021790555061022082015181600801600c6101000a81548160ff021916908360ff16021790555090505050505050505050505050565b6060806107df613d0a565b6040516020016107ee90614975565b60405160208183030381529060405280519060200120600460003373ffffffffffffffffffffffffffffffffffffffff1673ffffffffffffffffffffffffffffffffffffffff168152602001908152602001600020604051602001610853919061495e565b60405160208183030381529060405280519060200120141561087457600080fd5b600460003373ffffffffffffffffffffffffffffffffffffffff1673ffffffffffffffffffffffffffffffffffffffff168152602001908152602001600020600360003373ffffffffffffffffffffffffffffffffffffffff1673ffffffffffffffffffffffffffffffffffffffff168152602001908152602001600020600260003373ffffffffffffffffffffffffffffffffffffffff1673ffffffffffffffffffffffffffffffffffffffff168152602001908152602001600020828054600181600116156101000203166002900480601f0160208091040260200160405190810160405280929190818152602001828054600181600116156101000203166002900480156109c65780601f1061099b576101008083540402835291602001916109c6565b820191906000526020600020905b8154815290600101906020018083116109a957829003601f168201915b5050505050925081805480602002602001604051908101604052809291908181526020016000905b82821015610fba5783829060005260206000209060090201604051806102400160405290816000820160009054906101000a900460ff1660ff1660ff1681526020016000820160019054906101000a900460ff1660ff1660ff168152602001600182018054600181600116156101000203166002900480601f016020809104026020016040519081016040528092919081815260200182805460018160011615610100020316600290048015610ae55780601f10610aba57610100808354040283529160200191610ae5565b820191906000526020600020905b815481529060010190602001808311610ac857829003601f168201915b50505050508152602001600282018054600181600116156101000203166002900480601f016020809104026020016040519081016040528092919081815260200182805460018160011615610100020316600290048015610b875780601f10610b5c57610100808354040283529160200191610b87565b820191906000526020600020905b815481529060010190602001808311610b6a57829003601f168201915b505050505081526020016003820160009054906101000a900460ff1660ff1660ff1681526020016003820160019054906101000a900460ff1660ff1660ff1681526020016003820160029054906101000a900460ff1660ff1660ff1681526020016003820160039054906101000a900460ff1660ff1660ff16815260200160048201604051806040016040529081600082018054600181600116156101000203166002900480601f016020809104026020016040519081016040528092919081815260200182805460018160011615610100020316600290048015610cad5780601f10610c8257610100808354040283529160200191610cad565b820191906000526020600020905b815481529060010190602001808311610c9057829003601f168201915b50505050508152602001600182018054600181600116156101000203166002900480601f016020809104026020016040519081016040528092919081815260200182805460018160011615610100020316600290048015610d4f5780601f10610d2457610100808354040283529160200191610d4f565b820191906000526020600020905b815481529060010190602001808311610d3257829003601f168201915b505050505081525050815260200160068201604051806040016040529081600082018054600181600116156101000203166002900480601f016020809104026020016040519081016040528092919081815260200182805460018160011615610100020316600290048015610e055780601f10610dda57610100808354040283529160200191610e05565b820191906000526020600020905b815481529060010190602001808311610de857829003601f168201915b50505050508152602001600182018054600181600116156101000203166002900480601f016020809104026020016040519081016040528092919081815260200182805460018160011615610100020316600290048015610ea75780601f10610e7c57610100808354040283529160200191610ea7565b820191906000526020600020905b815481529060010190602001808311610e8a57829003601f168201915b50505050508152505081526020016008820160009054906101000a900461ffff1661ffff1661ffff1681526020016008820160029054906101000a900461ffff1661ffff1661ffff1681526020016008820160049054906101000a900461ffff1661ffff1661ffff1681526020016008820160069054906101000a900461ffff1661ffff1661ffff1681526020016008820160089054906101000a900461ffff1661ffff1661ffff16815260200160088201600a9054906101000a900460ff1660ff1660ff16815260200160088201600b9054906101000a900460ff1660ff1660ff16815260200160088201600c9054906101000a900460ff1660ff1660ff1681525050815260200190600101906109ee565b50505050915080604051806060016040529081600082018054600181600116156101000203166002900480601f0160208091040260200160405190810160405280929190818152602001828054600181600116156101000203166002900480156110655780601f1061103a57610100808354040283529160200191611065565b820191906000526020600020905b81548152906001019060200180831161104857829003601f168201915b505050505081526020016001820154815260200160028201604051806101200160405290816000820160009054906101000a900461ffff1661ffff1661ffff168152602001600182018054600181600116156101000203166002900480601f0160208091040260200160405190810160405280929190818152602001828054600181600116156101000203166002900480156111425780601f1061111757610100808354040283529160200191611142565b820191906000526020600020905b81548152906001019060200180831161112557829003601f168201915b505050505081526020016002820160009054906101000a900461ffff1661ffff1661ffff1681526020016002820160029054906101000a900461ffff1661ffff1661ffff1681526020016002820160049054906101000a900461ffff1661ffff1661ffff1681526020016002820160069054906101000a900461ffff1661ffff1661ffff1681526020016002820160089054906101000a900461ffff1661ffff1661ffff16815260200160028201600a9054906101000a900460ff1660ff1660ff168152602001600382018054600181600116156101000203166002900480601f0160208091040260200160405190810160405280929190818152602001828054600181600116156101000203166002900480156112a15780601f10611276576101008083540402835291602001916112a1565b820191906000526020600020905b81548152906001019060200180831161128457829003601f168201915b505050505081525050815250509050925092509250909192565b6112c3613749565b73ffffffffffffffffffffffffffffffffffffffff166112e1611b9e565b73ffffffffffffffffffffffffffffffffffffffff1614611337576040517f08c379a000000000000000000000000000000000000000000000000000000000815260040161132e90614a55565b60405180910390fd5b600073ffffffffffffffffffffffffffffffffffffffff1660008054906101000a900473ffffffffffffffffffffffffffffffffffffffff1673ffffffffffffffffffffffffffffffffffffffff167f8be0079c531659141344cd1fd0a4f28419497f9722a3daafe3b4186f6b6457e060405160405180910390a360008060006101000a81548173ffffffffffffffffffffffffffffffffffffffff021916908373ffffffffffffffffffffffffffffffffffffffff160217905550565b60405160200161140490614975565b60405160208183030381529060405280519060200120600460003373ffffffffffffffffffffffffffffffffffffffff1673ffffffffffffffffffffffffffffffffffffffff168152602001908152602001600020604051602001611469919061495e565b604051602081830303815290604052805190602001201461148957600080fd5b80600460003373ffffffffffffffffffffffffffffffffffffffff1673ffffffffffffffffffffffffffffffffffffffff16815260200190815260200160002090805190602001906114dc929190613c8a565b506001600560003373ffffffffffffffffffffffffffffffffffffffff1673ffffffffffffffffffffffffffffffffffffffff1681526020019081526020016000208190555061152b33613751565b600160008154811061153957fe5b9060005260206000209060060201600260003373ffffffffffffffffffffffffffffffffffffffff1673ffffffffffffffffffffffffffffffffffffffff168152602001908152602001600020600082018160000190805460018160011615610100020316600290046115ad929190613d31565b506001820154816001015560028201816002016000820160009054906101000a900461ffff168160000160006101000a81548161ffff021916908361ffff16021790555060018201816001019080546001816001161561010002031660029004611618929190613d31565b506002820160009054906101000a900461ffff168160020160006101000a81548161ffff021916908361ffff1602179055506002820160029054906101000a900461ffff168160020160026101000a81548161ffff021916908361ffff1602179055506002820160049054906101000a900461ffff168160020160046101000a81548161ffff021916908361ffff1602179055506002820160069054906101000a900461ffff168160020160066101000a81548161ffff021916908361ffff1602179055506002820160089054906101000a900461ffff168160020160086101000a81548161ffff021916908361ffff16021790555060028201600a9054906101000a900460ff1681600201600a6101000a81548160ff021916908360ff16021790555060038201816003019080546001816001161561010002031660029004611763929190613d31565b505050905050600360003373ffffffffffffffffffffffffffffffffffffffff1673ffffffffffffffffffffffffffffffffffffffff1681526020019081526020016000206000815481106117b457fe5b9060005260206000209060090201600660003373ffffffffffffffffffffffffffffffffffffffff1673ffffffffffffffffffffffffffffffffffffffff1681526020019081526020016000206000820160009054906101000a900460ff168160000160006101000a81548160ff021916908360ff1602179055506000820160019054906101000a900460ff168160000160016101000a81548160ff021916908360ff16021790555060018201816001019080546001816001161561010002031660029004611884929190613d31565b50600282018160020190805460018160011615610100020316600290046118ac929190613d31565b506003820160009054906101000a900460ff168160030160006101000a81548160ff021916908360ff1602179055506003820160019054906101000a900460ff168160030160016101000a81548160ff021916908360ff1602179055506003820160029054906101000a900460ff168160030160026101000a81548160ff021916908360ff1602179055506003820160039054906101000a900460ff168160030160036101000a81548160ff021916908360ff160217905550600482018160040160008201816000019080546001816001161561010002031660029004611994929190613d31565b50600182018160010190805460018160011615610100020316600290046119bc929190613d31565b5050506006820181600601600082018160000190805460018160011615610100020316600290046119ee929190613d31565b5060018201816001019080546001816001161561010002031660029004611a16929190613d31565b5050506008820160009054906101000a900461ffff168160080160006101000a81548161ffff021916908361ffff1602179055506008820160029054906101000a900461ffff168160080160026101000a81548161ffff021916908361ffff1602179055506008820160049054906101000a900461ffff168160080160046101000a81548161ffff021916908361ffff1602179055506008820160069054906101000a900461ffff168160080160066101000a81548161ffff021916908361ffff1602179055506008820160089054906101000a900461ffff168160080160086101000a81548161ffff021916908361ffff16021790555060088201600a9054906101000a900460ff1681600801600a6101000a81548160ff021916908360ff16021790555060088201600b9054906101000a900460ff1681600801600b6101000a81548160ff021916908360ff16021790555060088201600c9054906101000a900460ff1681600801600c6101000a81548160ff021916908360ff16021790555090505050565b60008060009054906101000a900473ffffffffffffffffffffffffffffffffffffffff16905090565b6060604051602001611bd890614975565b60405160208183030381529060405280519060200120600460003373ffffffffffffffffffffffffffffffffffffffff1673ffffffffffffffffffffffffffffffffffffffff168152602001908152602001600020604051602001611c3d919061495e565b604051602081830303815290604052805190602001201415611c5e57600080fd5b6060611c68613db8565b600660003373ffffffffffffffffffffffffffffffffffffffff1673ffffffffffffffffffffffffffffffffffffffff168152602001908152602001600020604051806102400160405290816000820160009054906101000a900460ff1660ff1660ff1681526020016000820160019054906101000a900460ff1660ff1660ff168152602001600182018054600181600116156101000203166002900480601f016020809104026020016040519081016040528092919081815260200182805460018160011615610100020316600290048015611d865780601f10611d5b57610100808354040283529160200191611d86565b820191906000526020600020905b815481529060010190602001808311611d6957829003601f168201915b50505050508152602001600282018054600181600116156101000203166002900480601f016020809104026020016040519081016040528092919081815260200182805460018160011615610100020316600290048015611e285780601f10611dfd57610100808354040283529160200191611e28565b820191906000526020600020905b815481529060010190602001808311611e0b57829003601f168201915b505050505081526020016003820160009054906101000a900460ff1660ff1660ff1681526020016003820160019054906101000a900460ff1660ff1660ff1681526020016003820160029054906101000a900460ff1660ff1660ff1681526020016003820160039054906101000a900460ff1660ff1660ff16815260200160048201604051806040016040529081600082018054600181600116156101000203166002900480601f016020809104026020016040519081016040528092919081815260200182805460018160011615610100020316600290048015611f4e5780601f10611f2357610100808354040283529160200191611f4e565b820191906000526020600020905b815481529060010190602001808311611f3157829003601f168201915b50505050508152602001600182018054600181600116156101000203166002900480601f016020809104026020016040519081016040528092919081815260200182805460018160011615610100020316600290048015611ff05780601f10611fc557610100808354040283529160200191611ff0565b820191906000526020600020905b815481529060010190602001808311611fd357829003601f168201915b505050505081525050815260200160068201604051806040016040529081600082018054600181600116156101000203166002900480601f0160208091040260200160405190810160405280929190818152602001828054600181600116156101000203166002900480156120a65780601f1061207b576101008083540402835291602001916120a6565b820191906000526020600020905b81548152906001019060200180831161208957829003601f168201915b50505050508152602001600182018054600181600116156101000203166002900480601f0160208091040260200160405190810160405280929190818152602001828054600181600116156101000203166002900480156121485780601f1061211d57610100808354040283529160200191612148565b820191906000526020600020905b81548152906001019060200180831161212b57829003601f168201915b50505050508152505081526020016008820160009054906101000a900461ffff1661ffff1661ffff1681526020016008820160029054906101000a900461ffff1661ffff1661ffff1681526020016008820160049054906101000a900461ffff1661ffff1661ffff1681526020016008820160069054906101000a900461ffff1661ffff1661ffff1681526020016008820160089054906101000a900461ffff1661ffff1661ffff16815260200160088201600a9054906101000a900460ff1660ff1660ff16815260200160088201600b9054906101000a900460ff1660ff1660ff16815260200160088201600c9054906101000a900460ff1660ff1660ff16815250509050612256613e7e565b600260003373ffffffffffffffffffffffffffffffffffffffff1673ffffffffffffffffffffffffffffffffffffffff168152602001908152602001600020600201604051806101200160405290816000820160009054906101000a900461ffff1661ffff1661ffff168152602001600182018054600181600116156101000203166002900480601f01602080910402602001604051908101604052809291908181526020018280546001816001161561010002031660029004801561235d5780601f106123325761010080835404028352916020019161235d565b820191906000526020600020905b81548152906001019060200180831161234057829003601f168201915b505050505081526020016002820160009054906101000a900461ffff1661ffff1661ffff1681526020016002820160029054906101000a900461ffff1661ffff1661ffff1681526020016002820160049054906101000a900461ffff1661ffff1661ffff1681526020016002820160069054906101000a900461ffff1661ffff1661ffff1681526020016002820160089054906101000a900461ffff1661ffff1661ffff16815260200160028201600a9054906101000a900460ff1660ff1660ff168152602001600382018054600181600116156101000203166002900480601f0160208091040260200160405190810160405280929190818152602001828054600181600116156101000203166002900480156124bc5780601f10612491576101008083540402835291602001916124bc565b820191906000526020600020905b81548152906001019060200180831161249f57829003601f168201915b505050505081525050905060005b600083610180015161ffff161180156124eb57506000826040015161ffff16115b1561261057600082608001518461014001510161ffff168461014001518561014001510261ffff168161251a57fe5b049050600084610160015184606001510161ffff16846060015185606001510261ffff168161254557fe5b0490508186848151811061255557fe5b602002602001019061ffff16908161ffff16815250508280600101935050836040015161ffff168261ffff161061258d575050612610565b81846040015103846040019061ffff16908161ffff1681525050808684815181106125b457fe5b602002602001019061ffff16908161ffff1681525050828060010193505084610180015161ffff168161ffff16106125ed575050612610565b808561018001510385610180019061ffff16908161ffff168152505050506124ca565b8394505050505090565b612622613d0a565b60405160200161263190614975565b60405160208183030381529060405280519060200120600460003373ffffffffffffffffffffffffffffffffffffffff1673ffffffffffffffffffffffffffffffffffffffff168152602001908152602001600020604051602001612696919061495e565b6040516020818303038152906040528051906020012014156126b757600080fd5b60018054905082106126c857600080fd5b600182815481106126d557fe5b9060005260206000209060060201600260003373ffffffffffffffffffffffffffffffffffffffff1673ffffffffffffffffffffffffffffffffffffffff16815260200190815260200160002060008201816000019080546001816001161561010002031660029004612749929190613d31565b506001820154816001015560028201816002016000820160009054906101000a900461ffff168160000160006101000a81548161ffff021916908361ffff160217905550600182018160010190805460018160011615610100020316600290046127b4929190613d31565b506002820160009054906101000a900461ffff168160020160006101000a81548161ffff021916908361ffff1602179055506002820160029054906101000a900461ffff168160020160026101000a81548161ffff021916908361ffff1602179055506002820160049054906101000a900461ffff168160020160046101000a81548161ffff021916908361ffff1602179055506002820160069054906101000a900461ffff168160020160066101000a81548161ffff021916908361ffff1602179055506002820160089054906101000a900461ffff168160020160086101000a81548161ffff021916908361ffff16021790555060028201600a9054906101000a900460ff1681600201600a6101000a81548160ff021916908360ff160217905550600382018160030190805460018160011615610100020316600290046128ff929190613d31565b505050905050919050565b612912613749565b73ffffffffffffffffffffffffffffffffffffffff16612930611b9e565b73ffffffffffffffffffffffffffffffffffffffff1614612986576040517f08c379a000000000000000000000000000000000000000000000000000000000815260040161297d90614a55565b60405180910390fd5b61298e613d0a565b60405180606001604052808c81526020018460ff1681526020016040518061012001604052808d61ffff1681526020018c81526020018b61ffff1681526020018a61ffff1681526020018961ffff1681526020018861ffff1681526020018761ffff1681526020018660ff16815260200185815250815250905060018190806001815401808255809150506001900390600052602060002090600602016000909190919091506000820151816000019080519060200190612a50929190613c8a565b506020820151816001015560408201518160020160008201518160000160006101000a81548161ffff021916908361ffff1602179055506020820151816001019080519060200190612aa3929190613c8a565b5060408201518160020160006101000a81548161ffff021916908361ffff16021790555060608201518160020160026101000a81548161ffff021916908361ffff16021790555060808201518160020160046101000a81548161ffff021916908361ffff16021790555060a08201518160020160066101000a81548161ffff021916908361ffff16021790555060c08201518160020160086101000a81548161ffff021916908361ffff16021790555060e082015181600201600a6101000a81548160ff021916908360ff160217905550610100820151816003019080519060200190612b91929190613c8a565b50505050505050505050505050505050565b6060604051602001612bb490614975565b60405160208183030381529060405280519060200120600460003373ffffffffffffffffffffffffffffffffffffffff1673ffffffffffffffffffffffffffffffffffffffff168152602001908152602001600020604051602001612c19919061495e565b604051602081830303815290604052805190602001201415612c3a57600080fd5b6001805480602002602001604051908101604052809291908181526020016000905b82821015612f705783829060005260206000209060060201604051806060016040529081600082018054600181600116156101000203166002900480601f016020809104026020016040519081016040528092919081815260200182805460018160011615610100020316600290048015612d185780601f10612ced57610100808354040283529160200191612d18565b820191906000526020600020905b815481529060010190602001808311612cfb57829003601f168201915b505050505081526020016001820154815260200160028201604051806101200160405290816000820160009054906101000a900461ffff1661ffff1661ffff168152602001600182018054600181600116156101000203166002900480601f016020809104026020016040519081016040528092919081815260200182805460018160011615610100020316600290048015612df55780601f10612dca57610100808354040283529160200191612df5565b820191906000526020600020905b815481529060010190602001808311612dd857829003601f168201915b505050505081526020016002820160009054906101000a900461ffff1661ffff1661ffff1681526020016002820160029054906101000a900461ffff1661ffff1661ffff1681526020016002820160049054906101000a900461ffff1661ffff1661ffff1681526020016002820160069054906101000a900461ffff1661ffff1661ffff1681526020016002820160089054906101000a900461ffff1661ffff1661ffff16815260200160028201600a9054906101000a900460ff1660ff1660ff168152602001600382018054600181600116156101000203166002900480601f016020809104026020016040519081016040528092919081815260200182805460018160011615610100020316600290048015612f545780601f10612f2957610100808354040283529160200191612f54565b820191906000526020600020905b815481529060010190602001808311612f3757829003601f168201915b5050505050815250508152505081526020019060010190612c5c565b50505050905090565b600a543414612f8757600080fd5b612f8f613db8565b604051806102400160405280600160ff168152602001600160ff1681526020016040518060400160405280601081526020017f4d61736875204b797269656c696768740000000000000000000000000000000081525081526020016040518060400160405280600881526020017f536869656c6465720000000000000000000000000000000000000000000000008152508152602001600160ff168152602001600360ff168152602001600160ff168152602001605a60ff16815260200160405180604001604052806040518060400160405280600981526020017f556e646566696e6564000000000000000000000000000000000000000000000081525081526020016040518060400160405280600981526020017f556e646566696e65640000000000000000000000000000000000000000000000815250815250815260200160405180604001604052806040518060400160405280600981526020017f556e646566696e6564000000000000000000000000000000000000000000000081525081526020016040518060400160405280600981526020017f556e646566696e656400000000000000000000000000000000000000000000008152508152508152602001600a61ffff168152602001600a61ffff1681526020016103e861ffff168152602001601961ffff16815260200160c861ffff168152602001606460ff168152602001606460ff168152602001606460ff168152509050600360003373ffffffffffffffffffffffffffffffffffffffff1673ffffffffffffffffffffffffffffffffffffffff16815260200190815260200160002081908060018154018082558091505060019003906000526020600020906009020160009091909190915060008201518160000160006101000a81548160ff021916908360ff16021790555060208201518160000160016101000a81548160ff021916908360ff1602179055506040820151816001019080519060200190613272929190613c8a565b50606082015181600201908051906020019061328f929190613c8a565b5060808201518160030160006101000a81548160ff021916908360ff16021790555060a08201518160030160016101000a81548160ff021916908360ff16021790555060c08201518160030160026101000a81548160ff021916908360ff16021790555060e08201518160030160036101000a81548160ff021916908360ff16021790555061010082015181600401600082015181600001908051906020019061333a929190613c8a565b506020820151816001019080519060200190613357929190613c8a565b505050610120820151816006016000820151816000019080519060200190613380929190613c8a565b50602082015181600101908051906020019061339d929190613c8a565b5050506101408201518160080160006101000a81548161ffff021916908361ffff1602179055506101608201518160080160026101000a81548161ffff021916908361ffff1602179055506101808201518160080160046101000a81548161ffff021916908361ffff1602179055506101a08201518160080160066101000a81548161ffff021916908361ffff1602179055506101c08201518160080160086101000a81548161ffff021916908361ffff1602179055506101e082015181600801600a6101000a81548160ff021916908360ff16021790555061020082015181600801600b6101000a81548160ff021916908360ff16021790555061022082015181600801600c6101000a81548160ff021916908360ff16021790555050506001600360003373ffffffffffffffffffffffffffffffffffffffff1673ffffffffffffffffffffffffffffffffffffffff16815260200190815260200160002060008154811061350957fe5b906000526020600020906009020160030160009054906101000a900460ff1601600360003373ffffffffffffffffffffffffffffffffffffffff1673ffffffffffffffffffffffffffffffffffffffff16815260200190815260200160002060008154811061357457fe5b906000526020600020906009020160030160006101000a81548160ff021916908360ff16021790555050565b6135a8613749565b73ffffffffffffffffffffffffffffffffffffffff166135c6611b9e565b73ffffffffffffffffffffffffffffffffffffffff161461361c576040517f08c379a000000000000000000000000000000000000000000000000000000000815260040161361390614a55565b60405180910390fd5b600073ffffffffffffffffffffffffffffffffffffffff168173ffffffffffffffffffffffffffffffffffffffff16141561368c576040517f08c379a000000000000000000000000000000000000000000000000000000000815260040161368390614a35565b60405180910390fd5b8073ffffffffffffffffffffffffffffffffffffffff1660008054906101000a900473ffffffffffffffffffffffffffffffffffffffff1673ffffffffffffffffffffffffffffffffffffffff167f8be0079c531659141344cd1fd0a4f28419497f9722a3daafe3b4186f6b6457e060405160405180910390a3806000806101000a81548173ffffffffffffffffffffffffffffffffffffffff021916908373ffffffffffffffffffffffffffffffffffffffff16021790555050565b600033905090565b613759613db8565b604051806102400160405280600160ff168152602001600160ff1681526020016040518060400160405280601081526020017f4d61736875204b797269656c696768740000000000000000000000000000000081525081526020016040518060400160405280600881526020017f536869656c6465720000000000000000000000000000000000000000000000008152508152602001600160ff168152602001600360ff168152602001600160ff168152602001603c60ff16815260200160405180604001604052806040518060400160405280600981526020017f556e646566696e6564000000000000000000000000000000000000000000000081525081526020016040518060400160405280600981526020017f556e646566696e65640000000000000000000000000000000000000000000000815250815250815260200160405180604001604052806040518060400160405280600981526020017f556e646566696e6564000000000000000000000000000000000000000000000081525081526020016040518060400160405280600981526020017f556e646566696e656400000000000000000000000000000000000000000000008152508152508152602001600a61ffff168152602001600a61ffff1681526020016103e861ffff168152602001601961ffff16815260200160c861ffff168152602001606460ff168152602001606460ff168152602001606460ff168152509050600360008373ffffffffffffffffffffffffffffffffffffffff1673ffffffffffffffffffffffffffffffffffffffff16815260200190815260200160002081908060018154018082558091505060019003906000526020600020906009020160009091909190915060008201518160000160006101000a81548160ff021916908360ff16021790555060208201518160000160016101000a81548160ff021916908360ff1602179055506040820151816001019080519060200190613a3c929190613c8a565b506060820151816002019080519060200190613a59929190613c8a565b5060808201518160030160006101000a81548160ff021916908360ff16021790555060a08201518160030160016101000a81548160ff021916908360ff16021790555060c08201518160030160026101000a81548160ff021916908360ff16021790555060e08201518160030160036101000a81548160ff021916908360ff160217905550610100820151816004016000820151816000019080519060200190613b04929190613c8a565b506020820151816001019080519060200190613b21929190613c8a565b505050610120820151816006016000820151816000019080519060200190613b4a929190613c8a565b506020820151816001019080519060200190613b67929190613c8a565b5050506101408201518160080160006101000a81548161ffff021916908361ffff1602179055506101608201518160080160026101000a81548161ffff021916908361ffff1602179055506101808201518160080160046101000a81548161ffff021916908361ffff1602179055506101a08201518160080160066101000a81548161ffff021916908361ffff1602179055506101c08201518160080160086101000a81548161ffff021916908361ffff1602179055506101e082015181600801600a6101000a81548160ff021916908360ff16021790555061020082015181600801600b6101000a81548160ff021916908360ff16021790555061022082015181600801600c6101000a81548160ff021916908360ff16021790555050505050565b828054600181600116156101000203166002900490600052602060002090601f016020900481019282601f10613ccb57805160ff1916838001178555613cf9565b82800160010185558215613cf9579182015b82811115613cf8578251825591602001919060010190613cdd565b5b509050613d069190613ee5565b5090565b60405180606001604052806060815260200160008152602001613d2b613e7e565b81525090565b828054600181600116156101000203166002900490600052602060002090601f016020900481019282601f10613d6a5780548555613da7565b82800160010185558215613da757600052602060002091601f016020900482015b82811115613da6578254825591600101919060010190613d8b565b5b509050613db49190613ee5565b5090565b604051806102400160405280600060ff168152602001600060ff1681526020016060815260200160608152602001600060ff168152602001600060ff168152602001600060ff168152602001600060ff168152602001613e16613f02565b8152602001613e23613f02565b8152602001600061ffff168152602001600061ffff168152602001600061ffff168152602001600061ffff168152602001600061ffff168152602001600060ff168152602001600060ff168152602001600060ff1681525090565b604051806101200160405280600061ffff16815260200160608152602001600061ffff168152602001600061ffff168152602001600061ffff168152602001600061ffff168152602001600061ffff168152602001600060ff168152602001606081525090565b5b80821115613efe576000816000905550600101613ee6565b5090565b604051806040016040528060608152602001606081525090565b600081359050613f2b81614c92565b92915050565b600082601f830112613f4257600080fd5b8135613f55613f5082614ac4565b614a97565b91508082526020830160208301858383011115613f7157600080fd5b613f7c838284614c3f565b50505092915050565b600081359050613f9481614ca9565b92915050565b600081359050613fa981614cc0565b92915050565b600081359050613fbe81614cd7565b92915050565b600060208284031215613fd657600080fd5b6000613fe484828501613f1c565b91505092915050565b600060208284031215613fff57600080fd5b600082013567ffffffffffffffff81111561401957600080fd5b61402584828501613f31565b91505092915050565b6000806000806000806000806000806101408b8d03121561404e57600080fd5b60008b013567ffffffffffffffff81111561406857600080fd5b6140748d828e01613f31565b9a505060206140858d828e01613f85565b99505060408b013567ffffffffffffffff8111156140a257600080fd5b6140ae8d828e01613f31565b98505060606140bf8d828e01613f85565b97505060806140d08d828e01613f85565b96505060a06140e18d828e01613f85565b95505060c06140f28d828e01613f85565b94505060e06141038d828e01613f85565b9350506101006141158d828e01613faf565b9250506101208b013567ffffffffffffffff81111561413357600080fd5b61413f8d828e01613f31565b9150509295989b9194979a5092959850565b60006020828403121561416357600080fd5b600061417184828501613f9a565b91505092915050565b6000806000806000806000806000806101408b8d03121561419a57600080fd5b60006141a88d828e01613faf565b9a505060208b013567ffffffffffffffff8111156141c557600080fd5b6141d18d828e01613f31565b99505060408b013567ffffffffffffffff8111156141ee57600080fd5b6141fa8d828e01613f31565b985050606061420b8d828e01613faf565b975050608061421c8d828e01613f85565b96505060a061422d8d828e01613f85565b95505060c061423e8d828e01613f85565b94505060e061424f8d828e01613faf565b9350506101006142618d828e01613faf565b9250506101206142738d828e01613faf565b9150509295989b9194979a5092959850565b600061429183836145dc565b905092915050565b60006142a58383614756565b905092915050565b60006142b98383614931565b60208301905092915050565b6142ce81614be8565b82525050565b60006142df82614b35565b6142e98185614b88565b9350836020820285016142fb85614af0565b8060005b8581101561433757848403895281516143188582614285565b945061432383614b61565b925060208a019950506001810190506142ff565b50829750879550505050505092915050565b600061435482614b40565b61435e8185614b99565b93508360208202850161437085614b00565b8060005b858110156143ac578484038952815161438d8582614299565b945061439883614b6e565b925060208a01995050600181019050614374565b50829750879550505050505092915050565b60006143c982614b4b565b6143d38185614baa565b93506143de83614b10565b8060005b8381101561440f5781516143f688826142ad565b975061440183614b7b565b9250506001810190506143e2565b5085935050505092915050565b600061442782614b56565b6144318185614bbb565b9350614441818560208601614c4e565b61444a81614c81565b840191505092915050565b600061446082614b56565b61446a8185614bcc565b935061447a818560208601614c4e565b61448381614c81565b840191505092915050565b6000815460018116600081146144ab57600181146144d057614514565b607f60028304166144bc8187614bdd565b955060ff1983168652808601935050614514565b600282046144de8187614bdd565b95506144e985614b20565b60005b8281101561450b578154818901526001820191506020810190506144ec565b82880195505050505b505092915050565b6000614529602683614bcc565b91507f4f776e61626c653a206e6577206f776e657220697320746865207a65726f206160008301527f64647265737300000000000000000000000000000000000000000000000000006020830152604082019050919050565b600061458f602083614bcc565b91507f4f776e61626c653a2063616c6c6572206973206e6f7420746865206f776e65726000830152602082019050919050565b60006145cf600083614bdd565b9150600082019050919050565b600060608301600083015184820360008601526145f9828261441c565b915050602083015161460e6020860182614940565b5060408301518482036040860152614626828261468a565b9150508091505092915050565b60006060830160008301518482036000860152614650828261441c565b91505060208301516146656020860182614940565b506040830151848203604086015261467d828261468a565b9150508091505092915050565b6000610120830160008301516146a36000860182614931565b50602083015184820360208601526146bb828261441c565b91505060408301516146d06040860182614931565b5060608301516146e36060860182614931565b5060808301516146f66080860182614931565b5060a083015161470960a0860182614931565b5060c083015161471c60c0860182614931565b5060e083015161472f60e086018261494f565b50610100830151848203610100860152614749828261441c565b9150508091505092915050565b60006102408301600083015161476f600086018261494f565b506020830151614782602086018261494f565b506040830151848203604086015261479a828261441c565b915050606083015184820360608601526147b4828261441c565b91505060808301516147c9608086018261494f565b5060a08301516147dc60a086018261494f565b5060c08301516147ef60c086018261494f565b5060e083015161480260e086018261494f565b5061010083015184820361010086015261481c82826148ed565b91505061012083015184820361012086015261483882826148ed565b91505061014083015161484f610140860182614931565b50610160830151614864610160860182614931565b50610180830151614879610180860182614931565b506101a083015161488e6101a0860182614931565b506101c08301516148a36101c0860182614931565b506101e08301516148b86101e086018261494f565b506102008301516148cd61020086018261494f565b506102208301516148e261022086018261494f565b508091505092915050565b6000604083016000830151848203600086015261490a828261441c565b91505060208301518482036020860152614924828261441c565b9150508091505092915050565b61493a81614bfa565b82525050565b61494981614c28565b82525050565b61495881614c32565b82525050565b600061496a828461448e565b915081905092915050565b6000614980826145c2565b9150819050919050565b600060208201905061499f60008301846142c5565b92915050565b600060208201905081810360008301526149bf81846142d4565b905092915050565b600060208201905081810360008301526149e181846143be565b905092915050565b60006060820190508181036000830152614a038186614455565b90508181036020830152614a178185614349565b90508181036040830152614a2b8184614633565b9050949350505050565b60006020820190508181036000830152614a4e8161451c565b9050919050565b60006020820190508181036000830152614a6e81614582565b9050919050565b60006020820190508181036000830152614a8f8184614633565b905092915050565b6000604051905081810181811067ffffffffffffffff82111715614aba57600080fd5b8060405250919050565b600067ffffffffffffffff821115614adb57600080fd5b601f19601f8301169050602081019050919050565b6000819050602082019050919050565b6000819050602082019050919050565b6000819050602082019050919050565b60008190508160005260206000209050919050565b600081519050919050565b600081519050919050565b600081519050919050565b600081519050919050565b6000602082019050919050565b6000602082019050919050565b6000602082019050919050565b600082825260208201905092915050565b600082825260208201905092915050565b600082825260208201905092915050565b600082825260208201905092915050565b600082825260208201905092915050565b600081905092915050565b6000614bf382614c08565b9050919050565b600061ffff82169050919050565b600073ffffffffffffffffffffffffffffffffffffffff82169050919050565b6000819050919050565b600060ff82169050919050565b82818337600083830152505050565b60005b83811015614c6c578082015181840152602081019050614c51565b83811115614c7b576000848401525b50505050565b6000601f19601f8301169050919050565b614c9b81614be8565b8114614ca657600080fd5b50565b614cb281614bfa565b8114614cbd57600080fd5b50565b614cc981614c28565b8114614cd457600080fd5b50565b614ce081614c32565b8114614ceb57600080fd5b5056fea264697066735822122098ab2b3b80b32104297a6bc3555c89d51eb54f4179a67fc4fef3c4fc7a0e80a764736f6c634300060c0033",
  "immutableReferences": {},
  "source": "// SPDX-License-Identifier: GPL-3.0\npragma solidity 0.6.12;\npragma experimental ABIEncoderV2;\n\nimport \"./Pooling.sol\";\nimport \"./Mob.sol\";\n\ncontract Main is Mob, Pooling {\n\tmodifier exsist() {\n\t\trequire(keccak256(abi.encodePacked((masters[msg.sender]))) != keccak256(abi.encodePacked((\"\"))));\n\t\t_;\n\t}\n\n\tfunction createMaster(string memory name) public {\n\t\trequire(keccak256(abi.encodePacked((masters[msg.sender]))) == keccak256(abi.encodePacked((\"\"))));\n\t\tmasters[msg.sender] = name;\n\t\tcreated[msg.sender] = 1;\n\t\tinitMaster(msg.sender);\n\t\tmasterLocations[msg.sender] = locations[0];\n\t\tchoosen[msg.sender] = drawed[msg.sender][0];\n\t}\n\n\tfunction getMaster() public view exsist returns(string memory, Servant[] memory, Location memory) {\n\t\treturn(masters[msg.sender], drawed[msg.sender], masterLocations[msg.sender]);\n\t}\n\n\tfunction moveToLocation(uint index) public exsist returns(Location memory) {\n\t\trequire(index < locations.length);\n\t\tmasterLocations[msg.sender] = locations[index];\n\t}\n\n  \tfunction getLocation() public view exsist returns(Location[] memory) {\n  \t\treturn locations;\n  \t}\n\n  \tfunction attack() public exsist returns(uint16[] memory) {\n  \t\tuint16[] memory damages;\n  \t\tServant memory servant = choosen[msg.sender];\n  \t\tMonster memory monster = masterLocations[msg.sender].monster;\n  \t\tuint index = 0;\n  \t\twhile(servant.hp > 0 && monster.hp > 0) {\n  \t\t\tuint16 servantDamage = servant.atk * servant.atk / (servant.atk + monster.def);\n  \t\t\tuint16 monsterDamage = monster.atk * monster.atk / (monster.atk + servant.def);\n  \t\t\tdamages[index] = servantDamage;\n  \t\t\tindex ++;\n  \t\t\tif(servantDamage >= monster.hp) {\n  \t\t\t\tbreak;\n  \t\t\t} else {\n  \t\t\t\tmonster.hp = monster.hp - servantDamage;\n  \t\t\t}\n\n\n  \t\t\tdamages[index] = monsterDamage;\n  \t\t\tindex++;\n  \t\t\tif(monsterDamage >= servant.hp) {\n  \t\t\t\tbreak;\n  \t\t\t}\n  \t\t\telse {\n  \t\t\t\tservant.hp = servant.hp - monsterDamage;\n  \t\t\t}\n  \t\t}\n\n  \t\treturn damages;\n  \t}\n}\n",
  "sourcePath": "/Users/NgHViet/Desktop/Blockchain/gacha/blockchain/contracts/Main.sol",
  "compiler": {
    "name": "solc",
    "version": "0.6.12+commit.27d51765.Emscripten.clang"
  },
  "schemaVersion": "3.3.4",
  "updatedAt": "2021-04-17T12:31:40.025Z",
  "devdoc": {
    "kind": "dev",
    "methods": {
      "owner()": {
        "details": "Returns the address of the current owner."
      },
      "renounceOwnership()": {
        "details": "Leaves the contract without owner. It will not be possible to call `onlyOwner` functions anymore. Can only be called by the current owner. NOTE: Renouncing ownership will leave the contract without an owner, thereby removing any functionality that is only available to the owner."
      },
      "transferOwnership(address)": {
        "details": "Transfers ownership of the contract to a new account (`newOwner`). Can only be called by the current owner."
      }
    },
    "version": 1
  },
  "userdoc": {
    "kind": "user",
    "methods": {},
    "version": 1
  }
}