{
  "contractName": "Pooling",
  "abi": [
    {
      "anonymous": false,
      "inputs": [
        {
          "indexed": true,
          "internalType": "address",
          "name": "previousOwner",
          "type": "address"
        },
        {
          "indexed": true,
          "internalType": "address",
          "name": "newOwner",
          "type": "address"
        }
      ],
      "name": "OwnershipTransferred",
      "type": "event"
    },
    {
      "inputs": [],
      "name": "owner",
      "outputs": [
        {
          "internalType": "address",
          "name": "",
          "type": "address"
        }
      ],
      "stateMutability": "view",
      "type": "function"
    },
    {
      "inputs": [],
      "name": "renounceOwnership",
      "outputs": [],
      "stateMutability": "nonpayable",
      "type": "function"
    },
    {
      "inputs": [
        {
          "internalType": "address",
          "name": "newOwner",
          "type": "address"
        }
      ],
      "name": "transferOwnership",
      "outputs": [],
      "stateMutability": "nonpayable",
      "type": "function"
    },
    {
      "inputs": [],
      "name": "rollOne",
      "outputs": [],
      "stateMutability": "payable",
      "type": "function"
    },
    {
      "inputs": [],
      "name": "rollTen",
      "outputs": [],
      "stateMutability": "payable",
      "type": "function"
    },
    {
      "inputs": [
        {
          "internalType": "uint8",
          "name": "id",
          "type": "uint8"
        },
        {
          "internalType": "string",
          "name": "name",
          "type": "string"
        },
        {
          "internalType": "string",
          "name": "class",
          "type": "string"
        },
        {
          "internalType": "uint8",
          "name": "rank",
          "type": "uint8"
        },
        {
          "internalType": "uint16",
          "name": "atk",
          "type": "uint16"
        },
        {
          "internalType": "uint16",
          "name": "def",
          "type": "uint16"
        },
        {
          "internalType": "uint16",
          "name": "hp",
          "type": "uint16"
        },
        {
          "internalType": "uint8",
          "name": "atkPerLevel",
          "type": "uint8"
        },
        {
          "internalType": "uint8",
          "name": "defPerLevel",
          "type": "uint8"
        },
        {
          "internalType": "uint8",
          "name": "hpPerLevel",
          "type": "uint8"
        }
      ],
      "name": "addServant",
      "outputs": [],
      "stateMutability": "nonpayable",
      "type": "function"
    }
  ],
  "bytecode": "0x6080604052600160075566038d7ea4c6800060085534801561002057600080fd5b5060006100316100d460201b60201c565b9050806000806101000a81548173ffffffffffffffffffffffffffffffffffffffff021916908373ffffffffffffffffffffffffffffffffffffffff1602179055508073ffffffffffffffffffffffffffffffffffffffff16600073ffffffffffffffffffffffffffffffffffffffff167f8be0079c531659141344cd1fd0a4f28419497f9722a3daafe3b4186f6b6457e060405160405180910390a3506100dc565b600033905090565b611634806100eb6000396000f3fe6080604052600436106100555760003560e01c8063140aaa0d1461005a5780631a92229014610064578063715018a61461008d5780638da5cb5b146100a4578063e4609fb2146100cf578063f2fde38b146100d9575b600080fd5b610062610102565b005b34801561007057600080fd5b5061008b600480360381019061008691906111e4565b610115565b005b34801561009957600080fd5b506100a2610671565b005b3480156100b057600080fd5b506100b96107ab565b6040516100c69190611478565b60405180910390f35b6100d76107d4565b005b3480156100e557600080fd5b5061010060048036038101906100fb91906111bb565b610dfa565b005b600a60085402341461011357600080fd5b565b61011d610fa3565b73ffffffffffffffffffffffffffffffffffffffff1661013b6107ab565b73ffffffffffffffffffffffffffffffffffffffff1614610191576040517f08c379a0000000000000000000000000000000000000000000000000000000008152600401610188906114b3565b60405180910390fd5b6040516020016101a090611463565b60405160208183030381529060405280519060200120600560008c60ff1681526020019081526020016000206001016040516020016101df919061144c565b60405160208183030381529060405280519060200120146101ff57600080fd5b6040518061024001604052808b60ff168152602001600160ff1681526020018a8152602001898152602001600160ff1681526020018860ff168152602001600160ff168152602001605060ff16815260200160405180604001604052806040518060400160405280600981526020017f556e646566696e6564000000000000000000000000000000000000000000000081525081526020016040518060400160405280600981526020017f556e646566696e65640000000000000000000000000000000000000000000000815250815250815260200160405180604001604052806040518060400160405280600981526020017f556e646566696e6564000000000000000000000000000000000000000000000081525081526020016040518060400160405280600981526020017f556e646566696e6564000000000000000000000000000000000000000000000081525081525081526020018761ffff1681526020018661ffff1681526020018561ffff168152602001601961ffff16815260200160c861ffff1681526020018460ff1681526020018360ff1681526020018260ff16815250600560008c60ff16815260200190815260200160002060008201518160000160006101000a81548160ff021916908360ff16021790555060208201518160000160016101000a81548160ff021916908360ff160217905550604082015181600101908051906020019061041a929190610fab565b506060820151816002019080519060200190610437929190610fab565b5060808201518160030160006101000a81548160ff021916908360ff16021790555060a08201518160030160016101000a81548160ff021916908360ff16021790555060c08201518160030160026101000a81548160ff021916908360ff16021790555060e08201518160030160036101000a81548160ff021916908360ff1602179055506101008201518160040160008201518160000190805190602001906104e2929190610fab565b5060208201518160010190805190602001906104ff929190610fab565b505050610120820151816006016000820151816000019080519060200190610528929190610fab565b506020820151816001019080519060200190610545929190610fab565b5050506101408201518160080160006101000a81548161ffff021916908361ffff1602179055506101608201518160080160026101000a81548161ffff021916908361ffff1602179055506101808201518160080160046101000a81548161ffff021916908361ffff1602179055506101a08201518160080160066101000a81548161ffff021916908361ffff1602179055506101c08201518160080160086101000a81548161ffff021916908361ffff1602179055506101e082015181600801600a6101000a81548160ff021916908360ff16021790555061020082015181600801600b6101000a81548160ff021916908360ff16021790555061022082015181600801600c6101000a81548160ff021916908360ff16021790555090505050505050505050505050565b610679610fa3565b73ffffffffffffffffffffffffffffffffffffffff166106976107ab565b73ffffffffffffffffffffffffffffffffffffffff16146106ed576040517f08c379a00000000000000000000000000000000000000000000000000000000081526004016106e4906114b3565b60405180910390fd5b600073ffffffffffffffffffffffffffffffffffffffff1660008054906101000a900473ffffffffffffffffffffffffffffffffffffffff1673ffffffffffffffffffffffffffffffffffffffff167f8be0079c531659141344cd1fd0a4f28419497f9722a3daafe3b4186f6b6457e060405160405180910390a360008060006101000a81548173ffffffffffffffffffffffffffffffffffffffff021916908373ffffffffffffffffffffffffffffffffffffffff160217905550565b60008060009054906101000a900473ffffffffffffffffffffffffffffffffffffffff16905090565b60085434146107e257600080fd5b6107ea61102b565b604051806102400160405280600160ff168152602001600160ff1681526020016040518060400160405280601081526020017f4d61736875204b797269656c696768740000000000000000000000000000000081525081526020016040518060400160405280600881526020017f536869656c6465720000000000000000000000000000000000000000000000008152508152602001600160ff168152602001600360ff168152602001600160ff168152602001605a60ff16815260200160405180604001604052806040518060400160405280600981526020017f556e646566696e6564000000000000000000000000000000000000000000000081525081526020016040518060400160405280600981526020017f556e646566696e65640000000000000000000000000000000000000000000000815250815250815260200160405180604001604052806040518060400160405280600981526020017f556e646566696e6564000000000000000000000000000000000000000000000081525081526020016040518060400160405280600981526020017f556e646566696e656400000000000000000000000000000000000000000000008152508152508152602001600a61ffff168152602001600a61ffff1681526020016103e861ffff168152602001601961ffff16815260200160c861ffff168152602001606460ff168152602001606460ff168152602001606460ff168152509050600160003373ffffffffffffffffffffffffffffffffffffffff1673ffffffffffffffffffffffffffffffffffffffff16815260200190815260200160002081908060018154018082558091505060019003906000526020600020906009020160009091909190915060008201518160000160006101000a81548160ff021916908360ff16021790555060208201518160000160016101000a81548160ff021916908360ff1602179055506040820151816001019080519060200190610acd929190610fab565b506060820151816002019080519060200190610aea929190610fab565b5060808201518160030160006101000a81548160ff021916908360ff16021790555060a08201518160030160016101000a81548160ff021916908360ff16021790555060c08201518160030160026101000a81548160ff021916908360ff16021790555060e08201518160030160036101000a81548160ff021916908360ff160217905550610100820151816004016000820151816000019080519060200190610b95929190610fab565b506020820151816001019080519060200190610bb2929190610fab565b505050610120820151816006016000820151816000019080519060200190610bdb929190610fab565b506020820151816001019080519060200190610bf8929190610fab565b5050506101408201518160080160006101000a81548161ffff021916908361ffff1602179055506101608201518160080160026101000a81548161ffff021916908361ffff1602179055506101808201518160080160046101000a81548161ffff021916908361ffff1602179055506101a08201518160080160066101000a81548161ffff021916908361ffff1602179055506101c08201518160080160086101000a81548161ffff021916908361ffff1602179055506101e082015181600801600a6101000a81548160ff021916908360ff16021790555061020082015181600801600b6101000a81548160ff021916908360ff16021790555061022082015181600801600c6101000a81548160ff021916908360ff160217905550505060018060003373ffffffffffffffffffffffffffffffffffffffff1673ffffffffffffffffffffffffffffffffffffffff168152602001908152602001600020600081548110610d6357fe5b906000526020600020906009020160030160009054906101000a900460ff1601600160003373ffffffffffffffffffffffffffffffffffffffff1673ffffffffffffffffffffffffffffffffffffffff168152602001908152602001600020600081548110610dce57fe5b906000526020600020906009020160030160006101000a81548160ff021916908360ff16021790555050565b610e02610fa3565b73ffffffffffffffffffffffffffffffffffffffff16610e206107ab565b73ffffffffffffffffffffffffffffffffffffffff1614610e76576040517f08c379a0000000000000000000000000000000000000000000000000000000008152600401610e6d906114b3565b60405180910390fd5b600073ffffffffffffffffffffffffffffffffffffffff168173ffffffffffffffffffffffffffffffffffffffff161415610ee6576040517f08c379a0000000000000000000000000000000000000000000000000000000008152600401610edd90611493565b60405180910390fd5b8073ffffffffffffffffffffffffffffffffffffffff1660008054906101000a900473ffffffffffffffffffffffffffffffffffffffff1673ffffffffffffffffffffffffffffffffffffffff167f8be0079c531659141344cd1fd0a4f28419497f9722a3daafe3b4186f6b6457e060405160405180910390a3806000806101000a81548173ffffffffffffffffffffffffffffffffffffffff021916908373ffffffffffffffffffffffffffffffffffffffff16021790555050565b600033905090565b828054600181600116156101000203166002900490600052602060002090601f016020900481019282601f10610fec57805160ff191683800117855561101a565b8280016001018555821561101a579182015b82811115611019578251825591602001919060010190610ffe565b5b50905061102791906110f1565b5090565b604051806102400160405280600060ff168152602001600060ff1681526020016060815260200160608152602001600060ff168152602001600060ff168152602001600060ff168152602001600060ff16815260200161108961110e565b815260200161109661110e565b8152602001600061ffff168152602001600061ffff168152602001600061ffff168152602001600061ffff168152602001600061ffff168152602001600060ff168152602001600060ff168152602001600060ff1681525090565b5b8082111561110a5760008160009055506001016110f2565b5090565b604051806040016040528060608152602001606081525090565b600081359050611137816115b9565b92915050565b600082601f83011261114e57600080fd5b813561116161115c82611500565b6114d3565b9150808252602083016020830185838301111561117d57600080fd5b6111888382846115aa565b50505092915050565b6000813590506111a0816115d0565b92915050565b6000813590506111b5816115e7565b92915050565b6000602082840312156111cd57600080fd5b60006111db84828501611128565b91505092915050565b6000806000806000806000806000806101408b8d03121561120457600080fd5b60006112128d828e016111a6565b9a505060208b013567ffffffffffffffff81111561122f57600080fd5b61123b8d828e0161113d565b99505060408b013567ffffffffffffffff81111561125857600080fd5b6112648d828e0161113d565b98505060606112758d828e016111a6565b97505060806112868d828e01611191565b96505060a06112978d828e01611191565b95505060c06112a88d828e01611191565b94505060e06112b98d828e016111a6565b9350506101006112cb8d828e016111a6565b9250506101206112dd8d828e016111a6565b9150509295989b9194979a5092959850565b6112f88161155d565b82525050565b60008154600181166000811461131b576001811461134057611384565b607f600283041661132c8187611552565b955060ff1983168652808601935050611384565b6002820461134e8187611552565b95506113598561152c565b60005b8281101561137b5781548189015260018201915060208101905061135c565b82880195505050505b505092915050565b6000611399602683611541565b91507f4f776e61626c653a206e6577206f776e657220697320746865207a65726f206160008301527f64647265737300000000000000000000000000000000000000000000000000006020830152604082019050919050565b60006113ff602083611541565b91507f4f776e61626c653a2063616c6c6572206973206e6f7420746865206f776e65726000830152602082019050919050565b600061143f600083611552565b9150600082019050919050565b600061145882846112fe565b915081905092915050565b600061146e82611432565b9150819050919050565b600060208201905061148d60008301846112ef565b92915050565b600060208201905081810360008301526114ac8161138c565b9050919050565b600060208201905081810360008301526114cc816113f2565b9050919050565b6000604051905081810181811067ffffffffffffffff821117156114f657600080fd5b8060405250919050565b600067ffffffffffffffff82111561151757600080fd5b601f19601f8301169050602081019050919050565b60008190508160005260206000209050919050565b600082825260208201905092915050565b600081905092915050565b60006115688261157d565b9050919050565b600061ffff82169050919050565b600073ffffffffffffffffffffffffffffffffffffffff82169050919050565b600060ff82169050919050565b82818337600083830152505050565b6115c28161155d565b81146115cd57600080fd5b50565b6115d98161156f565b81146115e457600080fd5b50565b6115f08161159d565b81146115fb57600080fd5b5056fea26469706673582212208a9d6b0ed43c039a59d07dc0ae584f992cf68c4f8749410828a982879437942564736f6c634300060c0033",
  "immutableReferences": {},
  "source": "// SPDX-License-Identifier: GPL-3.0\npragma solidity 0.6.12;\npragma experimental ABIEncoderV2;\n\nimport './Master.sol';\n\ncontract Pooling is Master{\n  \tmapping(uint => Servant) cards;\n  \tmapping(uint => uint) rates;\n\n  \tuint maxId = 1;\n\n  \tuint rollPrice = 0.001 ether;\n\n  \tfunction rollOne() public payable{\n  \t\trequire(msg.value == rollPrice);\n  \t\tServant memory card = Servant(1, 1, \"Mashu Kyrielight\", \"Shielder\", 1, 3, 1, 90, Skill(\"Undefined\", \"Undefined\"), Skill(\"Undefined\", \"Undefined\"), 10, 10, 1000, 25, 200, 100, 100, 100);\n  \t\tdrawed[msg.sender].push(card);\n  \t\tdrawed[msg.sender][0].level = drawed[msg.sender][0].level + 1;\n  \t}\n\n  \tfunction rollTen() public payable{\n  \t\trequire(msg.value == rollPrice * 10);\n  \t\tServant[] memory ret;\n  \t}\n\n  \tfunction addServant(uint8 id, string memory name, string memory class, uint8 rank, uint16 atk, uint16 def, uint16 hp, uint8 atkPerLevel, uint8 defPerLevel, uint8 hpPerLevel) public onlyOwner {\n  \t\trequire(keccak256(abi.encodePacked(cards[id].name)) == keccak256(abi.encodePacked(\"\")));\n  \t\tcards[id] = Servant(id, 1, name, class, 1, rank, 1, 80, Skill(\"Undefined\", \"Undefined\"), Skill(\"Undefined\", \"Undefined\"), atk, def, hp, 25, 200, atkPerLevel, defPerLevel, hpPerLevel);\n  \t}\n\n  \tfunction removeCard(uint index, address master) internal {\n  \t\trequire(index < drawed[master].length);\n  \t\tuint length = drawed[master].length;\n  \t\tdrawed[master][index] = drawed[master][length - 1];\n  \t\tdelete drawed[master][length - 1];\n  \t}\n}\n",
  "sourcePath": "/Users/NgHViet/Desktop/Blockchain/gacha/blockchain/contracts/Pooling.sol",
  "compiler": {
    "name": "solc",
    "version": "0.6.12+commit.27d51765.Emscripten.clang"
  },
  "schemaVersion": "3.3.4",
  "updatedAt": "2021-04-17T12:31:40.034Z",
  "devdoc": {
    "kind": "dev",
    "methods": {
      "owner()": {
        "details": "Returns the address of the current owner."
      },
      "renounceOwnership()": {
        "details": "Leaves the contract without owner. It will not be possible to call `onlyOwner` functions anymore. Can only be called by the current owner. NOTE: Renouncing ownership will leave the contract without an owner, thereby removing any functionality that is only available to the owner."
      },
      "transferOwnership(address)": {
        "details": "Transfers ownership of the contract to a new account (`newOwner`). Can only be called by the current owner."
      }
    },
    "version": 1
  },
  "userdoc": {
    "kind": "user",
    "methods": {},
    "version": 1
  }
}