{
  "contractName": "Main",
  "abi": [
    {
      "anonymous": false,
      "inputs": [
        {
          "indexed": false,
          "internalType": "address",
          "name": "masterAddress",
          "type": "address"
        },
        {
          "indexed": false,
          "internalType": "string",
          "name": "name",
          "type": "string"
        }
      ],
      "name": "NewMaster",
      "type": "event"
    },
    {
      "anonymous": false,
      "inputs": [
        {
          "indexed": false,
          "internalType": "address",
          "name": "masterAddress",
          "type": "address"
        }
      ],
      "name": "Overflow",
      "type": "event"
    },
    {
      "anonymous": false,
      "inputs": [
        {
          "indexed": true,
          "internalType": "address",
          "name": "previousOwner",
          "type": "address"
        },
        {
          "indexed": true,
          "internalType": "address",
          "name": "newOwner",
          "type": "address"
        }
      ],
      "name": "OwnershipTransferred",
      "type": "event"
    },
    {
      "inputs": [],
      "name": "owner",
      "outputs": [
        {
          "internalType": "address",
          "name": "",
          "type": "address"
        }
      ],
      "stateMutability": "view",
      "type": "function",
      "constant": true
    },
    {
      "inputs": [],
      "name": "renounceOwnership",
      "outputs": [],
      "stateMutability": "nonpayable",
      "type": "function"
    },
    {
      "inputs": [
        {
          "internalType": "address",
          "name": "newOwner",
          "type": "address"
        }
      ],
      "name": "transferOwnership",
      "outputs": [],
      "stateMutability": "nonpayable",
      "type": "function"
    },
    {
      "inputs": [
        {
          "internalType": "string",
          "name": "name",
          "type": "string"
        }
      ],
      "name": "createMaster",
      "outputs": [],
      "stateMutability": "nonpayable",
      "type": "function"
    },
    {
      "inputs": [],
      "name": "getMaster",
      "outputs": [
        {
          "internalType": "string",
          "name": "",
          "type": "string"
        },
        {
          "components": [
            {
              "internalType": "uint8",
              "name": "id",
              "type": "uint8"
            },
            {
              "internalType": "uint8",
              "name": "saint",
              "type": "uint8"
            },
            {
              "internalType": "string",
              "name": "name",
              "type": "string"
            },
            {
              "internalType": "string",
              "name": "class",
              "type": "string"
            },
            {
              "internalType": "uint8",
              "name": "level",
              "type": "uint8"
            },
            {
              "internalType": "uint8",
              "name": "rank",
              "type": "uint8"
            },
            {
              "internalType": "uint8",
              "name": "npLv",
              "type": "uint8"
            },
            {
              "internalType": "uint8",
              "name": "levelCap",
              "type": "uint8"
            },
            {
              "components": [
                {
                  "internalType": "string",
                  "name": "name",
                  "type": "string"
                },
                {
                  "internalType": "string",
                  "name": "effect",
                  "type": "string"
                }
              ],
              "internalType": "struct Main.Skill",
              "name": "active",
              "type": "tuple"
            },
            {
              "components": [
                {
                  "internalType": "string",
                  "name": "name",
                  "type": "string"
                },
                {
                  "internalType": "string",
                  "name": "effect",
                  "type": "string"
                }
              ],
              "internalType": "struct Main.Skill",
              "name": "passive",
              "type": "tuple"
            },
            {
              "internalType": "uint16",
              "name": "atk",
              "type": "uint16"
            },
            {
              "internalType": "uint16",
              "name": "def",
              "type": "uint16"
            },
            {
              "internalType": "uint16",
              "name": "hp",
              "type": "uint16"
            },
            {
              "internalType": "uint16",
              "name": "critRate",
              "type": "uint16"
            },
            {
              "internalType": "uint16",
              "name": "critMultiplier",
              "type": "uint16"
            },
            {
              "internalType": "uint8",
              "name": "atkPerLevel",
              "type": "uint8"
            },
            {
              "internalType": "uint8",
              "name": "defPerLevel",
              "type": "uint8"
            },
            {
              "internalType": "uint8",
              "name": "hpPerLevel",
              "type": "uint8"
            }
          ],
          "internalType": "struct Main.Card[]",
          "name": "",
          "type": "tuple[]"
        }
      ],
      "stateMutability": "view",
      "type": "function",
      "constant": true
    },
    {
      "inputs": [],
      "name": "getCards",
      "outputs": [
        {
          "components": [
            {
              "internalType": "uint8",
              "name": "id",
              "type": "uint8"
            },
            {
              "internalType": "uint8",
              "name": "saint",
              "type": "uint8"
            },
            {
              "internalType": "string",
              "name": "name",
              "type": "string"
            },
            {
              "internalType": "string",
              "name": "class",
              "type": "string"
            },
            {
              "internalType": "uint8",
              "name": "level",
              "type": "uint8"
            },
            {
              "internalType": "uint8",
              "name": "rank",
              "type": "uint8"
            },
            {
              "internalType": "uint8",
              "name": "npLv",
              "type": "uint8"
            },
            {
              "internalType": "uint8",
              "name": "levelCap",
              "type": "uint8"
            },
            {
              "components": [
                {
                  "internalType": "string",
                  "name": "name",
                  "type": "string"
                },
                {
                  "internalType": "string",
                  "name": "effect",
                  "type": "string"
                }
              ],
              "internalType": "struct Main.Skill",
              "name": "active",
              "type": "tuple"
            },
            {
              "components": [
                {
                  "internalType": "string",
                  "name": "name",
                  "type": "string"
                },
                {
                  "internalType": "string",
                  "name": "effect",
                  "type": "string"
                }
              ],
              "internalType": "struct Main.Skill",
              "name": "passive",
              "type": "tuple"
            },
            {
              "internalType": "uint16",
              "name": "atk",
              "type": "uint16"
            },
            {
              "internalType": "uint16",
              "name": "def",
              "type": "uint16"
            },
            {
              "internalType": "uint16",
              "name": "hp",
              "type": "uint16"
            },
            {
              "internalType": "uint16",
              "name": "critRate",
              "type": "uint16"
            },
            {
              "internalType": "uint16",
              "name": "critMultiplier",
              "type": "uint16"
            },
            {
              "internalType": "uint8",
              "name": "atkPerLevel",
              "type": "uint8"
            },
            {
              "internalType": "uint8",
              "name": "defPerLevel",
              "type": "uint8"
            },
            {
              "internalType": "uint8",
              "name": "hpPerLevel",
              "type": "uint8"
            }
          ],
          "internalType": "struct Main.Card[]",
          "name": "",
          "type": "tuple[]"
        }
      ],
      "stateMutability": "view",
      "type": "function",
      "constant": true
    },
    {
      "inputs": [],
      "name": "rollOne",
      "outputs": [
        {
          "components": [
            {
              "internalType": "uint8",
              "name": "id",
              "type": "uint8"
            },
            {
              "internalType": "uint8",
              "name": "saint",
              "type": "uint8"
            },
            {
              "internalType": "string",
              "name": "name",
              "type": "string"
            },
            {
              "internalType": "string",
              "name": "class",
              "type": "string"
            },
            {
              "internalType": "uint8",
              "name": "level",
              "type": "uint8"
            },
            {
              "internalType": "uint8",
              "name": "rank",
              "type": "uint8"
            },
            {
              "internalType": "uint8",
              "name": "npLv",
              "type": "uint8"
            },
            {
              "internalType": "uint8",
              "name": "levelCap",
              "type": "uint8"
            },
            {
              "components": [
                {
                  "internalType": "string",
                  "name": "name",
                  "type": "string"
                },
                {
                  "internalType": "string",
                  "name": "effect",
                  "type": "string"
                }
              ],
              "internalType": "struct Main.Skill",
              "name": "active",
              "type": "tuple"
            },
            {
              "components": [
                {
                  "internalType": "string",
                  "name": "name",
                  "type": "string"
                },
                {
                  "internalType": "string",
                  "name": "effect",
                  "type": "string"
                }
              ],
              "internalType": "struct Main.Skill",
              "name": "passive",
              "type": "tuple"
            },
            {
              "internalType": "uint16",
              "name": "atk",
              "type": "uint16"
            },
            {
              "internalType": "uint16",
              "name": "def",
              "type": "uint16"
            },
            {
              "internalType": "uint16",
              "name": "hp",
              "type": "uint16"
            },
            {
              "internalType": "uint16",
              "name": "critRate",
              "type": "uint16"
            },
            {
              "internalType": "uint16",
              "name": "critMultiplier",
              "type": "uint16"
            },
            {
              "internalType": "uint8",
              "name": "atkPerLevel",
              "type": "uint8"
            },
            {
              "internalType": "uint8",
              "name": "defPerLevel",
              "type": "uint8"
            },
            {
              "internalType": "uint8",
              "name": "hpPerLevel",
              "type": "uint8"
            }
          ],
          "internalType": "struct Main.Card",
          "name": "",
          "type": "tuple"
        }
      ],
      "stateMutability": "payable",
      "type": "function",
      "payable": true
    },
    {
      "inputs": [
        {
          "internalType": "uint8",
          "name": "id",
          "type": "uint8"
        },
        {
          "internalType": "string",
          "name": "name",
          "type": "string"
        },
        {
          "internalType": "string",
          "name": "class",
          "type": "string"
        },
        {
          "internalType": "uint8",
          "name": "rank",
          "type": "uint8"
        },
        {
          "internalType": "uint16",
          "name": "atk",
          "type": "uint16"
        },
        {
          "internalType": "uint16",
          "name": "def",
          "type": "uint16"
        },
        {
          "internalType": "uint16",
          "name": "hp",
          "type": "uint16"
        },
        {
          "internalType": "uint8",
          "name": "atkPerLevel",
          "type": "uint8"
        },
        {
          "internalType": "uint8",
          "name": "defPerLevel",
          "type": "uint8"
        },
        {
          "internalType": "uint8",
          "name": "hpPerLevel",
          "type": "uint8"
        },
        {
          "internalType": "uint8",
          "name": "rate",
          "type": "uint8"
        }
      ],
      "name": "addCardToPool",
      "outputs": [],
      "stateMutability": "nonpayable",
      "type": "function"
    },
    {
      "inputs": [
        {
          "internalType": "uint8",
          "name": "id",
          "type": "uint8"
        },
        {
          "internalType": "uint8",
          "name": "newRate",
          "type": "uint8"
        }
      ],
      "name": "setRates",
      "outputs": [],
      "stateMutability": "nonpayable",
      "type": "function"
    }
  ],
  "bytecode": "0x608060405234801561001057600080fd5b5060006100216100c460201b60201c565b9050806000806101000a81548173ffffffffffffffffffffffffffffffffffffffff021916908373ffffffffffffffffffffffffffffffffffffffff1602179055508073ffffffffffffffffffffffffffffffffffffffff16600073ffffffffffffffffffffffffffffffffffffffff167f8be0079c531659141344cd1fd0a4f28419497f9722a3daafe3b4186f6b6457e060405160405180910390a3506100cc565b600033905090565b61316180620000dc6000396000f3fe6080604052600436106100865760003560e01c80638da5cb5b116100595780638da5cb5b14610120578063b0df9e531461014b578063cd0e282b14610176578063e4609fb21461019f578063f2fde38b146101bd57610086565b80635a99719e1461008b57806367d9d830146100b7578063715018a6146100e057806374d7ae29146100f7575b600080fd5b34801561009757600080fd5b506100a06101e6565b6040516100ae929190612eee565b60405180910390f35b3480156100c357600080fd5b506100de60048036038101906100d99190612815565b61094d565b005b3480156100ec57600080fd5b506100f5610f13565b005b34801561010357600080fd5b5061011e600480360381019061011991906127d4565b61104d565b005b34801561012c57600080fd5b50610135611685565b6040516101429190612eb1565b60405180910390f35b34801561015757600080fd5b506101606116ae565b60405161016d9190612ecc565b60405180910390f35b34801561018257600080fd5b5061019d60048036038101906101989190612935565b611d30565b005b6101a7611e1f565b6040516101b49190612f65565b60405180910390f35b3480156101c957600080fd5b506101e460048036038101906101df91906127ab565b6123ea565b005b6060806001600260003373ffffffffffffffffffffffffffffffffffffffff1673ffffffffffffffffffffffffffffffffffffffff168152602001908152602001600020541461023557600080fd5b600160003373ffffffffffffffffffffffffffffffffffffffff1673ffffffffffffffffffffffffffffffffffffffff168152602001908152602001600020600001600360003373ffffffffffffffffffffffffffffffffffffffff1673ffffffffffffffffffffffffffffffffffffffff168152602001908152602001600020818054600181600116156101000203166002900480601f01602080910402602001604051908101604052809291908181526020018280546001816001161561010002031660029004801561034b5780601f106103205761010080835404028352916020019161034b565b820191906000526020600020905b81548152906001019060200180831161032e57829003601f168201915b5050505050915080805480602002602001604051908101604052809291908181526020016000905b8282101561093f5783829060005260206000209060090201604051806102400160405290816000820160009054906101000a900460ff1660ff1660ff1681526020016000820160019054906101000a900460ff1660ff1660ff168152602001600182018054600181600116156101000203166002900480601f01602080910402602001604051908101604052809291908181526020018280546001816001161561010002031660029004801561046a5780601f1061043f5761010080835404028352916020019161046a565b820191906000526020600020905b81548152906001019060200180831161044d57829003601f168201915b50505050508152602001600282018054600181600116156101000203166002900480601f01602080910402602001604051908101604052809291908181526020018280546001816001161561010002031660029004801561050c5780601f106104e15761010080835404028352916020019161050c565b820191906000526020600020905b8154815290600101906020018083116104ef57829003601f168201915b505050505081526020016003820160009054906101000a900460ff1660ff1660ff1681526020016003820160019054906101000a900460ff1660ff1660ff1681526020016003820160029054906101000a900460ff1660ff1660ff1681526020016003820160039054906101000a900460ff1660ff1660ff16815260200160048201604051806040016040529081600082018054600181600116156101000203166002900480601f0160208091040260200160405190810160405280929190818152602001828054600181600116156101000203166002900480156106325780601f1061060757610100808354040283529160200191610632565b820191906000526020600020905b81548152906001019060200180831161061557829003601f168201915b50505050508152602001600182018054600181600116156101000203166002900480601f0160208091040260200160405190810160405280929190818152602001828054600181600116156101000203166002900480156106d45780601f106106a9576101008083540402835291602001916106d4565b820191906000526020600020905b8154815290600101906020018083116106b757829003601f168201915b505050505081525050815260200160068201604051806040016040529081600082018054600181600116156101000203166002900480601f01602080910402602001604051908101604052809291908181526020018280546001816001161561010002031660029004801561078a5780601f1061075f5761010080835404028352916020019161078a565b820191906000526020600020905b81548152906001019060200180831161076d57829003601f168201915b50505050508152602001600182018054600181600116156101000203166002900480601f01602080910402602001604051908101604052809291908181526020018280546001816001161561010002031660029004801561082c5780601f106108015761010080835404028352916020019161082c565b820191906000526020600020905b81548152906001019060200180831161080f57829003601f168201915b50505050508152505081526020016008820160009054906101000a900461ffff1661ffff1661ffff1681526020016008820160029054906101000a900461ffff1661ffff1661ffff1681526020016008820160049054906101000a900461ffff1661ffff1661ffff1681526020016008820160069054906101000a900461ffff1661ffff1661ffff1681526020016008820160089054906101000a900461ffff1661ffff1661ffff16815260200160088201600a9054906101000a900460ff1660ff1660ff16815260200160088201600b9054906101000a900460ff1660ff1660ff16815260200160088201600c9054906101000a900460ff1660ff1660ff168152505081526020019060010190610373565b505050509050915091509091565b610955612593565b73ffffffffffffffffffffffffffffffffffffffff16610973611685565b73ffffffffffffffffffffffffffffffffffffffff16146109c9576040517f08c379a00000000000000000000000000000000000000000000000000000000081526004016109c090612f45565b60405180910390fd5b6000600460010160008d60ff1660ff16815260200190815260200160002060009054906101000a900460ff1660ff1614610a0257600080fd5b600060018960ff161415610a1557603790505b60028960ff161415610a2657603c90505b60038960ff161415610a3757604690505b60048960ff161415610a4857605090505b60058960ff161415610a5957605a90505b610a6161259b565b6040518061024001604052808e60ff168152602001600160ff1681526020018d81526020018c8152602001600160ff1681526020018b60ff168152602001600160ff1681526020018360ff16815260200160405180604001604052806040518060400160405280600981526020017f556e646566696e6564000000000000000000000000000000000000000000000081525081526020016040518060400160405280600981526020017f556e646566696e65640000000000000000000000000000000000000000000000815250815250815260200160405180604001604052806040518060400160405280600981526020017f556e646566696e6564000000000000000000000000000000000000000000000081525081526020016040518060400160405280600981526020017f556e646566696e6564000000000000000000000000000000000000000000000081525081525081526020018a61ffff1681526020018961ffff1681526020018861ffff168152602001601961ffff16815260200160c861ffff1681526020018760ff1681526020018660ff1681526020018560ff16815250905080600460000160008f60ff1660ff16815260200190815260200160002060008201518160000160006101000a81548160ff021916908360ff16021790555060208201518160000160016101000a81548160ff021916908360ff1602179055506040820151816001019080519060200190610c84929190612661565b506060820151816002019080519060200190610ca1929190612661565b5060808201518160030160006101000a81548160ff021916908360ff16021790555060a08201518160030160016101000a81548160ff021916908360ff16021790555060c08201518160030160026101000a81548160ff021916908360ff16021790555060e08201518160030160036101000a81548160ff021916908360ff160217905550610100820151816004016000820151816000019080519060200190610d4c929190612661565b506020820151816001019080519060200190610d69929190612661565b505050610120820151816006016000820151816000019080519060200190610d92929190612661565b506020820151816001019080519060200190610daf929190612661565b5050506101408201518160080160006101000a81548161ffff021916908361ffff1602179055506101608201518160080160026101000a81548161ffff021916908361ffff1602179055506101808201518160080160046101000a81548161ffff021916908361ffff1602179055506101a08201518160080160066101000a81548161ffff021916908361ffff1602179055506101c08201518160080160086101000a81548161ffff021916908361ffff1602179055506101e082015181600801600a6101000a81548160ff021916908360ff16021790555061020082015181600801600b6101000a81548160ff021916908360ff16021790555061022082015181600801600c6101000a81548160ff021916908360ff16021790555090505082600460010160008f60ff1660ff16815260200190815260200160002060006101000a81548160ff021916908360ff16021790555050505050505050505050505050565b610f1b612593565b73ffffffffffffffffffffffffffffffffffffffff16610f39611685565b73ffffffffffffffffffffffffffffffffffffffff1614610f8f576040517f08c379a0000000000000000000000000000000000000000000000000000000008152600401610f8690612f45565b60405180910390fd5b600073ffffffffffffffffffffffffffffffffffffffff1660008054906101000a900473ffffffffffffffffffffffffffffffffffffffff1673ffffffffffffffffffffffffffffffffffffffff167f8be0079c531659141344cd1fd0a4f28419497f9722a3daafe3b4186f6b6457e060405160405180910390a360008060006101000a81548173ffffffffffffffffffffffffffffffffffffffff021916908373ffffffffffffffffffffffffffffffffffffffff160217905550565b6000600260003373ffffffffffffffffffffffffffffffffffffffff1673ffffffffffffffffffffffffffffffffffffffff168152602001908152602001600020541461109957600080fd5b6001600260003373ffffffffffffffffffffffffffffffffffffffff1673ffffffffffffffffffffffffffffffffffffffff16815260200190815260200160002081905550604051806020016040528082815250600160003373ffffffffffffffffffffffffffffffffffffffff1673ffffffffffffffffffffffffffffffffffffffff1681526020019081526020016000206000820151816000019080519060200190611148929190612661565b5090505061115461259b565b604051806102400160405280600160ff168152602001600160ff1681526020016040518060400160405280601081526020017f4d61736875204b797269656c696768740000000000000000000000000000000081525081526020016040518060400160405280600881526020017f536869656c6465720000000000000000000000000000000000000000000000008152508152602001600160ff168152602001600360ff168152602001600160ff168152602001603c60ff16815260200160405180604001604052806040518060400160405280600981526020017f556e646566696e6564000000000000000000000000000000000000000000000081525081526020016040518060400160405280600981526020017f556e646566696e65640000000000000000000000000000000000000000000000815250815250815260200160405180604001604052806040518060400160405280600981526020017f556e646566696e6564000000000000000000000000000000000000000000000081525081526020016040518060400160405280600981526020017f556e646566696e656400000000000000000000000000000000000000000000008152508152508152602001600a61ffff168152602001600a61ffff1681526020016103e861ffff168152602001601961ffff16815260200160c861ffff168152602001606460ff168152602001606460ff168152602001606460ff168152509050600360003373ffffffffffffffffffffffffffffffffffffffff1673ffffffffffffffffffffffffffffffffffffffff16815260200190815260200160002081908060018154018082558091505060019003906000526020600020906009020160009091909190915060008201518160000160006101000a81548160ff021916908360ff16021790555060208201518160000160016101000a81548160ff021916908360ff1602179055506040820151816001019080519060200190611437929190612661565b506060820151816002019080519060200190611454929190612661565b5060808201518160030160006101000a81548160ff021916908360ff16021790555060a08201518160030160016101000a81548160ff021916908360ff16021790555060c08201518160030160026101000a81548160ff021916908360ff16021790555060e08201518160030160036101000a81548160ff021916908360ff1602179055506101008201518160040160008201518160000190805190602001906114ff929190612661565b50602082015181600101908051906020019061151c929190612661565b505050610120820151816006016000820151816000019080519060200190611545929190612661565b506020820151816001019080519060200190611562929190612661565b5050506101408201518160080160006101000a81548161ffff021916908361ffff1602179055506101608201518160080160026101000a81548161ffff021916908361ffff1602179055506101808201518160080160046101000a81548161ffff021916908361ffff1602179055506101a08201518160080160066101000a81548161ffff021916908361ffff1602179055506101c08201518160080160086101000a81548161ffff021916908361ffff1602179055506101e082015181600801600a6101000a81548160ff021916908360ff16021790555061020082015181600801600b6101000a81548160ff021916908360ff16021790555061022082015181600801600c6101000a81548160ff021916908360ff16021790555050505050565b60008060009054906101000a900473ffffffffffffffffffffffffffffffffffffffff16905090565b60606001600260003373ffffffffffffffffffffffffffffffffffffffff1673ffffffffffffffffffffffffffffffffffffffff16815260200190815260200160002054146116fc57600080fd5b600360003373ffffffffffffffffffffffffffffffffffffffff1673ffffffffffffffffffffffffffffffffffffffff168152602001908152602001600020805480602002602001604051908101604052809291908181526020016000905b82821015611d275783829060005260206000209060090201604051806102400160405290816000820160009054906101000a900460ff1660ff1660ff1681526020016000820160019054906101000a900460ff1660ff1660ff168152602001600182018054600181600116156101000203166002900480601f0160208091040260200160405190810160405280929190818152602001828054600181600116156101000203166002900480156118525780601f1061182757610100808354040283529160200191611852565b820191906000526020600020905b81548152906001019060200180831161183557829003601f168201915b50505050508152602001600282018054600181600116156101000203166002900480601f0160208091040260200160405190810160405280929190818152602001828054600181600116156101000203166002900480156118f45780601f106118c9576101008083540402835291602001916118f4565b820191906000526020600020905b8154815290600101906020018083116118d757829003601f168201915b505050505081526020016003820160009054906101000a900460ff1660ff1660ff1681526020016003820160019054906101000a900460ff1660ff1660ff1681526020016003820160029054906101000a900460ff1660ff1660ff1681526020016003820160039054906101000a900460ff1660ff1660ff16815260200160048201604051806040016040529081600082018054600181600116156101000203166002900480601f016020809104026020016040519081016040528092919081815260200182805460018160011615610100020316600290048015611a1a5780601f106119ef57610100808354040283529160200191611a1a565b820191906000526020600020905b8154815290600101906020018083116119fd57829003601f168201915b50505050508152602001600182018054600181600116156101000203166002900480601f016020809104026020016040519081016040528092919081815260200182805460018160011615610100020316600290048015611abc5780601f10611a9157610100808354040283529160200191611abc565b820191906000526020600020905b815481529060010190602001808311611a9f57829003601f168201915b505050505081525050815260200160068201604051806040016040529081600082018054600181600116156101000203166002900480601f016020809104026020016040519081016040528092919081815260200182805460018160011615610100020316600290048015611b725780601f10611b4757610100808354040283529160200191611b72565b820191906000526020600020905b815481529060010190602001808311611b5557829003601f168201915b50505050508152602001600182018054600181600116156101000203166002900480601f016020809104026020016040519081016040528092919081815260200182805460018160011615610100020316600290048015611c145780601f10611be957610100808354040283529160200191611c14565b820191906000526020600020905b815481529060010190602001808311611bf757829003601f168201915b50505050508152505081526020016008820160009054906101000a900461ffff1661ffff1661ffff1681526020016008820160029054906101000a900461ffff1661ffff1661ffff1681526020016008820160049054906101000a900461ffff1661ffff1661ffff1681526020016008820160069054906101000a900461ffff1661ffff1661ffff1681526020016008820160089054906101000a900461ffff1661ffff1661ffff16815260200160088201600a9054906101000a900460ff1660ff1660ff16815260200160088201600b9054906101000a900460ff1660ff1660ff16815260200160088201600c9054906101000a900460ff1660ff1660ff16815250508152602001906001019061175b565b50505050905090565b611d38612593565b73ffffffffffffffffffffffffffffffffffffffff16611d56611685565b73ffffffffffffffffffffffffffffffffffffffff1614611dac576040517f08c379a0000000000000000000000000000000000000000000000000000000008152600401611da390612f45565b60405180910390fd5b6000600460010160008460ff1660ff16815260200190815260200160002060009054906101000a900460ff1660ff161415611de657600080fd5b80600460010160008460ff1660ff16815260200190815260200160002060006101000a81548160ff021916908360ff1602179055505050565b611e2761259b565b600460000160008060ff168152602001908152602001600020604051806102400160405290816000820160009054906101000a900460ff1660ff1660ff1681526020016000820160019054906101000a900460ff1660ff1660ff168152602001600182018054600181600116156101000203166002900480601f016020809104026020016040519081016040528092919081815260200182805460018160011615610100020316600290048015611f1f5780601f10611ef457610100808354040283529160200191611f1f565b820191906000526020600020905b815481529060010190602001808311611f0257829003601f168201915b50505050508152602001600282018054600181600116156101000203166002900480601f016020809104026020016040519081016040528092919081815260200182805460018160011615610100020316600290048015611fc15780601f10611f9657610100808354040283529160200191611fc1565b820191906000526020600020905b815481529060010190602001808311611fa457829003601f168201915b505050505081526020016003820160009054906101000a900460ff1660ff1660ff1681526020016003820160019054906101000a900460ff1660ff1660ff1681526020016003820160029054906101000a900460ff1660ff1660ff1681526020016003820160039054906101000a900460ff1660ff1660ff16815260200160048201604051806040016040529081600082018054600181600116156101000203166002900480601f0160208091040260200160405190810160405280929190818152602001828054600181600116156101000203166002900480156120e75780601f106120bc576101008083540402835291602001916120e7565b820191906000526020600020905b8154815290600101906020018083116120ca57829003601f168201915b50505050508152602001600182018054600181600116156101000203166002900480601f0160208091040260200160405190810160405280929190818152602001828054600181600116156101000203166002900480156121895780601f1061215e57610100808354040283529160200191612189565b820191906000526020600020905b81548152906001019060200180831161216c57829003601f168201915b505050505081525050815260200160068201604051806040016040529081600082018054600181600116156101000203166002900480601f01602080910402602001604051908101604052809291908181526020018280546001816001161561010002031660029004801561223f5780601f106122145761010080835404028352916020019161223f565b820191906000526020600020905b81548152906001019060200180831161222257829003601f168201915b50505050508152602001600182018054600181600116156101000203166002900480601f0160208091040260200160405190810160405280929190818152602001828054600181600116156101000203166002900480156122e15780601f106122b6576101008083540402835291602001916122e1565b820191906000526020600020905b8154815290600101906020018083116122c457829003601f168201915b50505050508152505081526020016008820160009054906101000a900461ffff1661ffff1661ffff1681526020016008820160029054906101000a900461ffff1661ffff1661ffff1681526020016008820160049054906101000a900461ffff1661ffff1661ffff1681526020016008820160069054906101000a900461ffff1661ffff1661ffff1681526020016008820160089054906101000a900461ffff1661ffff1661ffff16815260200160088201600a9054906101000a900460ff1660ff1660ff16815260200160088201600b9054906101000a900460ff1660ff1660ff16815260200160088201600c9054906101000a900460ff1660ff1660ff1681525050905090565b6123f2612593565b73ffffffffffffffffffffffffffffffffffffffff16612410611685565b73ffffffffffffffffffffffffffffffffffffffff1614612466576040517f08c379a000000000000000000000000000000000000000000000000000000000815260040161245d90612f45565b60405180910390fd5b600073ffffffffffffffffffffffffffffffffffffffff168173ffffffffffffffffffffffffffffffffffffffff1614156124d6576040517f08c379a00000000000000000000000000000000000000000000000000000000081526004016124cd90612f25565b60405180910390fd5b8073ffffffffffffffffffffffffffffffffffffffff1660008054906101000a900473ffffffffffffffffffffffffffffffffffffffff1673ffffffffffffffffffffffffffffffffffffffff167f8be0079c531659141344cd1fd0a4f28419497f9722a3daafe3b4186f6b6457e060405160405180910390a3806000806101000a81548173ffffffffffffffffffffffffffffffffffffffff021916908373ffffffffffffffffffffffffffffffffffffffff16021790555050565b600033905090565b604051806102400160405280600060ff168152602001600060ff1681526020016060815260200160608152602001600060ff168152602001600060ff168152602001600060ff168152602001600060ff1681526020016125f96126e1565b81526020016126066126e1565b8152602001600061ffff168152602001600061ffff168152602001600061ffff168152602001600061ffff168152602001600061ffff168152602001600060ff168152602001600060ff168152602001600060ff1681525090565b828054600181600116156101000203166002900490600052602060002090601f016020900481019282601f106126a257805160ff19168380011785556126d0565b828001600101855582156126d0579182015b828111156126cf5782518255916020019190600101906126b4565b5b5090506126dd91906126fb565b5090565b604051806040016040528060608152602001606081525090565b5b808211156127145760008160009055506001016126fc565b5090565b600081359050612727816130e6565b92915050565b600082601f83011261273e57600080fd5b813561275161274c82612fb4565b612f87565b9150808252602083016020830185838301111561276d57600080fd5b612778838284613093565b50505092915050565b600081359050612790816130fd565b92915050565b6000813590506127a581613114565b92915050565b6000602082840312156127bd57600080fd5b60006127cb84828501612718565b91505092915050565b6000602082840312156127e657600080fd5b600082013567ffffffffffffffff81111561280057600080fd5b61280c8482850161272d565b91505092915050565b60008060008060008060008060008060006101608c8e03121561283757600080fd5b60006128458e828f01612796565b9b505060208c013567ffffffffffffffff81111561286257600080fd5b61286e8e828f0161272d565b9a505060408c013567ffffffffffffffff81111561288b57600080fd5b6128978e828f0161272d565b99505060606128a88e828f01612796565b98505060806128b98e828f01612781565b97505060a06128ca8e828f01612781565b96505060c06128db8e828f01612781565b95505060e06128ec8e828f01612796565b9450506101006128fe8e828f01612796565b9350506101206129108e828f01612796565b9250506101406129228e828f01612796565b9150509295989b509295989b9093969950565b6000806040838503121561294857600080fd5b600061295685828601612796565b925050602061296785828601612796565b9150509250929050565b600061297d8383612b21565b905092915050565b61298e81613046565b82525050565b600061299f82612ff0565b6129a98185613013565b9350836020820285016129bb85612fe0565b8060005b858110156129f757848403895281516129d88582612971565b94506129e383613006565b925060208a019950506001810190506129bf565b50829750879550505050505092915050565b6000612a1482612ffb565b612a1e8185613024565b9350612a2e8185602086016130a2565b612a37816130d5565b840191505092915050565b6000612a4d82612ffb565b612a578185613035565b9350612a678185602086016130a2565b612a70816130d5565b840191505092915050565b6000612a88602683613035565b91507f4f776e61626c653a206e6577206f776e657220697320746865207a65726f206160008301527f64647265737300000000000000000000000000000000000000000000000000006020830152604082019050919050565b6000612aee602083613035565b91507f4f776e61626c653a2063616c6c6572206973206e6f7420746865206f776e65726000830152602082019050919050565b600061024083016000830151612b3a6000860182612ea2565b506020830151612b4d6020860182612ea2565b5060408301518482036040860152612b658282612a09565b91505060608301518482036060860152612b7f8282612a09565b9150506080830151612b946080860182612ea2565b5060a0830151612ba760a0860182612ea2565b5060c0830151612bba60c0860182612ea2565b5060e0830151612bcd60e0860182612ea2565b50610100830151848203610100860152612be78282612e4f565b915050610120830151848203610120860152612c038282612e4f565b915050610140830151612c1a610140860182612e93565b50610160830151612c2f610160860182612e93565b50610180830151612c44610180860182612e93565b506101a0830151612c596101a0860182612e93565b506101c0830151612c6e6101c0860182612e93565b506101e0830151612c836101e0860182612ea2565b50610200830151612c98610200860182612ea2565b50610220830151612cad610220860182612ea2565b508091505092915050565b600061024083016000830151612cd16000860182612ea2565b506020830151612ce46020860182612ea2565b5060408301518482036040860152612cfc8282612a09565b91505060608301518482036060860152612d168282612a09565b9150506080830151612d2b6080860182612ea2565b5060a0830151612d3e60a0860182612ea2565b5060c0830151612d5160c0860182612ea2565b5060e0830151612d6460e0860182612ea2565b50610100830151848203610100860152612d7e8282612e4f565b915050610120830151848203610120860152612d9a8282612e4f565b915050610140830151612db1610140860182612e93565b50610160830151612dc6610160860182612e93565b50610180830151612ddb610180860182612e93565b506101a0830151612df06101a0860182612e93565b506101c0830151612e056101c0860182612e93565b506101e0830151612e1a6101e0860182612ea2565b50610200830151612e2f610200860182612ea2565b50610220830151612e44610220860182612ea2565b508091505092915050565b60006040830160008301518482036000860152612e6c8282612a09565b91505060208301518482036020860152612e868282612a09565b9150508091505092915050565b612e9c81613058565b82525050565b612eab81613086565b82525050565b6000602082019050612ec66000830184612985565b92915050565b60006020820190508181036000830152612ee68184612994565b905092915050565b60006040820190508181036000830152612f088185612a42565b90508181036020830152612f1c8184612994565b90509392505050565b60006020820190508181036000830152612f3e81612a7b565b9050919050565b60006020820190508181036000830152612f5e81612ae1565b9050919050565b60006020820190508181036000830152612f7f8184612cb8565b905092915050565b6000604051905081810181811067ffffffffffffffff82111715612faa57600080fd5b8060405250919050565b600067ffffffffffffffff821115612fcb57600080fd5b601f19601f8301169050602081019050919050565b6000819050602082019050919050565b600081519050919050565b600081519050919050565b6000602082019050919050565b600082825260208201905092915050565b600082825260208201905092915050565b600082825260208201905092915050565b600061305182613066565b9050919050565b600061ffff82169050919050565b600073ffffffffffffffffffffffffffffffffffffffff82169050919050565b600060ff82169050919050565b82818337600083830152505050565b60005b838110156130c05780820151818401526020810190506130a5565b838111156130cf576000848401525b50505050565b6000601f19601f8301169050919050565b6130ef81613046565b81146130fa57600080fd5b50565b61310681613058565b811461311157600080fd5b50565b61311d81613086565b811461312857600080fd5b5056fea264697066735822122091f7826a1f2502f241da1322b0253011f22ca26270fb35a5692c51be4bc884ec64736f6c634300060c0033",
  "immutableReferences": {},
  "source": "// SPDX-License-Identifier: GPL-3.0\npragma solidity 0.6.12;\npragma experimental ABIEncoderV2;\n\nimport \"@openzeppelin/contracts/access/Ownable.sol\";\n\ncontract Main is Ownable {\n\n\tstruct Skill {\n\t\tstring name;\n\t\tstring effect;\n\t}\n\n\tstruct Card {\n\t\tuint8 id;\n\t\tuint8 saint;\n\n\t\tstring name;\n\t\tstring class;\n\t\tuint8 level;\n\t\tuint8 rank;\n\t\tuint8 npLv;\n\n\t\tuint8 levelCap;\n\n\t\tSkill active;\n\t\tSkill passive;\n\n\t\tuint16 atk;\n\t\tuint16 def;\n\t\tuint16 hp;\n\t\tuint16 critRate;\n\t\tuint16 critMultiplier;\n\n\t\tuint8 atkPerLevel;\n\t\tuint8 defPerLevel;\n\t\tuint8 hpPerLevel;\n\t}\n\n\tstruct Master {\n\t\tstring name;\n\t}\n\n\tstruct Pool {\n\t\tmapping(uint8 => Card) cards;\n\t\tmapping(uint8 => uint8) rates;\n\t}\n\n\tevent NewMaster(address masterAddress, string name);\n\tevent Overflow(address masterAddress);\n\n\tmapping (address => Master) masters;\n\tmapping (address => uint) created;\n\tmapping (address => Card[]) drawed;\n\tPool total;\n\n  \tfunction createMaster(string memory name) public {\n  \t\trequire(created[msg.sender] == 0);\n  \t\tcreated[msg.sender] = 1;\n  \t\tmasters[msg.sender] = Master(name);\n  \t\tCard memory card = Card(1, 1, \"Mashu Kyrielight\", \"Shielder\", 1, 3, 1, 60, Skill(\"Undefined\", \"Undefined\"), Skill(\"Undefined\", \"Undefined\"), 10, 10, 1000, 25, 200, 100, 100, 100);\n  \t\tdrawed[msg.sender].push(card);\n  \t}\n\n  \tfunction getMaster() public view returns(string memory, Card[] memory) {\n  \t\trequire(created[msg.sender] == 1);\n  \t\treturn (masters[msg.sender].name, drawed[msg.sender]);\n  \t}\n\n  \tfunction getCards() public view returns(Card[] memory) {\n  \t\trequire(created[msg.sender] == 1);\n  \t\treturn drawed[msg.sender];\n  \t}\n\n  \tfunction rollOne() public payable returns(Card memory) {\n  \t\treturn total.cards[0];\n  \t}\n\n  \tfunction addCardToPool(uint8 id, string memory name, string memory class, uint8 rank, \n  \t\t\t\t\t\t   uint16 atk, uint16 def, uint16 hp,\n  \t\t\t\t\t\t   uint8 atkPerLevel, uint8 defPerLevel, uint8 hpPerLevel, uint8 rate) public onlyOwner  {\n  \t\trequire(total.rates[id] == 0);\n  \t\tuint8 levelCap = 0;\n  \t\tif(rank == 1) levelCap = 55;\n  \t\tif(rank == 2) levelCap = 60;\n  \t\tif(rank == 3) levelCap = 70;\n  \t\tif(rank == 4) levelCap = 80;\n  \t\tif(rank == 5) levelCap = 90;\n  \t\tCard memory newCard = Card(id, 1, name, class, 1, rank, 1, levelCap, Skill(\"Undefined\", \"Undefined\"), Skill(\"Undefined\", \"Undefined\"), atk, def, hp, 25, 200, atkPerLevel, defPerLevel, hpPerLevel);\n  \t\ttotal.cards[id] = newCard;\n  \t\ttotal.rates[id] = rate;\n  \t}\n\n  \tfunction setRates(uint8 id, uint8 newRate) public onlyOwner {\n  \t\trequire(total.rates[id] != 0);\n  \t\ttotal.rates[id] = newRate;\n  \t}\n\n}\n",
  "sourcePath": "/Users/NgHViet/Desktop/Blockchain/gacha/blockchain/contracts/Main.sol",
  "compiler": {
    "name": "solc",
    "version": "0.6.12+commit.27d51765.Emscripten.clang"
  },
  "schemaVersion": "3.3.4",
  "updatedAt": "2021-04-17T01:17:47.509Z",
  "networkType": "ethereum",
  "devdoc": {
    "kind": "dev",
    "methods": {
      "owner()": {
        "details": "Returns the address of the current owner."
      },
      "renounceOwnership()": {
        "details": "Leaves the contract without owner. It will not be possible to call `onlyOwner` functions anymore. Can only be called by the current owner. NOTE: Renouncing ownership will leave the contract without an owner, thereby removing any functionality that is only available to the owner."
      },
      "transferOwnership(address)": {
        "details": "Transfers ownership of the contract to a new account (`newOwner`). Can only be called by the current owner."
      }
    },
    "version": 1
  },
  "userdoc": {
    "kind": "user",
    "methods": {},
    "version": 1
  }
}