{
  "contractName": "Master",
  "abi": [
    {
      "anonymous": false,
      "inputs": [
        {
          "indexed": true,
          "internalType": "address",
          "name": "previousOwner",
          "type": "address"
        },
        {
          "indexed": true,
          "internalType": "address",
          "name": "newOwner",
          "type": "address"
        }
      ],
      "name": "OwnershipTransferred",
      "type": "event"
    },
    {
      "inputs": [],
      "name": "owner",
      "outputs": [
        {
          "internalType": "address",
          "name": "",
          "type": "address"
        }
      ],
      "stateMutability": "view",
      "type": "function",
      "constant": true
    },
    {
      "inputs": [],
      "name": "renounceOwnership",
      "outputs": [],
      "stateMutability": "nonpayable",
      "type": "function"
    },
    {
      "inputs": [
        {
          "internalType": "address",
          "name": "newOwner",
          "type": "address"
        }
      ],
      "name": "transferOwnership",
      "outputs": [],
      "stateMutability": "nonpayable",
      "type": "function"
    },
    {
      "inputs": [],
      "name": "getMaster",
      "outputs": [
        {
          "internalType": "string",
          "name": "",
          "type": "string"
        },
        {
          "components": [
            {
              "internalType": "uint8",
              "name": "id",
              "type": "uint8"
            },
            {
              "internalType": "uint8",
              "name": "saint",
              "type": "uint8"
            },
            {
              "internalType": "string",
              "name": "name",
              "type": "string"
            },
            {
              "internalType": "string",
              "name": "class",
              "type": "string"
            },
            {
              "internalType": "uint8",
              "name": "level",
              "type": "uint8"
            },
            {
              "internalType": "uint8",
              "name": "rank",
              "type": "uint8"
            },
            {
              "internalType": "uint8",
              "name": "npLv",
              "type": "uint8"
            },
            {
              "internalType": "uint8",
              "name": "levelCap",
              "type": "uint8"
            },
            {
              "components": [
                {
                  "internalType": "string",
                  "name": "name",
                  "type": "string"
                },
                {
                  "internalType": "string",
                  "name": "description",
                  "type": "string"
                }
              ],
              "internalType": "struct Card.Skill",
              "name": "active",
              "type": "tuple"
            },
            {
              "components": [
                {
                  "internalType": "string",
                  "name": "name",
                  "type": "string"
                },
                {
                  "internalType": "string",
                  "name": "description",
                  "type": "string"
                }
              ],
              "internalType": "struct Card.Skill",
              "name": "passive",
              "type": "tuple"
            },
            {
              "internalType": "uint16",
              "name": "atk",
              "type": "uint16"
            },
            {
              "internalType": "uint16",
              "name": "def",
              "type": "uint16"
            },
            {
              "internalType": "uint16",
              "name": "hp",
              "type": "uint16"
            },
            {
              "internalType": "uint16",
              "name": "critRate",
              "type": "uint16"
            },
            {
              "internalType": "uint16",
              "name": "critMultiplier",
              "type": "uint16"
            },
            {
              "internalType": "uint8",
              "name": "atkPerLevel",
              "type": "uint8"
            },
            {
              "internalType": "uint8",
              "name": "defPerLevel",
              "type": "uint8"
            },
            {
              "internalType": "uint8",
              "name": "hpPerLevel",
              "type": "uint8"
            }
          ],
          "internalType": "struct Card.Servant[]",
          "name": "",
          "type": "tuple[]"
        }
      ],
      "stateMutability": "view",
      "type": "function",
      "constant": true
    },
    {
      "inputs": [
        {
          "internalType": "string",
          "name": "name",
          "type": "string"
        }
      ],
      "name": "createMaster",
      "outputs": [],
      "stateMutability": "nonpayable",
      "type": "function"
    }
  ],
  "bytecode": "0x608060405234801561001057600080fd5b5060006100216100c460201b60201c565b9050806000806101000a81548173ffffffffffffffffffffffffffffffffffffffff021916908373ffffffffffffffffffffffffffffffffffffffff1602179055508073ffffffffffffffffffffffffffffffffffffffff16600073ffffffffffffffffffffffffffffffffffffffff167f8be0079c531659141344cd1fd0a4f28419497f9722a3daafe3b4186f6b6457e060405160405180910390a3506100cc565b600033905090565b611b39806100db6000396000f3fe608060405234801561001057600080fd5b50600436106100575760003560e01c80635a99719e1461005c578063715018a61461007b57806374d7ae29146100855780638da5cb5b146100a1578063f2fde38b146100bf575b600080fd5b6100646100db565b6040516100729291906118f6565b60405180910390f35b610083610888565b005b61009f600480360381019061009a919061141d565b6109c2565b005b6100a9610afb565b6040516100b691906118db565b60405180910390f35b6100d960048036038101906100d491906113f4565b610b24565b005b6060806040516020016100ed906118c6565b60405160208183030381529060405280519060200120600260003373ffffffffffffffffffffffffffffffffffffffff1673ffffffffffffffffffffffffffffffffffffffff16815260200190815260200160002060405160200161015291906118af565b60405160208183030381529060405280519060200120141561017357600080fd5b600260003373ffffffffffffffffffffffffffffffffffffffff1673ffffffffffffffffffffffffffffffffffffffff168152602001908152602001600020600160003373ffffffffffffffffffffffffffffffffffffffff1673ffffffffffffffffffffffffffffffffffffffff168152602001908152602001600020818054600181600116156101000203166002900480601f0160208091040260200160405190810160405280929190818152602001828054600181600116156101000203166002900480156102865780601f1061025b57610100808354040283529160200191610286565b820191906000526020600020905b81548152906001019060200180831161026957829003601f168201915b5050505050915080805480602002602001604051908101604052809291908181526020016000905b8282101561087a5783829060005260206000209060090201604051806102400160405290816000820160009054906101000a900460ff1660ff1660ff1681526020016000820160019054906101000a900460ff1660ff1660ff168152602001600182018054600181600116156101000203166002900480601f0160208091040260200160405190810160405280929190818152602001828054600181600116156101000203166002900480156103a55780601f1061037a576101008083540402835291602001916103a5565b820191906000526020600020905b81548152906001019060200180831161038857829003601f168201915b50505050508152602001600282018054600181600116156101000203166002900480601f0160208091040260200160405190810160405280929190818152602001828054600181600116156101000203166002900480156104475780601f1061041c57610100808354040283529160200191610447565b820191906000526020600020905b81548152906001019060200180831161042a57829003601f168201915b505050505081526020016003820160009054906101000a900460ff1660ff1660ff1681526020016003820160019054906101000a900460ff1660ff1660ff1681526020016003820160029054906101000a900460ff1660ff1660ff1681526020016003820160039054906101000a900460ff1660ff1660ff16815260200160048201604051806040016040529081600082018054600181600116156101000203166002900480601f01602080910402602001604051908101604052809291908181526020018280546001816001161561010002031660029004801561056d5780601f106105425761010080835404028352916020019161056d565b820191906000526020600020905b81548152906001019060200180831161055057829003601f168201915b50505050508152602001600182018054600181600116156101000203166002900480601f01602080910402602001604051908101604052809291908181526020018280546001816001161561010002031660029004801561060f5780601f106105e45761010080835404028352916020019161060f565b820191906000526020600020905b8154815290600101906020018083116105f257829003601f168201915b505050505081525050815260200160068201604051806040016040529081600082018054600181600116156101000203166002900480601f0160208091040260200160405190810160405280929190818152602001828054600181600116156101000203166002900480156106c55780601f1061069a576101008083540402835291602001916106c5565b820191906000526020600020905b8154815290600101906020018083116106a857829003601f168201915b50505050508152602001600182018054600181600116156101000203166002900480601f0160208091040260200160405190810160405280929190818152602001828054600181600116156101000203166002900480156107675780601f1061073c57610100808354040283529160200191610767565b820191906000526020600020905b81548152906001019060200180831161074a57829003601f168201915b50505050508152505081526020016008820160009054906101000a900461ffff1661ffff1661ffff1681526020016008820160029054906101000a900461ffff1661ffff1661ffff1681526020016008820160049054906101000a900461ffff1661ffff1661ffff1681526020016008820160069054906101000a900461ffff1661ffff1661ffff1681526020016008820160089054906101000a900461ffff1661ffff1661ffff16815260200160088201600a9054906101000a900460ff1660ff1660ff16815260200160088201600b9054906101000a900460ff1660ff1660ff16815260200160088201600c9054906101000a900460ff1660ff1660ff1681525050815260200190600101906102ae565b505050509050915091509091565b610890610ccd565b73ffffffffffffffffffffffffffffffffffffffff166108ae610afb565b73ffffffffffffffffffffffffffffffffffffffff1614610904576040517f08c379a00000000000000000000000000000000000000000000000000000000081526004016108fb9061194d565b60405180910390fd5b600073ffffffffffffffffffffffffffffffffffffffff1660008054906101000a900473ffffffffffffffffffffffffffffffffffffffff1673ffffffffffffffffffffffffffffffffffffffff167f8be0079c531659141344cd1fd0a4f28419497f9722a3daafe3b4186f6b6457e060405160405180910390a360008060006101000a81548173ffffffffffffffffffffffffffffffffffffffff021916908373ffffffffffffffffffffffffffffffffffffffff160217905550565b6040516020016109d1906118c6565b60405160208183030381529060405280519060200120600260003373ffffffffffffffffffffffffffffffffffffffff1673ffffffffffffffffffffffffffffffffffffffff168152602001908152602001600020604051602001610a3691906118af565b6040516020818303038152906040528051906020012014610a5657600080fd5b80600260003373ffffffffffffffffffffffffffffffffffffffff1673ffffffffffffffffffffffffffffffffffffffff1681526020019081526020016000209080519060200190610aa992919061120e565b506001600360003373ffffffffffffffffffffffffffffffffffffffff1673ffffffffffffffffffffffffffffffffffffffff16815260200190815260200160002081905550610af833610cd5565b50565b60008060009054906101000a900473ffffffffffffffffffffffffffffffffffffffff16905090565b610b2c610ccd565b73ffffffffffffffffffffffffffffffffffffffff16610b4a610afb565b73ffffffffffffffffffffffffffffffffffffffff1614610ba0576040517f08c379a0000000000000000000000000000000000000000000000000000000008152600401610b979061194d565b60405180910390fd5b600073ffffffffffffffffffffffffffffffffffffffff168173ffffffffffffffffffffffffffffffffffffffff161415610c10576040517f08c379a0000000000000000000000000000000000000000000000000000000008152600401610c079061192d565b60405180910390fd5b8073ffffffffffffffffffffffffffffffffffffffff1660008054906101000a900473ffffffffffffffffffffffffffffffffffffffff1673ffffffffffffffffffffffffffffffffffffffff167f8be0079c531659141344cd1fd0a4f28419497f9722a3daafe3b4186f6b6457e060405160405180910390a3806000806101000a81548173ffffffffffffffffffffffffffffffffffffffff021916908373ffffffffffffffffffffffffffffffffffffffff16021790555050565b600033905090565b610cdd61128e565b604051806102400160405280600160ff168152602001600160ff1681526020016040518060400160405280601081526020017f4d61736875204b797269656c696768740000000000000000000000000000000081525081526020016040518060400160405280600881526020017f536869656c6465720000000000000000000000000000000000000000000000008152508152602001600160ff168152602001600360ff168152602001600160ff168152602001603c60ff16815260200160405180604001604052806040518060400160405280600981526020017f556e646566696e6564000000000000000000000000000000000000000000000081525081526020016040518060400160405280600981526020017f556e646566696e65640000000000000000000000000000000000000000000000815250815250815260200160405180604001604052806040518060400160405280600981526020017f556e646566696e6564000000000000000000000000000000000000000000000081525081526020016040518060400160405280600981526020017f556e646566696e656400000000000000000000000000000000000000000000008152508152508152602001600a61ffff168152602001600a61ffff1681526020016103e861ffff168152602001601961ffff16815260200160c861ffff168152602001606460ff168152602001606460ff168152602001606460ff168152509050600160008373ffffffffffffffffffffffffffffffffffffffff1673ffffffffffffffffffffffffffffffffffffffff16815260200190815260200160002081908060018154018082558091505060019003906000526020600020906009020160009091909190915060008201518160000160006101000a81548160ff021916908360ff16021790555060208201518160000160016101000a81548160ff021916908360ff1602179055506040820151816001019080519060200190610fc092919061120e565b506060820151816002019080519060200190610fdd92919061120e565b5060808201518160030160006101000a81548160ff021916908360ff16021790555060a08201518160030160016101000a81548160ff021916908360ff16021790555060c08201518160030160026101000a81548160ff021916908360ff16021790555060e08201518160030160036101000a81548160ff021916908360ff16021790555061010082015181600401600082015181600001908051906020019061108892919061120e565b5060208201518160010190805190602001906110a592919061120e565b5050506101208201518160060160008201518160000190805190602001906110ce92919061120e565b5060208201518160010190805190602001906110eb92919061120e565b5050506101408201518160080160006101000a81548161ffff021916908361ffff1602179055506101608201518160080160026101000a81548161ffff021916908361ffff1602179055506101808201518160080160046101000a81548161ffff021916908361ffff1602179055506101a08201518160080160066101000a81548161ffff021916908361ffff1602179055506101c08201518160080160086101000a81548161ffff021916908361ffff1602179055506101e082015181600801600a6101000a81548160ff021916908360ff16021790555061020082015181600801600b6101000a81548160ff021916908360ff16021790555061022082015181600801600c6101000a81548160ff021916908360ff16021790555050505050565b828054600181600116156101000203166002900490600052602060002090601f016020900481019282601f1061124f57805160ff191683800117855561127d565b8280016001018555821561127d579182015b8281111561127c578251825591602001919060010190611261565b5b50905061128a9190611354565b5090565b604051806102400160405280600060ff168152602001600060ff1681526020016060815260200160608152602001600060ff168152602001600060ff168152602001600060ff168152602001600060ff1681526020016112ec611371565b81526020016112f9611371565b8152602001600061ffff168152602001600061ffff168152602001600061ffff168152602001600061ffff168152602001600061ffff168152602001600060ff168152602001600060ff168152602001600060ff1681525090565b5b8082111561136d576000816000905550600101611355565b5090565b604051806040016040528060608152602001606081525090565b60008135905061139a81611aec565b92915050565b600082601f8301126113b157600080fd5b81356113c46113bf8261199a565b61196d565b915080825260208301602083018583830111156113e057600080fd5b6113eb838284611a99565b50505092915050565b60006020828403121561140657600080fd5b60006114148482850161138b565b91505092915050565b60006020828403121561142f57600080fd5b600082013567ffffffffffffffff81111561144957600080fd5b611455848285016113a0565b91505092915050565b600061146a83836116b6565b905092915050565b61147b81611a4c565b82525050565b600061148c826119eb565b6114968185611a0e565b9350836020820285016114a8856119c6565b8060005b858110156114e457848403895281516114c5858261145e565b94506114d083611a01565b925060208a019950506001810190506114ac565b50829750879550505050505092915050565b6000611501826119f6565b61150b8185611a1f565b935061151b818560208601611aa8565b61152481611adb565b840191505092915050565b600061153a826119f6565b6115448185611a30565b9350611554818560208601611aa8565b61155d81611adb565b840191505092915050565b60008154600181166000811461158557600181146115aa576115ee565b607f60028304166115968187611a41565b955060ff19831686528086019350506115ee565b600282046115b88187611a41565b95506115c3856119d6565b60005b828110156115e5578154818901526001820191506020810190506115c6565b82880195505050505b505092915050565b6000611603602683611a30565b91507f4f776e61626c653a206e6577206f776e657220697320746865207a65726f206160008301527f64647265737300000000000000000000000000000000000000000000000000006020830152604082019050919050565b6000611669602083611a30565b91507f4f776e61626c653a2063616c6c6572206973206e6f7420746865206f776e65726000830152602082019050919050565b60006116a9600083611a41565b9150600082019050919050565b6000610240830160008301516116cf60008601826118a0565b5060208301516116e260208601826118a0565b50604083015184820360408601526116fa82826114f6565b9150506060830151848203606086015261171482826114f6565b915050608083015161172960808601826118a0565b5060a083015161173c60a08601826118a0565b5060c083015161174f60c08601826118a0565b5060e083015161176260e08601826118a0565b5061010083015184820361010086015261177c828261184d565b915050610120830151848203610120860152611798828261184d565b9150506101408301516117af610140860182611891565b506101608301516117c4610160860182611891565b506101808301516117d9610180860182611891565b506101a08301516117ee6101a0860182611891565b506101c08301516118036101c0860182611891565b506101e08301516118186101e08601826118a0565b5061020083015161182d6102008601826118a0565b506102208301516118426102208601826118a0565b508091505092915050565b6000604083016000830151848203600086015261186a82826114f6565b9150506020830151848203602086015261188482826114f6565b9150508091505092915050565b61189a81611a5e565b82525050565b6118a981611a8c565b82525050565b60006118bb8284611568565b915081905092915050565b60006118d18261169c565b9150819050919050565b60006020820190506118f06000830184611472565b92915050565b60006040820190508181036000830152611910818561152f565b905081810360208301526119248184611481565b90509392505050565b60006020820190508181036000830152611946816115f6565b9050919050565b600060208201905081810360008301526119668161165c565b9050919050565b6000604051905081810181811067ffffffffffffffff8211171561199057600080fd5b8060405250919050565b600067ffffffffffffffff8211156119b157600080fd5b601f19601f8301169050602081019050919050565b6000819050602082019050919050565b60008190508160005260206000209050919050565b600081519050919050565b600081519050919050565b6000602082019050919050565b600082825260208201905092915050565b600082825260208201905092915050565b600082825260208201905092915050565b600081905092915050565b6000611a5782611a6c565b9050919050565b600061ffff82169050919050565b600073ffffffffffffffffffffffffffffffffffffffff82169050919050565b600060ff82169050919050565b82818337600083830152505050565b60005b83811015611ac6578082015181840152602081019050611aab565b83811115611ad5576000848401525b50505050565b6000601f19601f8301169050919050565b611af581611a4c565b8114611b0057600080fd5b5056fea2646970667358221220289e64048fc96fe290333d1e59640fa3f671886242c060c1deb2c0f2303a54d364736f6c634300060c0033",
  "immutableReferences": {},
  "source": "// SPDX-License-Identifier: GPL-3.0\npragma solidity 0.6.12;\npragma experimental ABIEncoderV2;\n\nimport './Card.sol';\n\ncontract Master is Card {\n\tmapping(address => string) masters;\n\tmapping(address => uint) created;\n\tfunction getMaster() public view returns(string memory, Servant[] memory) {\n\t\trequire(keccak256(abi.encodePacked((masters[msg.sender]))) != keccak256(abi.encodePacked((\"\"))));\n\t\treturn (masters[msg.sender], drawed[msg.sender]);\n\t}\n\n\tfunction createMaster(string memory name) public {\n\t\trequire(keccak256(abi.encodePacked((masters[msg.sender]))) == keccak256(abi.encodePacked((\"\"))));\n\t\tmasters[msg.sender] = name;\n\t\tcreated[msg.sender] = 1;\n\t\tinitMaster(msg.sender);\n\t}\n}\n",
  "sourcePath": "/Users/NgHViet/Desktop/Blockchain/gacha/blockchain/contracts/Master.sol",
  "compiler": {
    "name": "solc",
    "version": "0.6.12+commit.27d51765.Emscripten.clang"
  },
  "schemaVersion": "3.3.4",
  "updatedAt": "2021-04-17T01:17:48.085Z",
  "networkType": "ethereum",
  "devdoc": {
    "kind": "dev",
    "methods": {
      "owner()": {
        "details": "Returns the address of the current owner."
      },
      "renounceOwnership()": {
        "details": "Leaves the contract without owner. It will not be possible to call `onlyOwner` functions anymore. Can only be called by the current owner. NOTE: Renouncing ownership will leave the contract without an owner, thereby removing any functionality that is only available to the owner."
      },
      "transferOwnership(address)": {
        "details": "Transfers ownership of the contract to a new account (`newOwner`). Can only be called by the current owner."
      }
    },
    "version": 1
  },
  "userdoc": {
    "kind": "user",
    "methods": {},
    "version": 1
  }
}