{
  "contractName": "Mob",
  "abi": [
    {
      "anonymous": false,
      "inputs": [
        {
          "indexed": true,
          "internalType": "address",
          "name": "previousOwner",
          "type": "address"
        },
        {
          "indexed": true,
          "internalType": "address",
          "name": "newOwner",
          "type": "address"
        }
      ],
      "name": "OwnershipTransferred",
      "type": "event"
    },
    {
      "inputs": [],
      "name": "owner",
      "outputs": [
        {
          "internalType": "address",
          "name": "",
          "type": "address"
        }
      ],
      "stateMutability": "view",
      "type": "function",
      "constant": true
    },
    {
      "inputs": [],
      "name": "renounceOwnership",
      "outputs": [],
      "stateMutability": "nonpayable",
      "type": "function"
    },
    {
      "inputs": [
        {
          "internalType": "address",
          "name": "newOwner",
          "type": "address"
        }
      ],
      "name": "transferOwnership",
      "outputs": [],
      "stateMutability": "nonpayable",
      "type": "function"
    },
    {
      "inputs": [
        {
          "internalType": "string",
          "name": "locationName",
          "type": "string"
        },
        {
          "internalType": "uint16",
          "name": "id",
          "type": "uint16"
        },
        {
          "internalType": "string",
          "name": "name",
          "type": "string"
        },
        {
          "internalType": "uint16",
          "name": "hp",
          "type": "uint16"
        },
        {
          "internalType": "uint16",
          "name": "atk",
          "type": "uint16"
        },
        {
          "internalType": "uint16",
          "name": "def",
          "type": "uint16"
        },
        {
          "internalType": "uint16",
          "name": "critRate",
          "type": "uint16"
        },
        {
          "internalType": "uint16",
          "name": "critMultiplier",
          "type": "uint16"
        },
        {
          "internalType": "uint8",
          "name": "level",
          "type": "uint8"
        },
        {
          "internalType": "string",
          "name": "class",
          "type": "string"
        }
      ],
      "name": "addLocation",
      "outputs": [],
      "stateMutability": "nonpayable",
      "type": "function"
    }
  ],
  "bytecode": "0x608060405234801561001057600080fd5b5060006100216100c460201b60201c565b9050806000806101000a81548173ffffffffffffffffffffffffffffffffffffffff021916908373ffffffffffffffffffffffffffffffffffffffff1602179055508073ffffffffffffffffffffffffffffffffffffffff16600073ffffffffffffffffffffffffffffffffffffffff167f8be0079c531659141344cd1fd0a4f28419497f9722a3daafe3b4186f6b6457e060405160405180910390a3506100cc565b600033905090565b610bb9806100db6000396000f3fe608060405234801561001057600080fd5b506004361061004c5760003560e01c8063715018a6146100515780638da5cb5b1461005b578063cbb916c914610079578063f2fde38b14610095575b600080fd5b6100596100b1565b005b6100636101eb565b6040516100709190610a1d565b60405180910390f35b610093600480360381019061008e9190610845565b610214565b005b6100af60048036038101906100aa919061081c565b6104ad565b005b6100b9610656565b73ffffffffffffffffffffffffffffffffffffffff166100d76101eb565b73ffffffffffffffffffffffffffffffffffffffff161461012d576040517f08c379a000000000000000000000000000000000000000000000000000000000815260040161012490610a58565b60405180910390fd5b600073ffffffffffffffffffffffffffffffffffffffff1660008054906101000a900473ffffffffffffffffffffffffffffffffffffffff1673ffffffffffffffffffffffffffffffffffffffff167f8be0079c531659141344cd1fd0a4f28419497f9722a3daafe3b4186f6b6457e060405160405180910390a360008060006101000a81548173ffffffffffffffffffffffffffffffffffffffff021916908373ffffffffffffffffffffffffffffffffffffffff160217905550565b60008060009054906101000a900473ffffffffffffffffffffffffffffffffffffffff16905090565b61021c610656565b73ffffffffffffffffffffffffffffffffffffffff1661023a6101eb565b73ffffffffffffffffffffffffffffffffffffffff1614610290576040517f08c379a000000000000000000000000000000000000000000000000000000000815260040161028790610a58565b60405180910390fd5b61029861065e565b60405180606001604052808c81526020018460ff1681526020016040518061012001604052808d61ffff1681526020018c81526020018b61ffff1681526020018a61ffff1681526020018961ffff1681526020018861ffff1681526020018761ffff1681526020018660ff1681526020018581525081525090506001819080600181540180825580915050600190039060005260206000209060060201600090919091909150600082015181600001908051906020019061035a929190610685565b506020820151816001015560408201518160020160008201518160000160006101000a81548161ffff021916908361ffff16021790555060208201518160010190805190602001906103ad929190610685565b5060408201518160020160006101000a81548161ffff021916908361ffff16021790555060608201518160020160026101000a81548161ffff021916908361ffff16021790555060808201518160020160046101000a81548161ffff021916908361ffff16021790555060a08201518160020160066101000a81548161ffff021916908361ffff16021790555060c08201518160020160086101000a81548161ffff021916908361ffff16021790555060e082015181600201600a6101000a81548160ff021916908360ff16021790555061010082015181600301908051906020019061049b929190610685565b50505050505050505050505050505050565b6104b5610656565b73ffffffffffffffffffffffffffffffffffffffff166104d36101eb565b73ffffffffffffffffffffffffffffffffffffffff1614610529576040517f08c379a000000000000000000000000000000000000000000000000000000000815260040161052090610a58565b60405180910390fd5b600073ffffffffffffffffffffffffffffffffffffffff168173ffffffffffffffffffffffffffffffffffffffff161415610599576040517f08c379a000000000000000000000000000000000000000000000000000000000815260040161059090610a38565b60405180910390fd5b8073ffffffffffffffffffffffffffffffffffffffff1660008054906101000a900473ffffffffffffffffffffffffffffffffffffffff1673ffffffffffffffffffffffffffffffffffffffff167f8be0079c531659141344cd1fd0a4f28419497f9722a3daafe3b4186f6b6457e060405160405180910390a3806000806101000a81548173ffffffffffffffffffffffffffffffffffffffff021916908373ffffffffffffffffffffffffffffffffffffffff16021790555050565b600033905090565b6040518060600160405280606081526020016000815260200161067f610705565b81525090565b828054600181600116156101000203166002900490600052602060002090601f016020900481019282601f106106c657805160ff19168380011785556106f4565b828001600101855582156106f4579182015b828111156106f35782518255916020019190600101906106d8565b5b509050610701919061076c565b5090565b604051806101200160405280600061ffff16815260200160608152602001600061ffff168152602001600061ffff168152602001600061ffff168152602001600061ffff168152602001600061ffff168152602001600060ff168152602001606081525090565b5b8082111561078557600081600090555060010161076d565b5090565b60008135905061079881610b3e565b92915050565b600082601f8301126107af57600080fd5b81356107c26107bd82610aa5565b610a78565b915080825260208301602083018583830111156107de57600080fd5b6107e9838284610b2f565b50505092915050565b60008135905061080181610b55565b92915050565b60008135905061081681610b6c565b92915050565b60006020828403121561082e57600080fd5b600061083c84828501610789565b91505092915050565b6000806000806000806000806000806101408b8d03121561086557600080fd5b60008b013567ffffffffffffffff81111561087f57600080fd5b61088b8d828e0161079e565b9a5050602061089c8d828e016107f2565b99505060408b013567ffffffffffffffff8111156108b957600080fd5b6108c58d828e0161079e565b98505060606108d68d828e016107f2565b97505060806108e78d828e016107f2565b96505060a06108f88d828e016107f2565b95505060c06109098d828e016107f2565b94505060e061091a8d828e016107f2565b93505061010061092c8d828e01610807565b9250506101208b013567ffffffffffffffff81111561094a57600080fd5b6109568d828e0161079e565b9150509295989b9194979a5092959850565b61097181610ae2565b82525050565b6000610984602683610ad1565b91507f4f776e61626c653a206e6577206f776e657220697320746865207a65726f206160008301527f64647265737300000000000000000000000000000000000000000000000000006020830152604082019050919050565b60006109ea602083610ad1565b91507f4f776e61626c653a2063616c6c6572206973206e6f7420746865206f776e65726000830152602082019050919050565b6000602082019050610a326000830184610968565b92915050565b60006020820190508181036000830152610a5181610977565b9050919050565b60006020820190508181036000830152610a71816109dd565b9050919050565b6000604051905081810181811067ffffffffffffffff82111715610a9b57600080fd5b8060405250919050565b600067ffffffffffffffff821115610abc57600080fd5b601f19601f8301169050602081019050919050565b600082825260208201905092915050565b6000610aed82610b02565b9050919050565b600061ffff82169050919050565b600073ffffffffffffffffffffffffffffffffffffffff82169050919050565b600060ff82169050919050565b82818337600083830152505050565b610b4781610ae2565b8114610b5257600080fd5b50565b610b5e81610af4565b8114610b6957600080fd5b50565b610b7581610b22565b8114610b8057600080fd5b5056fea2646970667358221220ff15c4c1e852915c9433f3222d0b2f825fb252233fa0983c5c3cc105efba157264736f6c634300060c0033",
  "immutableReferences": {},
  "source": "// SPDX-License-Identifier: GPL-3.0\npragma solidity 0.6.12;\npragma experimental ABIEncoderV2;\n\nimport \"@openzeppelin/contracts/access/Ownable.sol\";\n\ncontract Mob is Ownable {\n  \tstruct Monster {\n  \t\tuint16 id;\n  \t\tstring name;\n  \t\tuint16 hp;\n  \t\tuint16 atk;\n  \t\tuint16 def;\n  \t\tuint16 critRate;\n  \t\tuint16 critMultiplier;\n\n  \t\tuint8 level;\n  \t\tstring class;\n  \t}\n\n  \tstruct Location {\n  \t\tstring name;\n  \t\tuint recommendLv;\n  \t\tMonster monster;\n  \t}\n\n  \tLocation[] locations;\n  \tmapping(address => Location) masterLocations;\n\n\n  \tfunction addLocation(string memory locationName, uint16 id, string memory name, uint16 hp, uint16 atk, uint16 def, uint16 critRate, uint16 critMultiplier, uint8 level, string memory class) public onlyOwner {\n  \t\tLocation memory location = Location(locationName, level, Monster(id, name, hp, atk, def, critRate, critMultiplier, level, class));\n  \t\tlocations.push(location);\n  \t}\n}\n",
  "sourcePath": "/Users/NgHViet/Desktop/Blockchain/gacha/blockchain/contracts/Mob.sol",
  "compiler": {
    "name": "solc",
    "version": "0.6.12+commit.27d51765.Emscripten.clang"
  },
  "schemaVersion": "3.3.4",
  "updatedAt": "2021-04-18T06:46:40.096Z",
  "networkType": "ethereum",
  "devdoc": {
    "kind": "dev",
    "methods": {
      "owner()": {
        "details": "Returns the address of the current owner."
      },
      "renounceOwnership()": {
        "details": "Leaves the contract without owner. It will not be possible to call `onlyOwner` functions anymore. Can only be called by the current owner. NOTE: Renouncing ownership will leave the contract without an owner, thereby removing any functionality that is only available to the owner."
      },
      "transferOwnership(address)": {
        "details": "Transfers ownership of the contract to a new account (`newOwner`). Can only be called by the current owner."
      }
    },
    "version": 1
  },
  "userdoc": {
    "kind": "user",
    "methods": {},
    "version": 1
  }
}