{
  "contractName": "Pooling",
  "abi": [
    {
      "anonymous": false,
      "inputs": [
        {
          "indexed": true,
          "internalType": "address",
          "name": "previousOwner",
          "type": "address"
        },
        {
          "indexed": true,
          "internalType": "address",
          "name": "newOwner",
          "type": "address"
        }
      ],
      "name": "OwnershipTransferred",
      "type": "event"
    },
    {
      "inputs": [],
      "name": "owner",
      "outputs": [
        {
          "internalType": "address",
          "name": "",
          "type": "address"
        }
      ],
      "stateMutability": "view",
      "type": "function",
      "constant": true
    },
    {
      "inputs": [],
      "name": "renounceOwnership",
      "outputs": [],
      "stateMutability": "nonpayable",
      "type": "function"
    },
    {
      "inputs": [
        {
          "internalType": "address",
          "name": "newOwner",
          "type": "address"
        }
      ],
      "name": "transferOwnership",
      "outputs": [],
      "stateMutability": "nonpayable",
      "type": "function"
    },
    {
      "inputs": [],
      "name": "rollOne",
      "outputs": [],
      "stateMutability": "payable",
      "type": "function",
      "payable": true
    },
    {
      "inputs": [],
      "name": "rollTen",
      "outputs": [],
      "stateMutability": "payable",
      "type": "function",
      "payable": true
    },
    {
      "inputs": [
        {
          "internalType": "uint8",
          "name": "id",
          "type": "uint8"
        },
        {
          "internalType": "string",
          "name": "name",
          "type": "string"
        },
        {
          "internalType": "string",
          "name": "class",
          "type": "string"
        },
        {
          "internalType": "uint8",
          "name": "rank",
          "type": "uint8"
        },
        {
          "internalType": "uint16",
          "name": "atk",
          "type": "uint16"
        },
        {
          "internalType": "uint16",
          "name": "def",
          "type": "uint16"
        },
        {
          "internalType": "uint16",
          "name": "hp",
          "type": "uint16"
        },
        {
          "internalType": "uint8",
          "name": "atkPerLevel",
          "type": "uint8"
        },
        {
          "internalType": "uint8",
          "name": "defPerLevel",
          "type": "uint8"
        },
        {
          "internalType": "uint8",
          "name": "hpPerLevel",
          "type": "uint8"
        }
      ],
      "name": "addServant",
      "outputs": [],
      "stateMutability": "nonpayable",
      "type": "function"
    }
  ],
  "bytecode": "0x60806040526000600755600060085566038d7ea4c6800060095534801561002557600080fd5b5060006100366100d960201b60201c565b9050806000806101000a81548173ffffffffffffffffffffffffffffffffffffffff021916908373ffffffffffffffffffffffffffffffffffffffff1602179055508073ffffffffffffffffffffffffffffffffffffffff16600073ffffffffffffffffffffffffffffffffffffffff167f8be0079c531659141344cd1fd0a4f28419497f9722a3daafe3b4186f6b6457e060405160405180910390a3506100e1565b600033905090565b611f7f806100f06000396000f3fe6080604052600436106100555760003560e01c8063140aaa0d1461005a5780631a92229014610064578063715018a61461008d5780638da5cb5b146100a4578063e4609fb2146100cf578063f2fde38b146100d9575b600080fd5b610062610102565b005b34801561007057600080fd5b5061008b60048036038101906100869190611b2f565b6106c0565b005b34801561009957600080fd5b506100a261109d565b005b3480156100b057600080fd5b506100b96111d7565b6040516100c69190611dc3565b60405180910390f35b6100d7611200565b005b3480156100e557600080fd5b5061010060048036038101906100fb9190611b06565b61179e565b005b60405160200161011190611dae565b60405160208183030381529060405280519060200120600260003373ffffffffffffffffffffffffffffffffffffffff1673ffffffffffffffffffffffffffffffffffffffff1681526020019081526020016000206040516020016101769190611d97565b60405160208183030381529060405280519060200120141561019757600080fd5b600a60095402341480156101f15750610100600a600160003373ffffffffffffffffffffffffffffffffffffffff1673ffffffffffffffffffffffffffffffffffffffff1681526020019081526020016000208054905001105b6101fa57600080fd5b60005b600a8110156106bd5760003373ffffffffffffffffffffffffffffffffffffffff16600143034060001c0182029050600754818161023757fe5b06905060005b6008548110156106ae57816005600060018401815260200190815260200160002054111561068657600160003373ffffffffffffffffffffffffffffffffffffffff1673ffffffffffffffffffffffffffffffffffffffff168152602001908152602001600020600682815481106102b157fe5b906000526020600020906009020190806001815401808255809150506001900390600052602060002090600902016000909190919091506000820160009054906101000a900460ff168160000160006101000a81548160ff021916908360ff1602179055506000820160019054906101000a900460ff168160000160016101000a81548160ff021916908360ff1602179055506001820181600101908054600181600116156101000203166002900461036b92919061194f565b506002820181600201908054600181600116156101000203166002900461039392919061194f565b506003820160009054906101000a900460ff168160030160006101000a81548160ff021916908360ff1602179055506003820160019054906101000a900460ff168160030160016101000a81548160ff021916908360ff1602179055506003820160029054906101000a900460ff168160030160026101000a81548160ff021916908360ff1602179055506003820160039054906101000a900460ff168160030160036101000a81548160ff021916908360ff16021790555060048201816004016000820181600001908054600181600116156101000203166002900461047b92919061194f565b50600182018160010190805460018160011615610100020316600290046104a392919061194f565b5050506006820181600601600082018160000190805460018160011615610100020316600290046104d592919061194f565b50600182018160010190805460018160011615610100020316600290046104fd92919061194f565b5050506008820160009054906101000a900461ffff168160080160006101000a81548161ffff021916908361ffff1602179055506008820160029054906101000a900461ffff168160080160026101000a81548161ffff021916908361ffff1602179055506008820160049054906101000a900461ffff168160080160046101000a81548161ffff021916908361ffff1602179055506008820160069054906101000a900461ffff168160080160066101000a81548161ffff021916908361ffff1602179055506008820160089054906101000a900461ffff168160080160086101000a81548161ffff021916908361ffff16021790555060088201600a9054906101000a900460ff1681600801600a6101000a81548160ff021916908360ff16021790555060088201600b9054906101000a900460ff1681600801600b6101000a81548160ff021916908360ff16021790555060088201600c9054906101000a900460ff1681600801600c6101000a81548160ff021916908360ff16021790555050506106ae565b600560006001830181526020019081526020016000205482039150808060010191505061023d565b505080806001019150506101fd565b50565b6106c8611947565b73ffffffffffffffffffffffffffffffffffffffff166106e66111d7565b73ffffffffffffffffffffffffffffffffffffffff161461073c576040517f08c379a000000000000000000000000000000000000000000000000000000000815260040161073390611dfe565b60405180910390fd5b60405160200161074b90611dae565b60405160208183030381529060405280519060200120600460008c60ff16815260200190815260200160002060010160405160200161078a9190611d97565b60405160208183030381529060405280519060200120146107aa57600080fd5b6000603c905060028860ff1614156107c157604190505b60038860ff1614156107d257604690505b60048860ff1614156107e357605090505b60058860ff1614156107f457605a90505b6040518061024001604052808c60ff168152602001600160ff1681526020018b81526020018a8152602001600160ff1681526020018960ff168152602001600160ff1681526020018260ff16815260200160405180604001604052806040518060400160405280600981526020017f556e646566696e6564000000000000000000000000000000000000000000000081525081526020016040518060400160405280600981526020017f556e646566696e65640000000000000000000000000000000000000000000000815250815250815260200160405180604001604052806040518060400160405280600981526020017f556e646566696e6564000000000000000000000000000000000000000000000081525081526020016040518060400160405280600981526020017f556e646566696e6564000000000000000000000000000000000000000000000081525081525081526020018861ffff1681526020018761ffff1681526020018661ffff168152602001601961ffff16815260200160c861ffff1681526020018560ff1681526020018460ff1681526020018360ff16815250600460008d60ff16815260200190815260200160002060008201518160000160006101000a81548160ff021916908360ff16021790555060208201518160000160016101000a81548160ff021916908360ff1602179055506040820151816001019080519060200190610a0e9291906119d6565b506060820151816002019080519060200190610a2b9291906119d6565b5060808201518160030160006101000a81548160ff021916908360ff16021790555060a08201518160030160016101000a81548160ff021916908360ff16021790555060c08201518160030160026101000a81548160ff021916908360ff16021790555060e08201518160030160036101000a81548160ff021916908360ff160217905550610100820151816004016000820151816000019080519060200190610ad69291906119d6565b506020820151816001019080519060200190610af39291906119d6565b505050610120820151816006016000820151816000019080519060200190610b1c9291906119d6565b506020820151816001019080519060200190610b399291906119d6565b5050506101408201518160080160006101000a81548161ffff021916908361ffff1602179055506101608201518160080160026101000a81548161ffff021916908361ffff1602179055506101808201518160080160046101000a81548161ffff021916908361ffff1602179055506101a08201518160080160066101000a81548161ffff021916908361ffff1602179055506101c08201518160080160086101000a81548161ffff021916908361ffff1602179055506101e082015181600801600a6101000a81548160ff021916908360ff16021790555061020082015181600801600b6101000a81548160ff021916908360ff16021790555061022082015181600801600c6101000a81548160ff021916908360ff1602179055509050506006600460008d60ff16815260200190815260200160002090806001815401808255809150506001900390600052602060002090600902016000909190919091506000820160009054906101000a900460ff168160000160006101000a81548160ff021916908360ff1602179055506000820160019054906101000a900460ff168160000160016101000a81548160ff021916908360ff16021790555060018201816001019080546001816001161561010002031660029004610d1d92919061194f565b5060028201816002019080546001816001161561010002031660029004610d4592919061194f565b506003820160009054906101000a900460ff168160030160006101000a81548160ff021916908360ff1602179055506003820160019054906101000a900460ff168160030160016101000a81548160ff021916908360ff1602179055506003820160029054906101000a900460ff168160030160026101000a81548160ff021916908360ff1602179055506003820160039054906101000a900460ff168160030160036101000a81548160ff021916908360ff160217905550600482018160040160008201816000019080546001816001161561010002031660029004610e2d92919061194f565b5060018201816001019080546001816001161561010002031660029004610e5592919061194f565b505050600682018160060160008201816000019080546001816001161561010002031660029004610e8792919061194f565b5060018201816001019080546001816001161561010002031660029004610eaf92919061194f565b5050506008820160009054906101000a900461ffff168160080160006101000a81548161ffff021916908361ffff1602179055506008820160029054906101000a900461ffff168160080160026101000a81548161ffff021916908361ffff1602179055506008820160049054906101000a900461ffff168160080160046101000a81548161ffff021916908361ffff1602179055506008820160069054906101000a900461ffff168160080160066101000a81548161ffff021916908361ffff1602179055506008820160089054906101000a900461ffff168160080160086101000a81548161ffff021916908361ffff16021790555060088201600a9054906101000a900460ff1681600801600a6101000a81548160ff021916908360ff16021790555060088201600b9054906101000a900460ff1681600801600b6101000a81548160ff021916908360ff16021790555060088201600c9054906101000a900460ff1681600801600c6101000a81548160ff021916908360ff16021790555050508760060360ff1660020a60ff1661ffff16600560008d60ff168152602001908152602001600020819055508760060360ff1660020a60ff1661ffff166007600082825401925050819055506008600081548092919060010191905055505050505050505050505050565b6110a5611947565b73ffffffffffffffffffffffffffffffffffffffff166110c36111d7565b73ffffffffffffffffffffffffffffffffffffffff1614611119576040517f08c379a000000000000000000000000000000000000000000000000000000000815260040161111090611dfe565b60405180910390fd5b600073ffffffffffffffffffffffffffffffffffffffff1660008054906101000a900473ffffffffffffffffffffffffffffffffffffffff1673ffffffffffffffffffffffffffffffffffffffff167f8be0079c531659141344cd1fd0a4f28419497f9722a3daafe3b4186f6b6457e060405160405180910390a360008060006101000a81548173ffffffffffffffffffffffffffffffffffffffff021916908373ffffffffffffffffffffffffffffffffffffffff160217905550565b60008060009054906101000a900473ffffffffffffffffffffffffffffffffffffffff16905090565b60405160200161120f90611dae565b60405160208183030381529060405280519060200120600260003373ffffffffffffffffffffffffffffffffffffffff1673ffffffffffffffffffffffffffffffffffffffff1681526020019081526020016000206040516020016112749190611d97565b60405160208183030381529060405280519060200120141561129557600080fd5b600954341480156112eb575061010060018060003373ffffffffffffffffffffffffffffffffffffffff1673ffffffffffffffffffffffffffffffffffffffff1681526020019081526020016000208054905001105b6112f457600080fd5b60003373ffffffffffffffffffffffffffffffffffffffff16600143034060001c019050600754818161132357fe5b06905060005b60085481101561179a57816005600060018401815260200190815260200160002054111561177257600160003373ffffffffffffffffffffffffffffffffffffffff1673ffffffffffffffffffffffffffffffffffffffff1681526020019081526020016000206006828154811061139d57fe5b906000526020600020906009020190806001815401808255809150506001900390600052602060002090600902016000909190919091506000820160009054906101000a900460ff168160000160006101000a81548160ff021916908360ff1602179055506000820160019054906101000a900460ff168160000160016101000a81548160ff021916908360ff1602179055506001820181600101908054600181600116156101000203166002900461145792919061194f565b506002820181600201908054600181600116156101000203166002900461147f92919061194f565b506003820160009054906101000a900460ff168160030160006101000a81548160ff021916908360ff1602179055506003820160019054906101000a900460ff168160030160016101000a81548160ff021916908360ff1602179055506003820160029054906101000a900460ff168160030160026101000a81548160ff021916908360ff1602179055506003820160039054906101000a900460ff168160030160036101000a81548160ff021916908360ff16021790555060048201816004016000820181600001908054600181600116156101000203166002900461156792919061194f565b506001820181600101908054600181600116156101000203166002900461158f92919061194f565b5050506006820181600601600082018160000190805460018160011615610100020316600290046115c192919061194f565b50600182018160010190805460018160011615610100020316600290046115e992919061194f565b5050506008820160009054906101000a900461ffff168160080160006101000a81548161ffff021916908361ffff1602179055506008820160029054906101000a900461ffff168160080160026101000a81548161ffff021916908361ffff1602179055506008820160049054906101000a900461ffff168160080160046101000a81548161ffff021916908361ffff1602179055506008820160069054906101000a900461ffff168160080160066101000a81548161ffff021916908361ffff1602179055506008820160089054906101000a900461ffff168160080160086101000a81548161ffff021916908361ffff16021790555060088201600a9054906101000a900460ff1681600801600a6101000a81548160ff021916908360ff16021790555060088201600b9054906101000a900460ff1681600801600b6101000a81548160ff021916908360ff16021790555060088201600c9054906101000a900460ff1681600801600c6101000a81548160ff021916908360ff160217905550505061179a565b6005600060018301815260200190815260200160002054820391508080600101915050611329565b5050565b6117a6611947565b73ffffffffffffffffffffffffffffffffffffffff166117c46111d7565b73ffffffffffffffffffffffffffffffffffffffff161461181a576040517f08c379a000000000000000000000000000000000000000000000000000000000815260040161181190611dfe565b60405180910390fd5b600073ffffffffffffffffffffffffffffffffffffffff168173ffffffffffffffffffffffffffffffffffffffff16141561188a576040517f08c379a000000000000000000000000000000000000000000000000000000000815260040161188190611dde565b60405180910390fd5b8073ffffffffffffffffffffffffffffffffffffffff1660008054906101000a900473ffffffffffffffffffffffffffffffffffffffff1673ffffffffffffffffffffffffffffffffffffffff167f8be0079c531659141344cd1fd0a4f28419497f9722a3daafe3b4186f6b6457e060405160405180910390a3806000806101000a81548173ffffffffffffffffffffffffffffffffffffffff021916908373ffffffffffffffffffffffffffffffffffffffff16021790555050565b600033905090565b828054600181600116156101000203166002900490600052602060002090601f016020900481019282601f1061198857805485556119c5565b828001600101855582156119c557600052602060002091601f016020900482015b828111156119c45782548255916001019190600101906119a9565b5b5090506119d29190611a56565b5090565b828054600181600116156101000203166002900490600052602060002090601f016020900481019282601f10611a1757805160ff1916838001178555611a45565b82800160010185558215611a45579182015b82811115611a44578251825591602001919060010190611a29565b5b509050611a529190611a56565b5090565b5b80821115611a6f576000816000905550600101611a57565b5090565b600081359050611a8281611f04565b92915050565b600082601f830112611a9957600080fd5b8135611aac611aa782611e4b565b611e1e565b91508082526020830160208301858383011115611ac857600080fd5b611ad3838284611ef5565b50505092915050565b600081359050611aeb81611f1b565b92915050565b600081359050611b0081611f32565b92915050565b600060208284031215611b1857600080fd5b6000611b2684828501611a73565b91505092915050565b6000806000806000806000806000806101408b8d031215611b4f57600080fd5b6000611b5d8d828e01611af1565b9a505060208b013567ffffffffffffffff811115611b7a57600080fd5b611b868d828e01611a88565b99505060408b013567ffffffffffffffff811115611ba357600080fd5b611baf8d828e01611a88565b9850506060611bc08d828e01611af1565b9750506080611bd18d828e01611adc565b96505060a0611be28d828e01611adc565b95505060c0611bf38d828e01611adc565b94505060e0611c048d828e01611af1565b935050610100611c168d828e01611af1565b925050610120611c288d828e01611af1565b9150509295989b9194979a5092959850565b611c4381611ea8565b82525050565b600081546001811660008114611c665760018114611c8b57611ccf565b607f6002830416611c778187611e9d565b955060ff1983168652808601935050611ccf565b60028204611c998187611e9d565b9550611ca485611e77565b60005b82811015611cc657815481890152600182019150602081019050611ca7565b82880195505050505b505092915050565b6000611ce4602683611e8c565b91507f4f776e61626c653a206e6577206f776e657220697320746865207a65726f206160008301527f64647265737300000000000000000000000000000000000000000000000000006020830152604082019050919050565b6000611d4a602083611e8c565b91507f4f776e61626c653a2063616c6c6572206973206e6f7420746865206f776e65726000830152602082019050919050565b6000611d8a600083611e9d565b9150600082019050919050565b6000611da38284611c49565b915081905092915050565b6000611db982611d7d565b9150819050919050565b6000602082019050611dd86000830184611c3a565b92915050565b60006020820190508181036000830152611df781611cd7565b9050919050565b60006020820190508181036000830152611e1781611d3d565b9050919050565b6000604051905081810181811067ffffffffffffffff82111715611e4157600080fd5b8060405250919050565b600067ffffffffffffffff821115611e6257600080fd5b601f19601f8301169050602081019050919050565b60008190508160005260206000209050919050565b600082825260208201905092915050565b600081905092915050565b6000611eb382611ec8565b9050919050565b600061ffff82169050919050565b600073ffffffffffffffffffffffffffffffffffffffff82169050919050565b600060ff82169050919050565b82818337600083830152505050565b611f0d81611ea8565b8114611f1857600080fd5b50565b611f2481611eba565b8114611f2f57600080fd5b50565b611f3b81611ee8565b8114611f4657600080fd5b5056fea2646970667358221220cd077e8ec94b476ec90d71de004cfd4d557d3921fb81669d4fc9f91ac9d620ff64736f6c634300060c0033",
  "immutableReferences": {},
  "source": "// SPDX-License-Identifier: GPL-3.0\npragma solidity 0.6.12;\npragma experimental ABIEncoderV2;\n\nimport './Master.sol';\n\ncontract Pooling is Master{\n  \tmapping(uint => Servant) cards;\n  \tmapping(uint => uint) rates;\n\n    Servant[] pool;\n    uint totalRate = 0;\n  \tuint maxId = 0;\n\n  \tuint rollPrice = 0.001 ether;\n\n  \tfunction rollOne() public exsist payable{\n  \t\trequire(msg.value == rollPrice && drawed[msg.sender].length + 1 < 256);\n        uint256 genNum = uint256(blockhash(block.number-1)) + uint256(msg.sender);\n        genNum = genNum % totalRate;\n        for(uint id = 0;id < maxId; id++) {\n            if(rates[id + 1] > genNum) {\n                drawed[msg.sender].push(pool[id]);\n                break;\n            }\n            else genNum = genNum - rates[id + 1];\n        }\n\n  \t}\n\n  \tfunction rollTen() public exsist payable{\n  \t\trequire(msg.value == rollPrice * 10 && drawed[msg.sender].length + 10 < 256);\n        for(uint i = 0;i < 10 ; i ++) {\n            uint256 genNum = uint256(i * (uint256(blockhash(block.number-1)) + uint256(msg.sender)));\n            genNum = genNum % totalRate;\n            for(uint id = 0;id < maxId; id++) {\n                if(rates[id + 1] > genNum) {\n                    drawed[msg.sender].push(pool[id]);\n                    break;\n                }\n                else genNum = genNum - rates[id + 1];\n            }\n        }\n  \t}\n\n  \tfunction addServant(uint8 id, string memory name, string memory class, uint8 rank, uint16 atk, uint16 def, uint16 hp, uint8 atkPerLevel, uint8 defPerLevel, uint8 hpPerLevel) public onlyOwner {\n  \t\trequire(keccak256(abi.encodePacked(cards[id].name)) == keccak256(abi.encodePacked(\"\")));\n  \t\tuint8 levelCap = 60;\n  \t\tif(rank == 2) levelCap = 65;\n  \t\tif(rank == 3) levelCap = 70;\n  \t\tif(rank == 4) levelCap = 80;\n  \t\tif(rank == 5) levelCap = 90;\n\n  \t\tcards[id] = Servant(id, 1, name, class, 1, rank, 1, levelCap, Skill(\"Undefined\", \"Undefined\"), Skill(\"Undefined\", \"Undefined\"), atk, def, hp, 25, 200, atkPerLevel, defPerLevel, hpPerLevel);\n        pool.push(cards[id]);\n        rates[id] = uint16(2**(6 - rank));\n        totalRate += uint16(2**(6 - rank));\n        maxId++;\n    }\n\n  \tfunction removeCard(uint index, address master) internal {\n  \t\trequire(index < drawed[master].length && index != 0);\n  \t\tif(choosen[master] == index) choosen[master] = 0;\n  \t\tuint length = drawed[master].length;\n  \t\tdrawed[master][index] = drawed[master][length - 1];\n  \t\tdelete drawed[master][length - 1];\n  \t}\n}\n",
  "sourcePath": "/Users/NgHViet/Desktop/Blockchain/gacha/blockchain/contracts/Pooling.sol",
  "compiler": {
    "name": "solc",
    "version": "0.6.12+commit.27d51765.Emscripten.clang"
  },
  "schemaVersion": "3.3.4",
  "updatedAt": "2021-04-18T06:46:39.774Z",
  "networkType": "ethereum",
  "devdoc": {
    "kind": "dev",
    "methods": {
      "owner()": {
        "details": "Returns the address of the current owner."
      },
      "renounceOwnership()": {
        "details": "Leaves the contract without owner. It will not be possible to call `onlyOwner` functions anymore. Can only be called by the current owner. NOTE: Renouncing ownership will leave the contract without an owner, thereby removing any functionality that is only available to the owner."
      },
      "transferOwnership(address)": {
        "details": "Transfers ownership of the contract to a new account (`newOwner`). Can only be called by the current owner."
      }
    },
    "version": 1
  },
  "userdoc": {
    "kind": "user",
    "methods": {},
    "version": 1
  }
}