{
  "contractName": "Pooling",
  "abi": [
    {
      "anonymous": false,
      "inputs": [
        {
          "indexed": true,
          "internalType": "address",
          "name": "previousOwner",
          "type": "address"
        },
        {
          "indexed": true,
          "internalType": "address",
          "name": "newOwner",
          "type": "address"
        }
      ],
      "name": "OwnershipTransferred",
      "type": "event"
    },
    {
      "inputs": [
        {
          "internalType": "string",
          "name": "name",
          "type": "string"
        }
      ],
      "name": "createMaster",
      "outputs": [],
      "stateMutability": "nonpayable",
      "type": "function"
    },
    {
      "inputs": [],
      "name": "getMaster",
      "outputs": [
        {
          "internalType": "string",
          "name": "",
          "type": "string"
        },
        {
          "components": [
            {
              "internalType": "uint8",
              "name": "id",
              "type": "uint8"
            },
            {
              "internalType": "uint8",
              "name": "saint",
              "type": "uint8"
            },
            {
              "internalType": "string",
              "name": "name",
              "type": "string"
            },
            {
              "internalType": "string",
              "name": "class",
              "type": "string"
            },
            {
              "internalType": "uint8",
              "name": "level",
              "type": "uint8"
            },
            {
              "internalType": "uint8",
              "name": "rank",
              "type": "uint8"
            },
            {
              "internalType": "uint8",
              "name": "npLv",
              "type": "uint8"
            },
            {
              "internalType": "uint8",
              "name": "levelCap",
              "type": "uint8"
            },
            {
              "components": [
                {
                  "internalType": "string",
                  "name": "name",
                  "type": "string"
                },
                {
                  "internalType": "string",
                  "name": "description",
                  "type": "string"
                }
              ],
              "internalType": "struct Card.Skill",
              "name": "active",
              "type": "tuple"
            },
            {
              "components": [
                {
                  "internalType": "string",
                  "name": "name",
                  "type": "string"
                },
                {
                  "internalType": "string",
                  "name": "description",
                  "type": "string"
                }
              ],
              "internalType": "struct Card.Skill",
              "name": "passive",
              "type": "tuple"
            },
            {
              "internalType": "uint16",
              "name": "atk",
              "type": "uint16"
            },
            {
              "internalType": "uint16",
              "name": "def",
              "type": "uint16"
            },
            {
              "internalType": "uint16",
              "name": "hp",
              "type": "uint16"
            },
            {
              "internalType": "uint16",
              "name": "critRate",
              "type": "uint16"
            },
            {
              "internalType": "uint16",
              "name": "critMultiplier",
              "type": "uint16"
            },
            {
              "internalType": "uint8",
              "name": "atkPerLevel",
              "type": "uint8"
            },
            {
              "internalType": "uint8",
              "name": "defPerLevel",
              "type": "uint8"
            },
            {
              "internalType": "uint8",
              "name": "hpPerLevel",
              "type": "uint8"
            }
          ],
          "internalType": "struct Card.Servant[]",
          "name": "",
          "type": "tuple[]"
        }
      ],
      "stateMutability": "view",
      "type": "function",
      "constant": true
    },
    {
      "inputs": [],
      "name": "owner",
      "outputs": [
        {
          "internalType": "address",
          "name": "",
          "type": "address"
        }
      ],
      "stateMutability": "view",
      "type": "function",
      "constant": true
    },
    {
      "inputs": [],
      "name": "renounceOwnership",
      "outputs": [],
      "stateMutability": "nonpayable",
      "type": "function"
    },
    {
      "inputs": [
        {
          "internalType": "address",
          "name": "newOwner",
          "type": "address"
        }
      ],
      "name": "transferOwnership",
      "outputs": [],
      "stateMutability": "nonpayable",
      "type": "function"
    },
    {
      "inputs": [],
      "name": "rollOne",
      "outputs": [],
      "stateMutability": "payable",
      "type": "function",
      "payable": true
    },
    {
      "inputs": [],
      "name": "rollTen",
      "outputs": [],
      "stateMutability": "payable",
      "type": "function",
      "payable": true
    },
    {
      "inputs": [
        {
          "internalType": "uint8",
          "name": "id",
          "type": "uint8"
        },
        {
          "internalType": "string",
          "name": "name",
          "type": "string"
        },
        {
          "internalType": "string",
          "name": "class",
          "type": "string"
        },
        {
          "internalType": "uint8",
          "name": "rank",
          "type": "uint8"
        },
        {
          "internalType": "uint16",
          "name": "atk",
          "type": "uint16"
        },
        {
          "internalType": "uint16",
          "name": "def",
          "type": "uint16"
        },
        {
          "internalType": "uint16",
          "name": "hp",
          "type": "uint16"
        },
        {
          "internalType": "uint8",
          "name": "atkPerLevel",
          "type": "uint8"
        },
        {
          "internalType": "uint8",
          "name": "defPerLevel",
          "type": "uint8"
        },
        {
          "internalType": "uint8",
          "name": "hpPerLevel",
          "type": "uint8"
        }
      ],
      "name": "addServant",
      "outputs": [],
      "stateMutability": "nonpayable",
      "type": "function"
    }
  ],
  "bytecode": "0x6080604052600160065566038d7ea4c6800060075534801561002057600080fd5b5060006100316100d460201b60201c565b9050806000806101000a81548173ffffffffffffffffffffffffffffffffffffffff021916908373ffffffffffffffffffffffffffffffffffffffff1602179055508073ffffffffffffffffffffffffffffffffffffffff16600073ffffffffffffffffffffffffffffffffffffffff167f8be0079c531659141344cd1fd0a4f28419497f9722a3daafe3b4186f6b6457e060405160405180910390a3506100dc565b600033905090565b6128d3806100eb6000396000f3fe60806040526004361061007b5760003560e01c806374d7ae291161004e57806374d7ae29146100f65780638da5cb5b1461011f578063e4609fb21461014a578063f2fde38b146101545761007b565b8063140aaa0d146100805780631a9222901461008a5780635a99719e146100b3578063715018a6146100df575b600080fd5b61008861017d565b005b34801561009657600080fd5b506100b160048036038101906100ac91906120bf565b610190565b005b3480156100bf57600080fd5b506100c86106ec565b6040516100d6929190612662565b60405180910390f35b3480156100eb57600080fd5b506100f4610e99565b005b34801561010257600080fd5b5061011d6004803603810190610118919061207e565b610fd3565b005b34801561012b57600080fd5b5061013461110c565b6040516101419190612647565b60405180910390f35b610152611135565b005b34801561016057600080fd5b5061017b60048036038101906101769190612055565b61175b565b005b600a60075402341461018e57600080fd5b565b610198611904565b73ffffffffffffffffffffffffffffffffffffffff166101b661110c565b73ffffffffffffffffffffffffffffffffffffffff161461020c576040517f08c379a0000000000000000000000000000000000000000000000000000000008152600401610203906126b9565b60405180910390fd5b60405160200161021b90612632565b60405160208183030381529060405280519060200120600460008c60ff16815260200190815260200160002060010160405160200161025a919061261b565b604051602081830303815290604052805190602001201461027a57600080fd5b6040518061024001604052808b60ff168152602001600160ff1681526020018a8152602001898152602001600160ff1681526020018860ff168152602001600160ff168152602001605060ff16815260200160405180604001604052806040518060400160405280600981526020017f556e646566696e6564000000000000000000000000000000000000000000000081525081526020016040518060400160405280600981526020017f556e646566696e65640000000000000000000000000000000000000000000000815250815250815260200160405180604001604052806040518060400160405280600981526020017f556e646566696e6564000000000000000000000000000000000000000000000081525081526020016040518060400160405280600981526020017f556e646566696e6564000000000000000000000000000000000000000000000081525081525081526020018761ffff1681526020018661ffff1681526020018561ffff168152602001601961ffff16815260200160c861ffff1681526020018460ff1681526020018360ff1681526020018260ff16815250600460008c60ff16815260200190815260200160002060008201518160000160006101000a81548160ff021916908360ff16021790555060208201518160000160016101000a81548160ff021916908360ff1602179055506040820151816001019080519060200190610495929190611e45565b5060608201518160020190805190602001906104b2929190611e45565b5060808201518160030160006101000a81548160ff021916908360ff16021790555060a08201518160030160016101000a81548160ff021916908360ff16021790555060c08201518160030160026101000a81548160ff021916908360ff16021790555060e08201518160030160036101000a81548160ff021916908360ff16021790555061010082015181600401600082015181600001908051906020019061055d929190611e45565b50602082015181600101908051906020019061057a929190611e45565b5050506101208201518160060160008201518160000190805190602001906105a3929190611e45565b5060208201518160010190805190602001906105c0929190611e45565b5050506101408201518160080160006101000a81548161ffff021916908361ffff1602179055506101608201518160080160026101000a81548161ffff021916908361ffff1602179055506101808201518160080160046101000a81548161ffff021916908361ffff1602179055506101a08201518160080160066101000a81548161ffff021916908361ffff1602179055506101c08201518160080160086101000a81548161ffff021916908361ffff1602179055506101e082015181600801600a6101000a81548160ff021916908360ff16021790555061020082015181600801600b6101000a81548160ff021916908360ff16021790555061022082015181600801600c6101000a81548160ff021916908360ff16021790555090505050505050505050505050565b6060806040516020016106fe90612632565b60405160208183030381529060405280519060200120600260003373ffffffffffffffffffffffffffffffffffffffff1673ffffffffffffffffffffffffffffffffffffffff168152602001908152602001600020604051602001610763919061261b565b60405160208183030381529060405280519060200120141561078457600080fd5b600260003373ffffffffffffffffffffffffffffffffffffffff1673ffffffffffffffffffffffffffffffffffffffff168152602001908152602001600020600160003373ffffffffffffffffffffffffffffffffffffffff1673ffffffffffffffffffffffffffffffffffffffff168152602001908152602001600020818054600181600116156101000203166002900480601f0160208091040260200160405190810160405280929190818152602001828054600181600116156101000203166002900480156108975780601f1061086c57610100808354040283529160200191610897565b820191906000526020600020905b81548152906001019060200180831161087a57829003601f168201915b5050505050915080805480602002602001604051908101604052809291908181526020016000905b82821015610e8b5783829060005260206000209060090201604051806102400160405290816000820160009054906101000a900460ff1660ff1660ff1681526020016000820160019054906101000a900460ff1660ff1660ff168152602001600182018054600181600116156101000203166002900480601f0160208091040260200160405190810160405280929190818152602001828054600181600116156101000203166002900480156109b65780601f1061098b576101008083540402835291602001916109b6565b820191906000526020600020905b81548152906001019060200180831161099957829003601f168201915b50505050508152602001600282018054600181600116156101000203166002900480601f016020809104026020016040519081016040528092919081815260200182805460018160011615610100020316600290048015610a585780601f10610a2d57610100808354040283529160200191610a58565b820191906000526020600020905b815481529060010190602001808311610a3b57829003601f168201915b505050505081526020016003820160009054906101000a900460ff1660ff1660ff1681526020016003820160019054906101000a900460ff1660ff1660ff1681526020016003820160029054906101000a900460ff1660ff1660ff1681526020016003820160039054906101000a900460ff1660ff1660ff16815260200160048201604051806040016040529081600082018054600181600116156101000203166002900480601f016020809104026020016040519081016040528092919081815260200182805460018160011615610100020316600290048015610b7e5780601f10610b5357610100808354040283529160200191610b7e565b820191906000526020600020905b815481529060010190602001808311610b6157829003601f168201915b50505050508152602001600182018054600181600116156101000203166002900480601f016020809104026020016040519081016040528092919081815260200182805460018160011615610100020316600290048015610c205780601f10610bf557610100808354040283529160200191610c20565b820191906000526020600020905b815481529060010190602001808311610c0357829003601f168201915b505050505081525050815260200160068201604051806040016040529081600082018054600181600116156101000203166002900480601f016020809104026020016040519081016040528092919081815260200182805460018160011615610100020316600290048015610cd65780601f10610cab57610100808354040283529160200191610cd6565b820191906000526020600020905b815481529060010190602001808311610cb957829003601f168201915b50505050508152602001600182018054600181600116156101000203166002900480601f016020809104026020016040519081016040528092919081815260200182805460018160011615610100020316600290048015610d785780601f10610d4d57610100808354040283529160200191610d78565b820191906000526020600020905b815481529060010190602001808311610d5b57829003601f168201915b50505050508152505081526020016008820160009054906101000a900461ffff1661ffff1661ffff1681526020016008820160029054906101000a900461ffff1661ffff1661ffff1681526020016008820160049054906101000a900461ffff1661ffff1661ffff1681526020016008820160069054906101000a900461ffff1661ffff1661ffff1681526020016008820160089054906101000a900461ffff1661ffff1661ffff16815260200160088201600a9054906101000a900460ff1660ff1660ff16815260200160088201600b9054906101000a900460ff1660ff1660ff16815260200160088201600c9054906101000a900460ff1660ff1660ff1681525050815260200190600101906108bf565b505050509050915091509091565b610ea1611904565b73ffffffffffffffffffffffffffffffffffffffff16610ebf61110c565b73ffffffffffffffffffffffffffffffffffffffff1614610f15576040517f08c379a0000000000000000000000000000000000000000000000000000000008152600401610f0c906126b9565b60405180910390fd5b600073ffffffffffffffffffffffffffffffffffffffff1660008054906101000a900473ffffffffffffffffffffffffffffffffffffffff1673ffffffffffffffffffffffffffffffffffffffff167f8be0079c531659141344cd1fd0a4f28419497f9722a3daafe3b4186f6b6457e060405160405180910390a360008060006101000a81548173ffffffffffffffffffffffffffffffffffffffff021916908373ffffffffffffffffffffffffffffffffffffffff160217905550565b604051602001610fe290612632565b60405160208183030381529060405280519060200120600260003373ffffffffffffffffffffffffffffffffffffffff1673ffffffffffffffffffffffffffffffffffffffff168152602001908152602001600020604051602001611047919061261b565b604051602081830303815290604052805190602001201461106757600080fd5b80600260003373ffffffffffffffffffffffffffffffffffffffff1673ffffffffffffffffffffffffffffffffffffffff16815260200190815260200160002090805190602001906110ba929190611e45565b506001600360003373ffffffffffffffffffffffffffffffffffffffff1673ffffffffffffffffffffffffffffffffffffffff168152602001908152602001600020819055506111093361190c565b50565b60008060009054906101000a900473ffffffffffffffffffffffffffffffffffffffff16905090565b600754341461114357600080fd5b61114b611ec5565b604051806102400160405280600160ff168152602001600160ff1681526020016040518060400160405280601081526020017f4d61736875204b797269656c696768740000000000000000000000000000000081525081526020016040518060400160405280600881526020017f536869656c6465720000000000000000000000000000000000000000000000008152508152602001600160ff168152602001600360ff168152602001600160ff168152602001605a60ff16815260200160405180604001604052806040518060400160405280600981526020017f556e646566696e6564000000000000000000000000000000000000000000000081525081526020016040518060400160405280600981526020017f556e646566696e65640000000000000000000000000000000000000000000000815250815250815260200160405180604001604052806040518060400160405280600981526020017f556e646566696e6564000000000000000000000000000000000000000000000081525081526020016040518060400160405280600981526020017f556e646566696e656400000000000000000000000000000000000000000000008152508152508152602001600a61ffff168152602001600a61ffff1681526020016103e861ffff168152602001601961ffff16815260200160c861ffff168152602001606460ff168152602001606460ff168152602001606460ff168152509050600160003373ffffffffffffffffffffffffffffffffffffffff1673ffffffffffffffffffffffffffffffffffffffff16815260200190815260200160002081908060018154018082558091505060019003906000526020600020906009020160009091909190915060008201518160000160006101000a81548160ff021916908360ff16021790555060208201518160000160016101000a81548160ff021916908360ff160217905550604082015181600101908051906020019061142e929190611e45565b50606082015181600201908051906020019061144b929190611e45565b5060808201518160030160006101000a81548160ff021916908360ff16021790555060a08201518160030160016101000a81548160ff021916908360ff16021790555060c08201518160030160026101000a81548160ff021916908360ff16021790555060e08201518160030160036101000a81548160ff021916908360ff1602179055506101008201518160040160008201518160000190805190602001906114f6929190611e45565b506020820151816001019080519060200190611513929190611e45565b50505061012082015181600601600082015181600001908051906020019061153c929190611e45565b506020820151816001019080519060200190611559929190611e45565b5050506101408201518160080160006101000a81548161ffff021916908361ffff1602179055506101608201518160080160026101000a81548161ffff021916908361ffff1602179055506101808201518160080160046101000a81548161ffff021916908361ffff1602179055506101a08201518160080160066101000a81548161ffff021916908361ffff1602179055506101c08201518160080160086101000a81548161ffff021916908361ffff1602179055506101e082015181600801600a6101000a81548160ff021916908360ff16021790555061020082015181600801600b6101000a81548160ff021916908360ff16021790555061022082015181600801600c6101000a81548160ff021916908360ff160217905550505060018060003373ffffffffffffffffffffffffffffffffffffffff1673ffffffffffffffffffffffffffffffffffffffff1681526020019081526020016000206000815481106116c457fe5b906000526020600020906009020160030160009054906101000a900460ff1601600160003373ffffffffffffffffffffffffffffffffffffffff1673ffffffffffffffffffffffffffffffffffffffff16815260200190815260200160002060008154811061172f57fe5b906000526020600020906009020160030160006101000a81548160ff021916908360ff16021790555050565b611763611904565b73ffffffffffffffffffffffffffffffffffffffff1661178161110c565b73ffffffffffffffffffffffffffffffffffffffff16146117d7576040517f08c379a00000000000000000000000000000000000000000000000000000000081526004016117ce906126b9565b60405180910390fd5b600073ffffffffffffffffffffffffffffffffffffffff168173ffffffffffffffffffffffffffffffffffffffff161415611847576040517f08c379a000000000000000000000000000000000000000000000000000000000815260040161183e90612699565b60405180910390fd5b8073ffffffffffffffffffffffffffffffffffffffff1660008054906101000a900473ffffffffffffffffffffffffffffffffffffffff1673ffffffffffffffffffffffffffffffffffffffff167f8be0079c531659141344cd1fd0a4f28419497f9722a3daafe3b4186f6b6457e060405160405180910390a3806000806101000a81548173ffffffffffffffffffffffffffffffffffffffff021916908373ffffffffffffffffffffffffffffffffffffffff16021790555050565b600033905090565b611914611ec5565b604051806102400160405280600160ff168152602001600160ff1681526020016040518060400160405280601081526020017f4d61736875204b797269656c696768740000000000000000000000000000000081525081526020016040518060400160405280600881526020017f536869656c6465720000000000000000000000000000000000000000000000008152508152602001600160ff168152602001600360ff168152602001600160ff168152602001603c60ff16815260200160405180604001604052806040518060400160405280600981526020017f556e646566696e6564000000000000000000000000000000000000000000000081525081526020016040518060400160405280600981526020017f556e646566696e65640000000000000000000000000000000000000000000000815250815250815260200160405180604001604052806040518060400160405280600981526020017f556e646566696e6564000000000000000000000000000000000000000000000081525081526020016040518060400160405280600981526020017f556e646566696e656400000000000000000000000000000000000000000000008152508152508152602001600a61ffff168152602001600a61ffff1681526020016103e861ffff168152602001601961ffff16815260200160c861ffff168152602001606460ff168152602001606460ff168152602001606460ff168152509050600160008373ffffffffffffffffffffffffffffffffffffffff1673ffffffffffffffffffffffffffffffffffffffff16815260200190815260200160002081908060018154018082558091505060019003906000526020600020906009020160009091909190915060008201518160000160006101000a81548160ff021916908360ff16021790555060208201518160000160016101000a81548160ff021916908360ff1602179055506040820151816001019080519060200190611bf7929190611e45565b506060820151816002019080519060200190611c14929190611e45565b5060808201518160030160006101000a81548160ff021916908360ff16021790555060a08201518160030160016101000a81548160ff021916908360ff16021790555060c08201518160030160026101000a81548160ff021916908360ff16021790555060e08201518160030160036101000a81548160ff021916908360ff160217905550610100820151816004016000820151816000019080519060200190611cbf929190611e45565b506020820151816001019080519060200190611cdc929190611e45565b505050610120820151816006016000820151816000019080519060200190611d05929190611e45565b506020820151816001019080519060200190611d22929190611e45565b5050506101408201518160080160006101000a81548161ffff021916908361ffff1602179055506101608201518160080160026101000a81548161ffff021916908361ffff1602179055506101808201518160080160046101000a81548161ffff021916908361ffff1602179055506101a08201518160080160066101000a81548161ffff021916908361ffff1602179055506101c08201518160080160086101000a81548161ffff021916908361ffff1602179055506101e082015181600801600a6101000a81548160ff021916908360ff16021790555061020082015181600801600b6101000a81548160ff021916908360ff16021790555061022082015181600801600c6101000a81548160ff021916908360ff16021790555050505050565b828054600181600116156101000203166002900490600052602060002090601f016020900481019282601f10611e8657805160ff1916838001178555611eb4565b82800160010185558215611eb4579182015b82811115611eb3578251825591602001919060010190611e98565b5b509050611ec19190611f8b565b5090565b604051806102400160405280600060ff168152602001600060ff1681526020016060815260200160608152602001600060ff168152602001600060ff168152602001600060ff168152602001600060ff168152602001611f23611fa8565b8152602001611f30611fa8565b8152602001600061ffff168152602001600061ffff168152602001600061ffff168152602001600061ffff168152602001600061ffff168152602001600060ff168152602001600060ff168152602001600060ff1681525090565b5b80821115611fa4576000816000905550600101611f8c565b5090565b604051806040016040528060608152602001606081525090565b600081359050611fd181612858565b92915050565b600082601f830112611fe857600080fd5b8135611ffb611ff682612706565b6126d9565b9150808252602083016020830185838301111561201757600080fd5b612022838284612805565b50505092915050565b60008135905061203a8161286f565b92915050565b60008135905061204f81612886565b92915050565b60006020828403121561206757600080fd5b600061207584828501611fc2565b91505092915050565b60006020828403121561209057600080fd5b600082013567ffffffffffffffff8111156120aa57600080fd5b6120b684828501611fd7565b91505092915050565b6000806000806000806000806000806101408b8d0312156120df57600080fd5b60006120ed8d828e01612040565b9a505060208b013567ffffffffffffffff81111561210a57600080fd5b6121168d828e01611fd7565b99505060408b013567ffffffffffffffff81111561213357600080fd5b61213f8d828e01611fd7565b98505060606121508d828e01612040565b97505060806121618d828e0161202b565b96505060a06121728d828e0161202b565b95505060c06121838d828e0161202b565b94505060e06121948d828e01612040565b9350506101006121a68d828e01612040565b9250506101206121b88d828e01612040565b9150509295989b9194979a5092959850565b60006121d68383612422565b905092915050565b6121e7816127b8565b82525050565b60006121f882612757565b612202818561277a565b93508360208202850161221485612732565b8060005b85811015612250578484038952815161223185826121ca565b945061223c8361276d565b925060208a01995050600181019050612218565b50829750879550505050505092915050565b600061226d82612762565b612277818561278b565b9350612287818560208601612814565b61229081612847565b840191505092915050565b60006122a682612762565b6122b0818561279c565b93506122c0818560208601612814565b6122c981612847565b840191505092915050565b6000815460018116600081146122f157600181146123165761235a565b607f600283041661230281876127ad565b955060ff198316865280860193505061235a565b6002820461232481876127ad565b955061232f85612742565b60005b8281101561235157815481890152600182019150602081019050612332565b82880195505050505b505092915050565b600061236f60268361279c565b91507f4f776e61626c653a206e6577206f776e657220697320746865207a65726f206160008301527f64647265737300000000000000000000000000000000000000000000000000006020830152604082019050919050565b60006123d560208361279c565b91507f4f776e61626c653a2063616c6c6572206973206e6f7420746865206f776e65726000830152602082019050919050565b60006124156000836127ad565b9150600082019050919050565b60006102408301600083015161243b600086018261260c565b50602083015161244e602086018261260c565b50604083015184820360408601526124668282612262565b915050606083015184820360608601526124808282612262565b9150506080830151612495608086018261260c565b5060a08301516124a860a086018261260c565b5060c08301516124bb60c086018261260c565b5060e08301516124ce60e086018261260c565b506101008301518482036101008601526124e882826125b9565b91505061012083015184820361012086015261250482826125b9565b91505061014083015161251b6101408601826125fd565b506101608301516125306101608601826125fd565b506101808301516125456101808601826125fd565b506101a083015161255a6101a08601826125fd565b506101c083015161256f6101c08601826125fd565b506101e08301516125846101e086018261260c565b5061020083015161259961020086018261260c565b506102208301516125ae61022086018261260c565b508091505092915050565b600060408301600083015184820360008601526125d68282612262565b915050602083015184820360208601526125f08282612262565b9150508091505092915050565b612606816127ca565b82525050565b612615816127f8565b82525050565b600061262782846122d4565b915081905092915050565b600061263d82612408565b9150819050919050565b600060208201905061265c60008301846121de565b92915050565b6000604082019050818103600083015261267c818561229b565b9050818103602083015261269081846121ed565b90509392505050565b600060208201905081810360008301526126b281612362565b9050919050565b600060208201905081810360008301526126d2816123c8565b9050919050565b6000604051905081810181811067ffffffffffffffff821117156126fc57600080fd5b8060405250919050565b600067ffffffffffffffff82111561271d57600080fd5b601f19601f8301169050602081019050919050565b6000819050602082019050919050565b60008190508160005260206000209050919050565b600081519050919050565b600081519050919050565b6000602082019050919050565b600082825260208201905092915050565b600082825260208201905092915050565b600082825260208201905092915050565b600081905092915050565b60006127c3826127d8565b9050919050565b600061ffff82169050919050565b600073ffffffffffffffffffffffffffffffffffffffff82169050919050565b600060ff82169050919050565b82818337600083830152505050565b60005b83811015612832578082015181840152602081019050612817565b83811115612841576000848401525b50505050565b6000601f19601f8301169050919050565b612861816127b8565b811461286c57600080fd5b50565b612878816127ca565b811461288357600080fd5b50565b61288f816127f8565b811461289a57600080fd5b5056fea264697066735822122089a784fd4d8caa2900a64d0d12ebcd85d31d8d0bd87c4cc81499aef87f30f6ed64736f6c634300060c0033",
  "immutableReferences": {},
  "source": "// SPDX-License-Identifier: GPL-3.0\npragma solidity 0.6.12;\npragma experimental ABIEncoderV2;\n\nimport './Master.sol';\n\ncontract Pooling is Master{\n  \tmapping(uint => Servant) cards;\n  \tmapping(uint => uint) rates;\n\n  \tuint maxId = 1;\n\n  \tuint rollPrice = 0.001 ether;\n\n  \tfunction rollOne() public payable{\n  \t\trequire(msg.value == rollPrice);\n  \t\tServant memory card = Servant(1, 1, \"Mashu Kyrielight\", \"Shielder\", 1, 3, 1, 90, Skill(\"Undefined\", \"Undefined\"), Skill(\"Undefined\", \"Undefined\"), 10, 10, 1000, 25, 200, 100, 100, 100);\n  \t\tdrawed[msg.sender].push(card);\n  \t\tdrawed[msg.sender][0].level = drawed[msg.sender][0].level + 1;\n  \t}\n\n  \tfunction rollTen() public payable{\n  \t\trequire(msg.value == rollPrice * 10);\n  \t\tServant[] memory ret;\n  \t}\n\n  \tfunction addServant(uint8 id, string memory name, string memory class, uint8 rank, uint16 atk, uint16 def, uint16 hp, uint8 atkPerLevel, uint8 defPerLevel, uint8 hpPerLevel) public onlyOwner {\n  \t\trequire(keccak256(abi.encodePacked(cards[id].name)) == keccak256(abi.encodePacked(\"\")));\n  \t\tcards[id] = Servant(id, 1, name, class, 1, rank, 1, 80, Skill(\"Undefined\", \"Undefined\"), Skill(\"Undefined\", \"Undefined\"), atk, def, hp, 25, 200, atkPerLevel, defPerLevel, hpPerLevel);\n  \t}\n\n  \tfunction removeCard(uint index, address master) internal {\n  \t\trequire(index < drawed[master].length);\n  \t\tuint length = drawed[master].length;\n  \t\tdrawed[master][index] = drawed[master][length - 1];\n  \t\tdelete drawed[master][length - 1];\n  \t}\n}\n",
  "sourcePath": "/Users/NgHViet/Desktop/Blockchain/gacha/blockchain/contracts/Pooling.sol",
  "compiler": {
    "name": "solc",
    "version": "0.6.12+commit.27d51765.Emscripten.clang"
  },
  "schemaVersion": "3.3.4",
  "updatedAt": "2021-04-17T01:17:48.595Z",
  "networkType": "ethereum",
  "devdoc": {
    "kind": "dev",
    "methods": {
      "owner()": {
        "details": "Returns the address of the current owner."
      },
      "renounceOwnership()": {
        "details": "Leaves the contract without owner. It will not be possible to call `onlyOwner` functions anymore. Can only be called by the current owner. NOTE: Renouncing ownership will leave the contract without an owner, thereby removing any functionality that is only available to the owner."
      },
      "transferOwnership(address)": {
        "details": "Transfers ownership of the contract to a new account (`newOwner`). Can only be called by the current owner."
      }
    },
    "version": 1
  },
  "userdoc": {
    "kind": "user",
    "methods": {},
    "version": 1
  }
}